:100000000C94F5030C9412040C9412040C94120436
:100010000C9412040C9412040C9412040C94120408
:100020000C9412040C9412040C94472D0C941B2E67
:100030000C94E1230C9412040C9412040C941204FA
:100040000C9412040C9412040C9412040C941204D8
:100050000C9412040C9447240C9412040C94120473
:100060000C9412040C9412040C9412040C941204B8
:100070000C9412040C9412040C9412040C941204A8
:100080000C9412040C9412040C9412040C94120498
:100090000C9412040C9412040C9412040C94120488
:1000A0000C9412040C9412040C9412046572676F81
:1000B000646F785F657A2F64656661756C74204043
:1000C00020302E362E3431342D332D6734323131F9
:1000D0003235002E004C002A00E100354100001EA0
:1000E00000140004001D6134004D001F001A0016AA
:1000F000001B00E1042A0020000800070006005051
:10010000002C0021001500090019004F004A0022B0
:100110000017000A0005000000656450000153004C
:1001200000006F0000E3004F000153000000670073
:1001300000E20023001C000B0011000000296124D4
:100140000018000D00100052004B0025000C000E9E
:1001500000360051002800260012000F0037002F43
:10016000002B00270013003342386130004E002D71
:100170000031003468E50001580000F55C01000121
:10018000000100F45C00003A001E0220022202017D
:100190000001003B001F02210223020100C95C3C58
:1001A000002F0226022F000100CA5C3D003002270A
:1001B000023000010001003E00310235003502002E
:1001C00000C35C010001000000010000000100010B
:1001D000000100000001000000C25C3F005200511D
:1001E0000024020000F65C4000240021001E0001F3
:1001F0000001004100250022001F003700C55C42BD
:10020000002600230020002700C65C430025022EA4
:100210000231002E000100440045000100010001F0
:1002200000000001000100010001000100000001C8
:10023000000100010001000100010001000100F2C5
:10024000000100010001000100F000F1000100F4D4
:1002500000010001000100F3000100F500010001B0
:100260000001000100010000000100010001000088
:100270000001000000010001000100000001000079
:100280000001000100010001000100000001000167
:1002900000010001000100A90001000100010001AE
:1002A00000AC00AA00B600010001000100AB00A8EC
:1002B0000001000100010001000100010001000136
:1002C000000100AE0001000100000000000000007D
:1002D0000000002A2B2800000000000000000000A1
:1002E00000000000000029000000002C1E34202126
:1002F0002224342627252E362D3738271E1F20216D
:1003000022232425263333362E37381F04050607CB
:1003100008090A0B0C0D0E0F1011121314151617E5
:1003200018191A1B1C1D2F3130232D350405060703
:1003300008090A0B0C0D0E0F1011121314151617C5
:1003400018191A1B1C1D2F3130354C0000000000FD
:10035000000000000000000000000000000000009D
:10036000000000000000000000000000000000008D
:10037000000000000000000000000000000000007D
:10038000000000000000000000000000000000006D
:10039000000000000000000000000000000000005D
:1003A000000000000000000000000000000000004D
:1003B000000000000000000000000000000000003D
:1003C000000000000000000000000000000000002D
:1003D000000000000000000000000000000000001D
:1003E0000000000000000000000000000101010109
:1003F00001010001010101000000000000000000F7
:1004000000000000000100010001010101010101E3
:1004100001010101010101010101010101010101CC
:1004200001010101010100000001010000000000C4
:1004300000000000000000000000000000000000BC
:10044000000000000000010101010000047F3F1FC7
:10045000643214643214783C1E1E140A05222325CB
:100460002628292A2C2D2F3032333536383A3B3D79
:100470003E4042434547494A4C4E505153555759C7
:100480005A5C5E6062646668696B6D6F71737577E4
:10049000797B7D7F81838587898A8C8E90929496E3
:1004A000989A9C9E9FA1A3A5A7A8AAACAEAFB1B3F2
:1004B000B4B6B8B9BBBCBEBFC1C2C3C5C6C7C9CA42
:1004C000CBCCCDCED0D1D2D2D3D4D5D6D7D7D8D904
:1004D000D9DADADBDBDBDCDCDCDCDCDDDDDDDDDC62
:1004E000DCDCDCDCDBDBDBDADAD9D9D8D7D7D6D574
:1004F000D4D3D2D2D1D0CECDCCCBCAC9C7C6C5C336
:10050000C2C1BFBEBCBBB9B8B6B4B3B1AFAEACAA82
:10051000A8A7A5A3A19F9E9C9A98969492908E8C32
:100520008A89878583817F7D7B79777573716F6D0C
:100530006B6968666462605E5C5A595755535150E6
:100540004E4C4A4947454342403E3D3B3A3836359A
:100550003332302F2D2C2A292826252322FFAA7F4B
:1005600055400000000000000000000001010101F2
:10057000010101010102020202020202020303035D
:100580000303030304040404040505050505060626
:1005900006060607070707080808080909090A0ADE
:1005A0000A0B0B0B0C0C0C0D0D0D0E0E0E0F0F107D
:1005B0001010111112121313141415151616171703
:1005C000181819191A1A1B1C1C1D1D1E1F1F20216B
:1005D0002122232324252526272828292A2B2C2CB1
:1005E0002D2E2F30313132333435363738393A3BCE
:1005F0003C3D3E3F404142434445464748494B4CC1
:100600004D4E4F50525354555758595A5C5D5E6089
:100610006163646567686A6B6C6E6F71727476771C
:10062000797A7C7D7F8182848687898B8D8E90927A
:10063000949597999B9D9FA1A2A4A6A8AAACAEB0A1
:10064000B2B4B6B9BBBDBFC1C3C5C8CACCCED0D386
:10065000D5D7DADCDEE1E3E6E8EAEDEFF2F4F7F92C
:10066000FCFF040330000000160345007200670021
:100670006F0044006F007800200045005A00000021
:1006800016034500720067006F0044006F00780099
:10069000200045005A0000000403090409023B0041
:1006A000020100A0FA090400000103010100092170
:1006B000110100012240000705810308000A090416
:1006C0000100010300000009211101000122C00006
:1006D0000705820320000A1201100100000008ED46
:1006E000FE071301000102030105010902A10185B2
:1006F000020901A100050919012905150025019527
:100700000575018102950175038101050109300913
:10071000311581257F9502750881060938158125D7
:100720007F950175088106050C0A38021581257F21
:10073000950175088106C0C005010980A1018503E6
:100740001601002603001A81002A83007510950106
:100750008100C0050C0901A1018504160100269C39
:10076000021A01002A9C02751095018100C0050142
:100770000906A1018505050719E029E715002501EE
:10078000950875018102050819012905950575016E
:1007900091029501750391010507190029EF1500D4
:1007A000250195F075018102C005010906A1010529
:1007B0000719E029E71500250195087501810295C3
:1007C0000175088101050819012905950575019133
:1007D000029501750391010507190029FF150026EF
:1007E000FF00950675088100C00011241FBECFEFE1
:1007F000DAE0DEBFCDBF12E0A0E0B1E0E6E2F4E671
:1008000002C005900D92A230B107D9F723E0A2E013
:10081000B2E001C01D92A938B207E1F70E94712A27
:100820000C947B310C94000080B38C7080BB81B33E
:10083000836F81BB089584B1807F84B985B1807F47
:1008400085B98AB1837F8AB98BB1837F8BB93E9892
:1008500046980895CF93C82F873070F58091060190
:1008600090910701892B89F564E670E080E40E948D
:1008700042159093070180930601892BD1F464E619
:1008800070E082E10E949E1590930701809306011B
:10089000892B79F481E090E001C0880FCA95EAF7CE
:1008A00064E670E080950E949E1590930701809306
:1008B0000601CF910C94F1158A30B9F040F48830DC
:1008C00071F0893079F0209A2898CF9108958C3072
:1008D00091F070F08D30B9F73E9A4698F6CF219A94
:1008E0002998F3CF229A2A98F0CF239A2B98EDCF0C
:1008F000529A5A98EACF539A5B98E7CFCF938730B2
:1009000008F040C08091060190910701C0E0892B5A
:1009100071F464E670E080E40E9442159093070150
:1009200080930601892B31F0C0E00E94F1158C2FD5
:10093000CF91089564E670E083E10E949E15909344
:10094000070180930601892B79F764E670E081E462
:100950000E9442159093070180930601892B21F78D
:1009600084E690E00E94CD1597FF05C090930701A3
:1009700080930601D9CFC82FC0951092070110921D
:100980000601D3CFCFB18FB1869586958C73C37096
:100990008C2BC82FC095CBCF08950C94CC040E940B
:1009A000E00590E090930701809306010E941B04EC
:1009B0000E941404E3E0F2E0A1E1B2E011921D9282
:1009C00082E0E131F807D1F78EE00E94A50C0C948B
:1009D000D8070E94E00590E09093070180930601FC
:1009E0000E941B040E941404E3E0F2E0119282E0F2
:1009F000E131F807D9F70895EF92FF920F931F9313
:100A0000CF93DF938091060190910701892B91F09C
:100A1000809102028F5F8093020281110BC00E94BD
:100A2000E00590E09093070180930601892B11F473
:100A30000E948A0501E112E0C0E0D0E087E0E82EE4
:100A4000EC0E8C2F0E942A048E2D0E942A048C2FDB
:100A50000E947E04F80191918F01F12C891721F0F9
:100A600031978083FF24F3948E2D0E947E04F80139
:100A700096818917D9F0868381E08F29D82B0E942F
:100A80001B04CF5FC730D1F62D2F4EE063E072E03C
:100A900081E192E00E94280D0E94E20781E0DF914F
:100AA000CF911F910F91FF90EF90089580E0E5CFD7
:100AB000E82FF0E0ED5FFD4F808108950895259ABD
:100AC0002D9A0895269A2E9A0895279A2F9A089576
:100AD00056985E98089525982D98089526982E98F2
:100AE000089527982F9808950E9468050E946B0525
:100AF0000E946E050C94710590E09093890080939C
:100B0000880090938B0080938A0090938D0080934F
:100B10008C0008950E9474058FEF0E947C050E944E
:100B20005F052FEF80E792E0215080409040E1F791
:100B300000C000000E9462052FEF80E792E0215084
:100B400080409040E1F700C000000E9465052FEF53
:100B500080E792E0215080409040E1F700C0000023
:100B60000E946B052FEF80E792E02150804090407B
:100B7000E1F700C000000E946E052FEF80E792E0D1
:100B8000215080409040E1F700C000000E947105B4
:100B90000C94740589EA8093800089E08093810039
:100BA00024982C983F988AB18F7C8AB96E98479A7E
:100BB0008BB180638BB9769A0E948A050C94760675
:100BC00080E290E0909307018093060180911F02DC
:100BD00081110EC00E943C1581E080931F022FEF0F
:100BE00083ED90E3215080409040E1F700C0000089
:100BF00064E670E080E40E944215909307018093C0
:100C00000601892B09F04EC064E670E080E00E9486
:100C10009E159093070180930601892B09F042C02D
:100C200064E670E080E00E949E1590930701809337
:100C30000601892BB9F564E670E08FE30E949E15EA
:100C40009093070180930601892B61F50E94F115AD
:100C500064E670E080E40E9442159093070180935F
:100C60000601892BF9F464E670E08CE00E949E1581
:100C70009093070180930601892BA1F464E670E04C
:100C800080E00E949E159093070180930601892BB6
:100C900049F464E670E08FE30E949E15909307018B
:100CA000809306010E94F1158091060108959C0130
:100CB000FB0182818823C1F0253FFCE53F0759F005
:100CC000263F9CE5390761F0243F3C4571F40E94C2
:100CD000002380E008958CEA90E00E94D507F9CFC8
:100CE00081E00E94E112F5CF81E008950895CF924E
:100CF000DF92EF92FF926B017C010E9468050E94D7
:100D00006B050E946E050E947105C701B6010E9425
:100D10003922883040F4E82FF0E0E358FE4C0C9480
:100D2000F52F0E94F612C701B601FF90EF90DF90F9
:100D3000CF9008950E945F05F6CF0E945F050E9444
:100D40006205F1CF0E945F050E946505ECCF0E940D
:100D50005F050E946205F8CF0F931F93CF93DF9337
:100D60008C01EB019A9581159F4138F510FF03C066
:100D700080EEFB01099511FF03C081EEFE0109958C
:100D800012FF03C082EEFE01099513FF03C083EE3C
:100D9000FE0109950115104180F084EEFE010995D0
:100DA00085EEFE01099586EEFE01099587EEFE01AE
:100DB000DF91CF911F910F910994DF91CF911F91F6
:100DC0000F910895877091E001C0990F8A95EAF715
:100DD000892F0E949D210C94D6210C94E2068770E5
:100DE00091E001C0990F8A95EAF7892F0E94A3210B
:100DF0000C94D6210C94EF06CF93DF93EC01805E28
:100E00009109089720F062EE76E0209711F46DEEDC
:100E100076E0CE010E94AC068C2FDF91CF910C942E
:100E2000A617CF93DF93EC010E949318CE01805E4A
:100E30009109089720F06FEE76E0209711F46AEFA1
:100E400076E0CE01DF91CF910C94AC06CF93DF9387
:100E5000EC010E94FC06CE01DF91CF910C941107AA
:100E600081E008950C9457061F93CF93DF9300D031
:100E700000D00F92CDB7DEB749835A836B832091A0
:100E8000590289819A8121111BC06623A9F00E9411
:100E9000F220182F682F89819A810E949B206981F6
:100EA0007A81812F0F900F900F900F900F90DF910C
:100EB000CF911F910C94250A0E94C920182FEFCFC3
:100EC0000E94F22069817A81EDCFFC01408151813D
:100ED0006281738184810C9434071F93CF93DF93D5
:100EE00090E0FC01E553FD4F1491FC01E553FC4FEC
:100EF000D491855B9C4FFC01C491DD2319F081EEF8
:100F00000E94A617CC2319F086EE0E94A617812F07
:100F10000E94E918CC2319F086EE0E949318DD2375
:100F200031F081EEDF91CF911F910C949318DF91F6
:100F3000CF911F910895FF920F931F93CF93DF934B
:100F40008C01F62EF8018491882349F1E80121965D
:100F5000813049F4FE011491812F0E94A617812F40
:100F60000E94931806C0823089F4FE0184910E9489
:100F7000A6178E010F5F1F4F8F2D815018F3EFE9D9
:100F8000FFE03197F1F700C00000F7CF833019F48C
:100F9000FE018491E5CF0E946D07E801EACFDF9161
:100FA000CF911F910F91FF90089560E00C949B07E3
:100FB0000E948622811102C00E9400230E94790DA6
:100FC0000C94CA050C94CD04282F2F7041F0822F69
:100FD00090E02A3010F44D9608950697089587E220
:100FE00090E0089508950C94F2070C94F307089587
:100FF0000E94DD1B0E94F7072FEF84E39CE0215045
:1010000080409040E1F700C000000C946B240F93E7
:101010001F93CF93DF938C010E946507EC01B80109
:101020000E943207882309F4D3C0B801CE010E9480
:10103000F00D882309F4CCC0B801CE010E94FB1446
:10104000882309F4C5C0CA3C8CE5D80709F402C15D
:1010500008F054C0C33CECE5DE0709F4D3C048F502
:10106000C5318CE5D807A8F4C2309CE5D90708F053
:1010700056C1C115ECE5DE0709F4A5C0C130DC4559
:1010800009F4ACC0C801DF91CF911F910F910C946E
:101090003007C6318CE5D80709F4B3C1C23CDC4542
:1010A00089F7F8018281882309F492C00E94EC122A
:1010B0008FC0C63CECE5DE0709F4BAC080F4C43C3E
:1010C0008CE5D80709F4A9C0C53CDC45D9F6F80180
:1010D0008281882309F47CC00E94861079C0F801BF
:1010E0008281C83CFCE5DF0709F4AEC008F4A7C064
:1010F000882309F46DC00E94C0106AC0C13DECE5B0
:10110000DE0709F4DBC070F5CD3C8CE5D80709F4A7
:10111000B1C088F4CB3CECE5DE0709F4A3C0CC3CBD
:10112000DC4509F0AFCFF8018281882309F450C073
:101130000E941E0F4DC0F8018281CF3CFCE5DF0705
:1011400009F4AEC008F49FC0882309F441C00E948E
:10115000050F893028F00E94050F8E3008F465C015
:1011600089E08EC0C53DECE5DE0709F4CAC0B0F4E5
:10117000F8018281C33DFCE5DF0709F4BDC008F436
:10118000ADC0882329F10E94050F893128F00E9403
:10119000050F823208F449C089E172C0CD3DECE50B
:1011A000DE0709F4B5C0CE3DFCE5DF0721F1CC3DFB
:1011B000DC4509F067CFF8018281882349F080E09F
:1011C0000E940F2B05C0F801828181110E94F8074F
:1011D00080E0DF91CF911F910F910895F8018281F6
:1011E0008823B1F39091F802892F8E7F90FF816060
:1011F0008093F802EDCFF8018281882349F30E94A1
:101200000023E6CFF8018281882311F30E94872111
:10121000827259F00E94DE12DBCFF80182818823AE
:10122000B9F20E9487218272A9F30E94D112D0CF15
:10123000F8018281882361F20E949310C9CF88232C
:1012400039F20E94A210C4CF882309F4C1CF0E94B2
:10125000B110BECFF8018281882309F4B9CF0E9472
:10126000CF10B6CFF8018281882309F4B1CF0E9454
:101270000D0FAECFF8018281882309F4A9CF81E058
:101280000E94E112A5CF882309F4A2CF0E94050F86
:10129000823020F00E94050F853038F282E0F0CFD6
:1012A000882309F495CF0E94050F863028F00E940C
:1012B000050F883008F4B9CF86E0E2CFF8018281CB
:1012C000882309F485CF0E94050F8F3028F00E94F3
:1012D000050F843108F4A9CF8FE0D2CF882309F419
:1012E00077CF0E94050F853128F00E94050F8731C6
:1012F00008F49BCF85E1C4CF882309F469CF88E146
:10130000BFCFF8018281882309F462CF83E2B8CF8E
:10131000F8018281882309F45BCF82E051CFF80184
:101320008281882309F4AECE0E948622811102C0F8
:101330000E9400230E94992290E09093770380936B
:101340007603FE01E350FC45809176038160E23133
:10135000F10538F4EB57FE4C0C94F52F8091760391
:10136000826080937603809176030E949D220E9482
:10137000DD1B2ECF809176038460F3CF80917603BE
:101380008860EFCF809176038061EBCF8091760308
:101390008062E7CF809176038064E3CF809176030B
:1013A0008068DFCF809176038C60DBCF80917603FD
:1013B0008E7FD7CF809176038D7FD3CF80917603B8
:1013C0008B7FCFCF80917603877FCBCF80917603C1
:1013D0008F7EC7CF809176038F7DC3CF80917603B8
:1013E0008F7BBFCF809176038F77BBCF80917603C1
:1013F000837FB7CF90917603892F97FB87F9805829
:10140000B0CF0E948721F8019281992381F08A7AD6
:1014100091E009F490E090932002811106C089E2E6
:101420000E9462210E94D621D3CE85E3F9CF80911C
:101430002002811104C089E20E946921F3CF85E373
:10144000FBCF90E080E008950895972F70E026E0AC
:10145000929F600D711D1124FB0194E5899FE00DA1
:10146000F11D1124EE0FFF1FED52FF4F8591949156
:101470000895FC01EE0FFF1FE55BFB4F85919491F2
:101480000895CF93DF930E94250A0E94070CEC0178
:10149000811520E5920708F042C0811530E49307DA
:1014A00008F018C1883E910528F5803E910508F0A6
:1014B000A4C0883A910588F4853A910508F093C054
:1014C0008130910509F499C0009709F496C00497FA
:1014D00008F093C0D0E0C0E090C08F3B910508F4C5
:1014E00090C0805C9109C03CD105A0F30E94390AEC
:1014F000EC0183C08115904250F4C11581E0D807FA
:1015000008F07BC0C03FD10528F3D06576C0C11577
:1015100090E3D90708F0D4C0CE019F70E7CF8115C2
:1015200025E5920758F5811534E5930708F001C1C8
:10153000811542E5940750F4C11581E5D80708F4F8
:10154000CCC0DC2FCC27C16FD06A57C0982F96959E
:1015500096959E0123703327C115D34508F0DAC054
:10156000C1E0D0E002C0CC0FDD1F2A95E2F720E2F7
:10157000929FC0011124C82BD92BCAC0C1158AE57E
:10158000D807A0F4C11599E5D90708F0E2C0C11544
:1015900026E5D20708F4D2C0C11538E5D30708F410
:1015A00099CFDC2FCC27C06FD06A27C0C1154BE57F
:1015B000D40708F48FCFC1158CE5D80708F4D9C03B
:1015C000CE0190568115904208F084CF8D2F8F71F7
:1015D0000E94820C90E0982F882788279F719C0199
:1015E0002C2BE901B4C0853A910509F4C5C0863AAF
:1015F000910509F0C4C0C2E8D0E4CE01DF91CF91DB
:101600000895883A910509F4BDC0893A910509F415
:10161000BCC08A3A910509F4BBC08B3A910509F424
:10162000BAC08C3A910509F4B9C08B3B910509F415
:10163000B8C08C3B910509F4B7C08D3A910509F407
:10164000B6C0803B910509F4B5C08E3A910509F406
:10165000B4C08F3A910509F4B3C0813B910509F4F8
:10166000B2C0823B910509F4B1C0833B910509F4F6
:10167000B0C0843B910509F4AFC0853B910509F4E6
:10168000AEC0863B910509F4ADC0873B910509F4D6
:10169000ACC0883B910509F4ABC0893B910509F4C6
:1016A000AAC08D3B910509F4A9C08E3B910509F4B0
:1016B000A8C08A3B910509F4A7C0C0E0D4E49DCF3F
:1016C000CE019927D3FF03C0EC01D86C96CFEC0173
:1016D000D06C93CFDF70D06A90CFCE01E4E09695C6
:1016E0008795EA95E1F783702C2F26952695237030
:1016F00040E2249F90011124382B8C2F8370C1E08D
:10170000D0E002C0CC0FDD1F8A95E2F7C22BD32BAD
:10171000DC6873CFC1E0D0E002C0CC0FDD1F2A959A
:10172000E2F730E2939FC0011124C82BD92BDA686D
:1017300064CFD82FCC27C46FD06A5FCF8C2F0E9484
:10174000820CC82FD0E0DC2FCC27CC27DF71D062F1
:1017500054CF8C2F8F700E94820C34E0D695C795A1
:101760003A95E1F79C2F9F70C82FCF70C06ED92F8C
:10177000B2CFDD27D06641CFC1E8D0E43ECFC3E889
:10178000D0E43BCFC2EED4E438CFC9EED4E435CFB9
:10179000CAEED4E432CFC5EBD4E42FCFC6EBD4E409
:1017A0002CCFC3EBD4E429CFC4EBD4E426CFC7EBD2
:1017B000D4E423CFCCECD4E420CFCDECD4E41DCFC3
:1017C000C3E8D5E41ACFCAE8D5E417CFC2E9D5E417
:1017D00014CFC4E9D5E411CFC1E2D6E40ECFC3E201
:1017E000D6E40BCFC4E2D6E408CFC5E2D6E405CFF9
:1017F000C6E2D6E402CFC7E2D6E4FFCECFE6D4E419
:10180000FCCEC0E7D4E4F9CECAE2D6E4F6CE823804
:10181000910549F1B0F48133910509F462C048F4AF
:101820008932910509F456C08A32910509F460C0E5
:1018300008958533910509F446C08933910599F0DF
:101840000895833E910531F138F4803E910591F081
:10185000823E9105B1F00895863E910521F1873EC3
:10186000910551F10895209176032370D9F080EE0F
:1018700090E008952091760320FF14C089E390E062
:1018800008952091760322FF0DC024FD09C083EE48
:1018900090E008952091760322FD31C024FF02C01C
:1018A00090E080E008952091760323FFFBCF24FD94
:1018B000F7CF87EE90E008952091760323FFEECFD7
:1018C00086EE90E008952091760325FFEBCF89E224
:1018D00090E008952091760325FFE4CF85E390E022
:1018E00008952091760326FFDDCF8AE290E00895E7
:1018F0002091760326FFD6CF81E390E0089582EE13
:1019000090E008959091760392FF06C0282F2871E9
:10191000283069F4877F846093FF06C0282F2871E0
:10192000283161F4877E846194FD877E0895282F95
:101930002471243089F78B7F8860EECF282F2471A3
:10194000243191F78B7E8861EFCFCF93C82F90E041
:101950000E94FB2F8093220290932302282FFC01E8
:101960009BEF8E2F821B8C1710F0CF9108959193CF
:10197000F8CFEF92FF920F931F93CF93DF931092C4
:10198000210250912202E52FF091230240E0A62F80
:10199000B0E07BEF9AEFE92EF12C9E2F951B981764
:1019A00048F040932102DF91CF911F910F91FF905A
:1019B000EF90089591919B3F81F3292F30E06917B3
:1019C00068F08D01021B130B9801253031056CF076
:1019D0009F0121503109E9017883DFCFE701C21B64
:1019E000D30B9E012A0F3B1FF0CF41E0D6CF0F93C0
:1019F0001F93CF93DF9310922402509122023091D3
:101A00002102DB018C01E52FF091230290E08E2F63
:101A1000851B841748F03093210290932402DF91B4
:101A2000CF911F910F9108956D91E80189918E01D9
:101A3000681751F060816B3F49F42083BD0161500C
:101A40007109EB01888331E03196E1CF91E0FCCF61
:101A5000CF92DF92EF92FF921F93CF93DF937C019F
:101A60006B01C42F122F0E9411246AEF70E00E94B4
:101A7000CD2FD82F80912102882319F16D2F8C2F23
:101A80000E94B90C112369F02D2F4C2FB601C7010C
:101A9000DF91CF911F91FF90EF90DF90CF900C944A
:101AA000F70C80912102882379F38091240281111F
:101AB000EBCFDF91CF911F91FF90EF90DF90CF9010
:101AC00008951111E1CFF1CFCF93DF93EC0197FF90
:101AD0000CC0FB018281882341F00E948F0DCE0152
:101AE0009F770E94D30D0E94BB0D81E0DF91CF91C3
:101AF00008958CE090E00E94333190E0B0E0A0E0E7
:101B000080932A0390932B03A0932C03B0932D036F
:101B1000089560912A038CE090E00C9447310E9474
:101B2000872180932E030E949A2180912A0381307D
:101B300089F0882359F0823091F08430B9F08FE336
:101B40009CE90197F1F700C00000089582EE0E9421
:101B5000A617F5CF88E193E00E942607F0CF82EE2A
:101B60000E94A61787E50E94E918E9CF86EE0E9439
:101B7000E91888E1F8CF80912A03813071F0882339
:101B800041F0823031F0843061F080912E030C946A
:101B9000972182EE0E949318F8CF8CE20E94E918F8
:101BA000F4CF88E2FBCF0F931F93CF93DF938C0189
:101BB000CCE0D0E0C8010C2E02C0969587950A941F
:101BC000E2F78F700E94E4070E94E9182497CC3F47
:101BD0008FEFD80779F7DF91CF911F910F9108957B
:101BE0000F931F93CF93DF93EC018B01FB01828155
:101BF000882371F0C33EFCE5DF0719F188F4C13E8C
:101C0000ECE5DE07C9F081E0C23EFCE5DF0789F0C4
:101C1000B801CE01DF91CF911F910F910C94640D0B
:101C2000C43E8CE5D80779F084E0C53EECE5DE07DC
:101C300079F780932A0302C010922A030E94890D2B
:101C4000E7CF82E0F6CF83E0F4CFAF92BF92CF929E
:101C5000DF92FF920F931F93CF93DF93362F472F7F
:101C6000282FF82EE82FF0E071110FC0EE59FA4F2F
:101C70006491762F862FDF91CF911F910F91FF9066
:101C8000DF90CF90BF90AF900895072F10E056E0FF
:101C9000659FC0011124CFEFD0E0BE010E94CD2F7F
:101CA000832F90E0880F991F35E5369FD001379F2D
:101CB000B00D11248A1B9B0B982F990F980F6E0162
:101CC000C01AD10ACE9ED001CF9EB00DDE9EB00DBF
:101CD00011248B2F949FA0011124452F55276E01AD
:101CE000C41AD50ACE9EA001CF9E500DDE9E500D87
:101CF00011245E01A91AB108A09E6001A19ED00C1A
:101D0000B09ED00C1124CD2CDD24CC19DD09CE9F42
:101D10008001CF9F100DDE9F100D1124912F623096
:101D2000710509F148F46115710569F061307105BB
:101D3000F1F09B2F852F07C064307105D9F0F0F0CA
:101D400066307105B1F7E22FF0E0EE59FA4F749169
:101D5000E92FF0E0EE59FA4F6491E82FF0E0EE59E8
:101D6000FA4F849188CF922F2B2F812FECCF922F77
:101D7000252FE9CF9B2F822F212FE5CF2B2F8F2DC2
:101D8000952FE1CF0895CF93DF93762FE901682F48
:101D9000842F0E94250E798368838A83DF91CF91F7
:101DA000089580912F03982F9E7F29F4817082607F
:101DB00080932F0308958A34E8F381708864F8CF04
:101DC00088E090E00C943B31CF92DF92EF92FF924B
:101DD0006B017C010E94D10EB701A60188E090E062
:101DE000FF90EF90DF90CF900C945931EFE2F3E049
:101DF00083E0808311828FEF8283838314826081EA
:101E00007181828193810C94E40E80912F0380FF75
:101E100002C08695089580E0089580913303833051
:101E200018F48F5F8093330360912F037091300318
:101E300080913103909132030C94E40E809133032E
:101E4000882319F081508093330360912F037091A0
:101E5000300380913103909132030C94E40E609131
:101E60000C0170E080912F0380FF0AC0809129024D
:101E700024E0829FC00111248C5C9C4F0C944E1472
:101E80008091280290910B0124E0829FF00111249F
:101E9000EC5CFC4F891750F71182108212828F5F21
:101EA0003496F8CF90912F0390FF14C090912802A0
:101EB00020910B0134E0939FF0011124EC5CFC4F66
:101EC000921710F00C942F0F8183608342839F5FE1
:101ED0003496F6CF0895CF93DF9300D000D0CDB7DE
:101EE000DEB790912F0390FF0AC09E012F5F3F4FF6
:101EF0000E94C30E4B8169818A810E94520F0F900C
:101F00000F900F900F90DF91CF910895CF93DF93B3
:101F1000EC01EC81F0E0E35AFB4F4491EFE2F3E097
:101F2000628181810E946B0F8C818F5F8C83DF9136
:101F3000CF910895CF93DF93EC01EFE2F3E043817B
:101F400062818C810E946B0F8C818F5F8C83DF910B
:101F5000CF9108950F931F93CF93DF9300D000D0BC
:101F6000CDB7DEB78C018091250281110AC09E0198
:101F70002F5F3F4F4FEF6FEF0E94C30E8A81809318
:101F80002502F8016481613069F08091250240E00A
:101F9000662361F040E0623011F44091250280E058
:101FA00060E004C06091250240E080E00E94520F92
:101FB000F801848190E0019663E070E00E94E12FD7
:101FC00084830F900F900F900F90DF91CF911F910E
:101FD0000F910895AF92BF92CF92DF92EF92FF924E
:101FE0000F931F93CF93DF9300D000D0CDB7DEB710
:101FF000182FF62E042FE22E90912F0390FF29C068
:10200000E92FE695AE2FB0E0AE52BE4F8C91809393
:1020100031029E7F923061F59E012F5F3F4F812FED
:102020000E94C30E4B8169818A810E94520F1093D6
:102030003003F092310300933203EE2051F06091AF
:102040002F037091300380913103909132030E94ED
:10205000E40E0F900F900F900F90DF91CF911F9192
:102060000F91FF90EF90DF90CF90BF90AF900895C9
:10207000823019F400913203DACF863019F41091CE
:102080003003D5CF8930D9F3893189F6E9518E2FC4
:102090008170D82EE695F0E0E35AFA4FA590B490FF
:1020A000C12CBB2460910A01C61618F00E942F0FA4
:1020B000BECFEC2DF0E0AE9EC001AF9E900DBE9E57
:1020C000900D112470E00E94CD2F812FD11012C0ED
:1020D000860F209128022E0F3F2F311D220F331F14
:1020E000220F331F2C5C3C4F402F6F2D0E94C30EDC
:1020F000C394D8CF861BEDCFEFE2F3E09181282F78
:10210000438162818CE0890F0C94EA0F81E00C948A
:102110007C10EFE2F3E09181282F4381628184EF0C
:10212000890F0C94EA0F81E00C948910EFE2F3E040
:1021300062812FEF620F08F46FEF282F43818181B6
:102140000C94EA0F81E00C949610EFE2F3E06281C8
:102150002FEF621B08F460E0282F438181810C94EB
:10216000EA0F81E00C94A510EFE2F3E043812CE04C
:10217000420F08F44FEF282F628181810C94EA0FFF
:1021800081E00C94B410EFE2F3E043812CE0421BB9
:1021900008F440E0282F628181810C94EA0F81E0ED
:1021A0000C94C31020E00C94EA0FFF920F931F933E
:1021B000CF93DF93EC01F12C0FEF10E060910A0157
:1021C000F61670F00E942F0F9A818C8190FF24C028
:1021D0008F5F8C83DF91CF911F910F91FF900895B6
:1021E000209128022F0D3327331F220F331F220F78
:1021F000331F2C5C3C4F70E0C8010E94E12F962FEA
:102200008C814091320360913103F99E800D11243D
:102210000E94C30EF394D2CF8150DBCFBF92CF92F6
:10222000DF92EF92FF920F931F93CF93DF93FC0106
:102230008281EE24EA9480FD02C0EE24E394F12C26
:1022400080910A01F816C0F00E942F0F809127029A
:1022500091E0E9124CC0811102C080910A018150C5
:1022600080932702DF91CF911F910F91FF90EF9004
:10227000DF90CF90BF900895C09128020F2D10E0FD
:10228000C00FD12FD11DCC0FDD1FCC0FDD1FCC5CBB
:10229000DC4F198218821A8224E0C22ED12CB12C74
:1022A000809127028B0D87FF03C090910A01890F4F
:1022B000082E000C990B0817190791F4809132032E
:1022C0008C9DA0018D9D500D1124559547955595D8
:1022D00047959E0160913103809130030E94C30EA7
:1022E000BE0CF1E0CF1AD108D9F6F394A9CF90E053
:1022F000019660910A0170E00E94E12FB1CF0F9327
:102300001F93CF938091280290910B0124E0829F2C
:10231000F0011124EC5CFC4F891730F1C0E06091B2
:102320000A01C61738F10E942F0F209108018091F1
:102330002602820F8093260290910901920F9093BA
:102340000901191654F4082E000C990B40910A014A
:102350004150550B841795071CF0219520930801D7
:10236000CF911F910F9108951182108212828F5F79
:102370003496D2CF0C2F10E070E0C8010E94E12FFC
:10238000E0912802E80F80912602082E000C990B9C
:1023900024E0E29FF001112408171907ACF08091A6
:1023A0000901082E000C990B801791076CF09F0112
:1023B0002C5C3C4F4091320360913103809130039B
:1023C0000E94C30ECF5FABCFEC5CFC4F118210823A
:1023D0001282F8CF0F931F93CF93DF938C01FC01F0
:1023E0008481958101968170992795838483C0E0CB
:1023F000D5E580910A01C81730F0DF91CF911F9188
:102400000F910C942F0F209128022C0F3327331F8C
:10241000220F331F220F331F2C5C3C4F8C2F8695CD
:10242000F80144815581840F952F911D8170409151
:102430003203609131038D9F802D11240E94C30EC1
:10244000CF5FD7CF0F931F93CF93DF93EC0110E0B3
:1024500000E090910A019017110609F06CF40E94B7
:102460002F0F8C8190E00196817099278C83DF91EA
:10247000CF911F910F91089520912802200F312FA5
:10248000311D220F331F220F331F2C5C3C4F4C8118
:10249000609131038091300396959017110651F0A9
:1024A0004CF0442349F0409132030E94C30E0F5F69
:1024B0001F4FCFCF4423B9F340E0F7CFEFE2F3E073
:1024C00080818E7F808360817181828193810E946F
:1024D000E40E109232022FEF80E792E0215080400C
:1024E0009040E1F700C000000C942F0F60912F0383
:1024F000669570E04BE050E08DE091E00E9426315F
:10250000892B19F481E0809332020E941124909368
:102510002B0280932A02089590912F0390FF35C0DB
:102520009170811128C0926090932F03662351F01F
:1025300060912F03709130038091310390913203A9
:102540000E94E40E60912F03669570E04BE050E02E
:102550008DE091E00E942631892BA1F01092320289
:1025600081E080932D02409132036091310380918C
:1025700030030C94D210853210F09864D5CF880FB8
:10258000982BD2CF0E947612EBCF0895682F9091AE
:102590002F03969581E0890F853208F081E00C9435
:1025A0008C1281E00C94C612682F90912F0396959F
:1025B0008FEF890F09F484E20C948C1281E00C9463
:1025C000D41261E00C948C12EFE2F3E08081816020
:1025D000808386950C94E11280912F0380FD0C94EA
:1025E0005E120C94E41260E00C948C128091300224
:1025F000811133C08091F80281608093F8020E94BB
:102600008622811104C00E9400230E94F60E0E94BF
:10261000E00E60932F037093300380933103909307
:1026200032036E7F61F40E94F60E0E94E00E60930A
:102630002F037093300380933103909332030E94F1
:10264000D10E1092320280912F0380FF03C0869535
:102650000E94F31281E08093300208950F931F933C
:10266000CF93DF9380913202882309F48DC080914B
:102670003102E0912F03E695E81BE0932C028230B3
:10268000C9F5F0E0E75AFB4FE491CE2FD0E006E821
:102690001FE080912D02882389F010922D020E9464
:1026A00011249E0120953095820F931F90932B0249
:1026B00080932A0210922F0210922E0280912A02F9
:1026C00090912B020E941D248C179D0708F45CC07A
:1026D000E0912A02F0912B02CE0FDF1FD0932B0244
:1026E000C0932A028AE292E0F801DF91CF911F9114
:1026F0000F910994863049F4F0E0EA5AFB4FE491D7
:10270000CE2FD0E00AE91FE0C4CF893051F4E6951E
:10271000F0E0ED5AFB4FE491CE2FD0E005ED10E153
:10272000B8CF8F3051F4E695F0E0E05BFB4FE491D9
:10273000CE2FD0E00EE011E1ACCF853149F4F0E0CE
:10274000E35BFB4FE491CE2FD0E00FE711E1A1CF87
:10275000C8EED3E00AEE11E1883109F49ACF833252
:1027600039F4EBE4F4E0C591D4910AEA1FE091CF8B
:10277000C4EFD1E002E212E1843209F48ACFC0ED65
:10278000D7E002EC1EE085CFDF91CF911F910F9132
:1027900008958823B9F05198599A5098589A95E01D
:1027A0009A95F1F70000509A589895E09A95F1F7AC
:1027B0000000882311F0519A599885E08A95F1F725
:1027C00000000895519A5998E8CF8BB18C7F8BB94E
:1027D0005098589A5198599A85E08A95F1F70000D7
:1027E00008958AB18C7F8AB985E08A95F1F7000057
:1027F000519A599885E08A95F1F70000509A5898B7
:1028000085E08A95F1F7000008955098589A85E080
:102810008A95F1F700005198599A85E08A95F1F769
:1028200000000895CF93DF93D82FC8E08D2F8078D4
:102830000E94C913DD0FC150C9F780E00E94C9137F
:1028400085E08A95F1F7000085E08A95F1F70000B0
:1028500080E0DF91CF9108953BB1242F2095232371
:102860003BB1432B3FB7F894680F791F8617970742
:1028700011F43FBF0895FC015191CF01E8E04BB93D
:10288000000000C057FF2BB9550F000000C000C06A
:1028900000C02BB900C0EA9591F7E8CFAF92BF9284
:1028A000CF92DF92EF92FF920F931F93CF93DF931C
:1028B0007C018B01CFB6D090BC00F8948091BC0015
:1028C0008B7F8093BC000E94E5130E94F11384E883
:1028D0000E941214000F111F000F111F5701A00EAC
:1028E000B11EE701CA15DB05A9F40E940514CFBE8D
:1028F000D092BC00579A40E8B801C701DF91CF9150
:102900001F910F91FF90EF90DF90CF90BF90AF900D
:102910000C942C1489910E941214E4CF0F931F93EE
:10292000CF93DF93C62FD42F022FFC0182818823FF
:10293000C9F0609335020E94112490933402809371
:10294000330280E28C0F883008F050C0C77081E0FD
:1029500001C0880FCA95EAF7DF91CF911F910F91BF
:102960000C94FC1810913502161335C08091330277
:10297000909134020E941D24883C910560F5C0E2CC
:10298000CD0F1D17B9F080E2810F883040F4177029
:1029900081E001C0880F1A95EAF70E940319C83038
:1029A00048F481E09D2F977001C0880F9A95EAF74F
:1029B0000E94FC18802F0E94E918C830B8F4D77024
:1029C00081E001C0880FDA95EAF7DF91CF911F917E
:1029D0000F910C94031980E28C0F883038F4C77083
:1029E00081E001C0880FCA95EAF7EFCFDF91CF9160
:1029F0001F910F9108959C01CB01203F4CE53407B6
:102A000031F190F4283DFCE53F07E9F0293D4CE524
:102A1000340769F1273D3C4579F426E241EE61EE49
:102A20000E948E1480E00895223FFCE53F07B9F034
:102A300090F0233F3C45B9F0FC0182818823D1F01E
:102A400010923502089527E245EE65EEE9CF26E2C1
:102A500041EE60EEE5CF27E245EE64EEE1CF26E2FF
:102A600041EE62EEDDCF27E245EE66EED9CF28E2F9
:102A700041E0EBCF81E008951092B9008CE08093A3
:102A8000B8000895EF92FF920F931F93CF93DF93B7
:102A9000182FEB011092BC0084EA8093BC000E94C6
:102AA00011247C018091BC0087FF27C08091B90070
:102AB000887F883029F08091B900887F8031D9F5EE
:102AC0001093BB0084E88093BC000E9411248C0109
:102AD0008091BC0087FF24C02091B900287F90E03E
:102AE00080E02831B1F081E090E0203411F490E0F2
:102AF00080E09195819591090CC0CF3FDC0791F260
:102B00000E9411248E199F098C179D0758F28EEF91
:102B10009FEFDF91CF911F910F91FF90EF9008955C
:102B2000CF3FDC07A9F20E941124801B910B8C1768
:102B30009D0770F2ECCF8FEF9FEFEBCF0F931F93BA
:102B4000CF93DF93EB018093BB0084E88093BC00BC
:102B50000E9411248C018091BC0087FF11C020913C
:102B6000B900287F81E090E0283211F490E080E005
:102B7000919581959109DF91CF911F910F910895C2
:102B8000CF3FDC0741F30E941124801B910B8C176F
:102B90009D0708F38EEF9FEFEECF0F931F93CF9318
:102BA000DF93EC0184E88093BC000E9411248C0127
:102BB0008091BC0087FF08C08091BB0090E0DF914E
:102BC000CF911F910F910895CF3FDC0789F30E94A9
:102BD0001124801B910B8C179D0750F38EEF9FEFF4
:102BE000EECF84E98093BC00089590933B028093DC
:102BF0003A020895E0913A02F0913B02309721F0B9
:102C00000190F081E02D099480E00895E0913A026E
:102C1000F0913B02309799F020912901222359F03D
:102C20002091760327FF07C0DC012C9111962C938D
:102C3000119725E02C930280F381E02D09940895EB
:102C4000E0913A02F0913B02309739F022E0DC014A
:102C50002C930480F581E02D099408952091380289
:102C6000309139022817390771F090933902809317
:102C70003802E0913A02F0913B02309721F0068051
:102C8000F781E02D099408952091360230913702A2
:102C90002817390771F09093370280933602E0913C
:102CA0003A02F0913B02309721F00084F185E02D4B
:102CB0000994089585B7806885BF85B7806885BF0A
:102CC0000895089508950C94611608950C9465165E
:102CD0000E945A160E9462160C94631681E00895B1
:102CE0000E9408240E94CF040E949D240E94F61294
:102CF0000C946616BF92CF92DF92EF92FF920F93E1
:102D00001F93CF93DF93CDB7DEB72A970FB6F89412
:102D1000DEBF0FBECDBF0E94FC040E946E1688234A
:102D200009F471C08DE3C82E82E0D82E10E000E0D7
:102D3000B02E802F0E945805E82EF601F1906F0109
:102D4000F81609F45AC08091F80281FD0E945E05D0
:102D500090E080E0FE242F2D30E0482FB901082EAE
:102D600002C0759567950A94E2F760FF41C08E83B3
:102D7000BF8281E090E06C0102C0CC0CDD1C4A9562
:102D8000E2F72E2D30E02C213D21232B09F480E0A9
:102D900088870E9411248160782F9A8789874E81C5
:102DA0005F8168858A850E945C17F801E35CFD4FAE
:102DB00080818C2580830E942B260E94FA15909199
:102DC0003C02891789F10E94FA1580933C022A96E9
:102DD0000FB6F894DEBF0FBECDBFDF91CF911F912C
:102DE0000F91FF90EF90DF90CF90BF900C94F5077C
:102DF00001968630910509F0B0CF0F5F1F4F0E305E
:102E0000110509F095CF8FEF89838A831B820E9479
:102E100011248160782F9D838C8349815A816B8135
:102E20008D810E945C17C7CF2A960FB6F894DEBF3B
:102E30000FBECDBFDF91CF911F910F91FF90EF900B
:102E4000DF90CF90BF900895CF93DF93DC018C91FA
:102E5000682F70E021E030E001C0220F8A95EAF788
:102E600011964C91119750E0EA01C55BDD4F9881B6
:102E700012968C9112978823C9F080915B02882367
:102E8000C1F086E0849FF001859FF00D1124E60FCC
:102E9000F71FEE0FFF1FE65DFE4F408151814D93FE
:102EA0005C93292B2883DF91CF910895892F82236A
:102EB000E6CF20952923F6CFCF93DF93CDB7DEB7AA
:102EC0002B970FB6F894DEBF0FBECDBF4F83588748
:102ED00069877A878B878A859B85892B21F0CA0130
:102EE00089238F3FE1F41E821D8285E0FE01379623
:102EF000DE01119601900D928A95E1F749815A8180
:102F00006B817C818D819E810E947D1E2B960FB6E8
:102F1000F894DEBF0FBECDBFDF91CF910895CE01F3
:102F200007960E942417DFCFFC01808191810E94C7
:102F3000342192959F70963041F480915B0291E02C
:102F4000892780935B0290935A020895CF93C82FEC
:102F5000882309F4E6C08238C1F40E94FA1581FD85
:102F6000E0C089E30E9462210E94D6212FEF81EE0A
:102F700094E0215080409040E1F700C0000089E3D8
:102F80000E946921CF910C94D6218338A1F40E942C
:102F9000FA1580FDC6C083E50E9462210E94D621F9
:102FA0002FEF81EE94E0215080409040E1F700C087
:102FB000000083E5E5CF8438A1F40E94FA1582FD74
:102FC000B0C087E40E9462210E94D6212FEF81EEDB
:102FD00094E0215080409040E1F700C0000087E479
:102FE000CFCF8CEF8C0F813A48F48C2F0E9426288B
:102FF000811197C08C2F0E946221C4CF80E28C0F78
:10300000883048F4C77081E001C0880FCA95EAF79C
:103010000E948A21B7CF8BE58C0F833068F481E85A
:1030200090E0C53A31F083E890E0C63A11F482E8C6
:1030300090E0CF910C942E1688E58C0F873108F024
:1030400068C082EE90E0C83A09F460C089EE90E072
:10305000C93A09F45BC08AEE90E0CA3A09F456C056
:1030600085EB90E0CB3A09F451C086EB90E0CC3A86
:1030700009F44CC083EB90E0CB3B09F447C084EBF0
:1030800090E0CC3B09F442C087EB90E0CD3AF1F1FF
:103090008CEC90E0C03BD1F18DEC90E0CE3AB1F1F8
:1030A00083E891E0CF3A91F18AE891E0C13B71F178
:1030B00082E991E0C23B51F184E991E0C33B31F1F7
:1030C00081E292E0C43B11F183E292E0C53BF1F072
:1030D00084E292E0C63BD1F085E292E0C73BB1F0DA
:1030E00086E292E0C83B91F087E292E0C93B71F042
:1030F0008FE690E0CD3B51F080E790E0CE3B31F0A1
:1031000090E080E0CA3B11F48AE292E0CF910C9407
:103110004416C03F30F08C2F0E943925CF910C947B
:103120002026CF910895882309F452C0823871F483
:103130000E94FA1581FF4CC089E30E9462210E941F
:10314000D62189E30E9469210C94D621833859F451
:103150000E94FA1580FF3CC083E50E9462210E9414
:10316000D62183E5EFCF843859F40E94FA1582FF07
:103170002FC087E40E9462210E94D62187E4E2CF1B
:103180009CEF980F913AF0F290E2980F983050F43B
:10319000877091E001C0990F8A95EAF7892F0E9404
:1031A0009021D2CF9BE5980F933020F490E080E0FF
:1031B0000C942E1698E5980F973120F490E080E05B
:1031C0000C944416803F20F00E94A1250C942026E8
:1031D0000895CF93C82F0E94A617C93349F42FEF43
:1031E00083EC99E0215080409040E1F700C000005E
:1031F0008C2FCF910C949318882321F00E948A2160
:103200000C94D6210895882321F00E9490210C94DB
:10321000D6210895BF92CF92DF92EF92FF920F9343
:103220001F93CF93DF937C01D62FC72FFC0105811D
:1032300002950F70128111110E94AA210E94802113
:10324000C82E882371F01123B1F080E28D0F8830F1
:1032500090F082E00E9421220E94802191E0C82EFD
:10326000C926DC2ED2949FE0D922ED2DF0E0E9565C
:10327000FE4C0C94F52FC12CF4CF0C2F0F70C07F97
:1032800011F00295007F1123A9F0002359F080E28C
:103290008D0F883010F0D11109C0802F0E948A2133
:1032A0000E94D6218D2F0E94A61714C0802F0E9445
:1032B0009D21F6CF8D2F0E949318002359F080E2B4
:1032C0008D0F883010F0D11130C0802F0E949021D6
:1032D0000E94D621F8E0DF1639F0DF1648F086E0CC
:1032E0008D0D8F70823020F40E94FA150E94F50730
:1032F000CC2009F418C20E947C2180FD14C2F70181
:1033000012820E9476210E94FF1FC7010E949D1B0E
:103310000E947621DF91CF911F910F91FF90EF9046
:10332000DF90CF90BF900C942020802F0E94A3218B
:10333000CFCFFC2FFF70BF2EC07FC03219F0B294E8
:1033400080EFB822DD2339F0D13019F1112359F182
:10335000002321F1A7CF112381F0011106C00E94A3
:10336000BD218B290E94FC18B5CF0130C1F70E9406
:10337000BD218B290E94C321ADCF011106C00E943F
:10338000CC218B2D0E940319A5CF013009F4A2CFC7
:10339000F6CF112329F0023008F09CCF8B2DE2CF1D
:1033A000011198CFEECF002361F38D2F0E94931867
:1033B00091CF8C2F86958695837069F0813009F0C6
:1033C00089CF8D2F9C2F9370111102C090E080E067
:1033D0000E9444167FCF8D2F9C2F9370111102C035
:1033E00090E080E00E942E1675CF112309F1D53FA1
:1033F00099F0D63FB9F0D43F49F480917003909191
:103400007103816090937103809370038D2F0E94EC
:1034100039250E9420265ECF809170039091710320
:103420008260F0CF80917003909171038460EACF45
:10343000D53F89F0D63FA9F0D43F49F4809170037D
:10344000909171038E7F90937103809370038D2F01
:103450000E94A125DECF80917003909171038D7F32
:10346000F2CF80917003909171038B7FECCF8C2F02
:10347000837009F041C011112DCF4D2F4295469513
:103480004770440F440F0D2F0F7010E030E020E024
:10349000042E04C0000F111F221F331F0A94D2F7FD
:1034A00060E070E0CB01D4FF0FC06FE070E080E01F
:1034B00090E004C0660F771F881F991F4A95D2F7C6
:1034C0006095709580959095C695C695C370602B54
:1034D000712B822B932BC23049F058F4C13019F074
:1034E0000E94B31FF7CE0E94A11FF4CE0E94C51FF9
:1034F000F1CE0E949F1FEECE8695112311F08C2FE6
:103500008170882309F4E6CE4D2F42954695477089
:10351000440F440F0D2F0F7010E030E020E0042E18
:1035200004C0000F111F221F331F0A94D2F760E05E
:1035300070E0CB01D4FF0FC06FE070E080E090E05E
:1035400004C0660F771F881F991F4A95D2F76095B0
:10355000709580959095C695C695C370602B712B1C
:10356000822B932BC23049F058F4C13019F00E94DD
:103570007620B0CE0E946420ADCE0E948820AACED4
:103580000E94D91FA7CEE0E2ED0FE53108F04CC054
:10359000F0E0E955FE4C0C94F52FDF708C2F8F7105
:1035A000112321F00E94FF1F8D2FDCCE0E942020CE
:1035B0008D2FE8CE112339F001118CCE8C2F8F7115
:1035C0000E94432087CE023008F084CEF7CF8C2FA4
:1035D0008F71112339F00E94FF1F7CCE8C2F8F71C9
:1035E0001123C9F30E94202075CE112329F08C2FBE
:1035F0008F710E94EA1F6ECE0E94E51F6BCE1123D1
:1036000049F0CF718C2F0E94FF1F63E08C2F0E9426
:103610000C2260CE81E00E942122023008F45ACEB2
:1036200082E00E94212256CE112329F001113ACEC8
:103630008C2F8F71D0CF002369F0D93309F0B5CE2C
:103640002FEF83EC99E0215080409040E1F700C0DB
:103650000000ABCE8C2F8F71C5CF4C2F4F706D2FCC
:10366000C7010E94210A0E94171F34CED23F71F178
:10367000C8F4D03F01F1D13FB9F180915A02002343
:1036800009F446C0882341F080915B0291E08927CC
:1036900080935B0210925A028D2F112389F10E94B0
:1036A000A61716C0D43FD9F078F0D53F31F71111E5
:1036B0000FC081E006C0112359F080915B0291E0B8
:1036C000892780935B0204C081E0182710935B0276
:1036D0004C2F4F706D2FC7010E94240AFBCD111192
:1036E000F7CF10925B02F4CF112339F080915A0288
:1036F000882319F310925A02EBCF0023F1F2E8CF9E
:103700000E94931886E0F70111928A95E9F7E0CFBD
:103710008823F1F21111DCCF80915B0291E08927BF
:1037200080935B02E7CFDF91CF911F910F91FF90C4
:10373000EF90DF90CF90BF9008950F931F93CF939A
:10374000DF93EC018B819C81892B29F08881998101
:1037500089238F3F29F4DF91CF911F910F91089515
:10376000CE010E9407088823B1F3688179818A819C
:103770000E943E218C010E949A200E949E1FB80147
:10378000CE01DF91CF911F910F910C940A190E94E5
:10379000AA210E94BA210E94D6210E94C2260E941C
:1037A000202690E080E00E942E1690E080E00C94AD
:1037B00044160E9470210C94C71B0E949A210C94FD
:1037C000D91BE92FE295EF70E250EE3070F4F0E093
:1037D000E454FE4C0C94F52F803F19F020F4803E09
:1037E00020F481E00895843FE1F380E00895803E75
:1037F000C0F3813FD1F7F5CF93FB882780F9089577
:103800000E9434210C94E11BCF93DF9300D000D0B1
:103810000F92CDB7DEB70F900F900F900F900F90D3
:10382000DF91CF910895CF93DF9300D000D000D0E7
:10383000CDB7DEB726960FB6F894DEBF0FBECDBF6C
:10384000DF91CF9108951F93CF93DF93C0915C02D6
:1038500016E080915D028C1304C0DF91CF911F911F
:103860000895D0E01C9FF0011D9FF00D1124E25A35
:10387000FD4F4081518162817381848195810E94D5
:10388000131C2196C770E5CF40918E0250918F0294
:1038900060919002709191028091920290919302B6
:1038A0000C94131C1F93CF93DF9380919302807F1E
:1038B000C1F4809190028823A1F080915C02C091B4
:1038C0005D0260918E0270918F0240919102509141
:1038D0009202D62FD723DA01A095B09516E0C8132F
:1038E00004C0DF91CF911F91089590E041155105DB
:1038F00011F0DF3F31F401968770F1CF2A0F3B1FA3
:1039000017C0189FF001199FF00D1124E25AFD4FC6
:1039100021812713F0CF20812613EDCF22812111A1
:10392000EACF238134812417350740F3241B350B5C
:10393000283C310500F7209193022F7020612093DD
:10394000930226E0289FF001299FF00D1124ED59E4
:10395000FD4F80818F70806180838EE892E00E94AD
:103960009D1BDF91CF911F910C94231CBF92CF928E
:10397000DF92EF92FF920F931F93CF93DF93CDB718
:10398000DEB761970FB6F894DEBF0FBECDBF8C01D6
:1039900085E0F801DE011D9601900D928A95E1F710
:1039A000D8014C9111965C9111971296EC90129758
:1039B0008091910290919202009709F47FC1209129
:1039C0008E0230918F02622F63236F3F09F476C11C
:1039D0001396CD90DC90B0909002BB2009F411C1F9
:1039E000C816D906D0F1F601E81BF90BCF01FF2468
:1039F000F394883C910508F0F12C80919302982F64
:103A0000907FFF2009F4B8C091117FC0FE2C3513C0
:103A100029C0241327C0E11025C08F7080618093D6
:103A200093020E94441C8EE892E00E949D1B8091AC
:103A30009302D80115968C938F2D61960FB6F8944A
:103A4000DEBF0FBECDBFDF91CF911F910F91FF90D1
:103A5000EF90DF90CF90BF900895809590958C0D5A
:103A60009D1DC5CFCD2829F0852F84238F3F09F0D8
:103A700041C180E0B82FB170DB2E80FF3CC0809147
:103A80005C0220915D0236E0821315C04D875E878F
:103A90008D859E850E943421292F22952F702230FA
:103AA000F0F0243018F59F70F1F0F8019581907FC7
:103AB000D1F4D12C1EC090E0389FF001399FF00D59
:103AC0001124E25AFD4F6181651306C060816413C1
:103AD00003C06281E6120FC001968770D5CF9F7038
:103AE00011F0882331F3805E883018F3C8010E94FA
:103AF0009D1BFD2CA1CFEE2009F49ECF8091930257
:103B0000816080939302F12C97CF351306C0241364
:103B100004C0D801EE2009F49AC04D875E878D85D8
:103B20009E850E94001C882319F1EE2009F18091E6
:103B30009302803270F020918E0230918F0238878C
:103B40002F831986DB86CA868C87CE0107960E9452
:103B50009D1B86E0F801AEE8B2E001900D928A95D7
:103B6000E1F70E94521C0E94441CFF24F39464CF8E
:103B7000C8010E949D1BF9CF911113C07C2DD98AD9
:103B8000C88A6E2D89890E94041C8EE892E00E94EA
:103B90009D1B86E0EEE8F2E0DF011D928A95E9F7D1
:103BA00063C0351312C0241310C0E1100EC0F80119
:103BB0008583C8010E949D1BEEE8F2E086E0DF01EC
:103BC0001D928A95E9F7FB2C37CF4D875E878D854F
:103BD0009E850E94001C882359F2EE2049F28091B4
:103BE0009302803208F4B5CF20918E0230918F027B
:103BF0003A8329831B82DD82CC828E83CE0101969B
:103C0000A6CFC816D90698F1F601E81BF90BCF012B
:103C1000F12C883C910508F049C0FE2CEE2009F4F7
:103C2000A7CF351332C0241330C08091930280FD9A
:103C300023C0982F907F01F1D80115968C9315978A
:103C4000903F39F0982F907F905F8F70892B159659
:103C50008C93C8010E949D1B86E0F801AEE8B2E09B
:103C600001900D928A95E1F70E94441CE5CE809563
:103C700090958C0D9D1DCCCF86E0F801AEE8B2E0AA
:103C800001900D928A95E1F7D7CE4D875E878D859D
:103C90009E850E94001C81115CCF809193028160FF
:103CA00080939302C8010E949D1BC6CE7C2DD98AA9
:103CB000C88A6E2D89890E94041C6BCFEE2009F4FE
:103CC00057CF4D875E878D859E850E94001CF82EFC
:103CD000882309F44DCF86E0F801AEE8B2E0019008
:103CE0000D928A95E1F78EE892E00E9494170E9467
:103CF000521CBACF81E08E25BDCE1F93CF93DF93A8
:103D0000CDB7DEB72C970FB6F894DEBF0FBECDBF90
:103D10004F83588769877A878B879C87CE01079660
:103D20000E94B61C882369F08A859B85892B39F00F
:103D30004F815885842F85238F3F09F071C016E08D
:103D40005FC086E0FE013796DE01119601900D926C
:103D50008A95E1F78A859B85892B89F388859F81E0
:103D600089238F3F61F320915D0230E0C901019604
:103D70008770992740915C024817190671F40E94D8
:103D8000DD1B10925D0210925C0286E0EEE8F2E02C
:103D9000DF011D928A95E9F7D2CF96E0929FD0017C
:103DA000939FB00D1124A25ABD4FFE013196019090
:103DB0000D929A95E1F780935D020E94231CBFCF7C
:103DC000819FC0011124825A9D4F0E94B61C8823F6
:103DD000E9F0E0915C021E9FF0011124E25AFD4FD0
:103DE0004081518162817381848195810E94131C7D
:103DF00080915C0290E001968770992780935C0225
:103E000080915C0290915D028913DACF2C960FB6F7
:103E1000F894DEBF0FBECDBFDF91CF911F91089503
:103E200069857A858B859C850E94131C88CFEF92CB
:103E3000FF920F931F93CF93DF938C01892B81F017
:103E4000F12CEE24E394E8012196F8018491843763
:103E500070F4843008F05FC08130B1F08230A1F19D
:103E6000DF91CF911F910F91FF90EF9008958537CB
:103E700009F44CC008F43DC09CE7980F903780F7D8
:103E80008F770E94931849C00E5F1F4FFE018491E7
:103E900090E2980F983060F48770FE2D01C0FF0FFC
:103EA0008A95EAF78F2F0E94AD210E94D62102C089
:103EB0000E94A6178F2D815030F2EFE9FFE0319775
:103EC000F1F700C00000F7CF0E5F1F4FFE01849195
:103ED00090E2980F983050F48770FE2D01C0FF0FCC
:103EE0008A95EAF78F2F0E94B321DFCF0E949318A3
:103EF000E1CF0E5F1F4FFE01C491C150D8F28FE990
:103F00009FE00197F1F700C00000F7CF0E5F1F4F51
:103F1000FE01F490CFCF0E94A6178E01CBCF08955B
:103F20000C948F1F0E94901F6093CF027093D00259
:103F30008093D1029093D2020C94C71B08950C94E5
:103F4000921F0F931F930091CF021091D0022091E6
:103F5000D1023091D202602B712B822B932B1F91B7
:103F60000F910C94921F0F931F930091CF02109109
:103F7000D0022091D1023091D2026023712382239A
:103F800093231F910F910C94921F0F931F930091F5
:103F9000CF021091D0022091D1023091D20260273D
:103FA0007127822793271F910F910C94921F0C94D5
:103FB00077060E94D71F6093CB027093CC02809348
:103FC000CD029093CE020C94C71B60E070E0CB0151
:103FD0000C94D91F0F931F9341E050E060E070E014
:103FE0008A019B0104C0000F111F221F331F8A95F5
:103FF000D2F7C901B8011F910F910C94D91F0F93EB
:104000001F9341E050E060E070E004C0440F551F92
:10401000661F771F8A95D2F78091CB029091CC02D0
:10402000A091CD02B091CE028A019B01082B192BE1
:104030002A2B3B2BC901B8011F910F910C94D91F5A
:104040000F931F9341E050E060E070E004C0440F24
:10405000551F661F771F8A95D2F7CB01BA0160956D
:104060007095809590950091CB021091CC02209193
:10407000CD023091CE0260237123822393231F91BE
:104080000F910C94D91F0F931F9341E050E060E013
:1040900070E004C0440F551F661F771F8A95D2F742
:1040A0008091CB029091CC02A091CD02B091CE0232
:1040B0008A019B01082719272A273B27C901B80134
:1040C0001F910F910C94D91F0F931F930091CB0256
:1040D0001091CC022091CD023091CE02602B712B39
:1040E000822B932B1F910F910C94D91F0F931F9329
:1040F0000091CB021091CC022091CD023091CE02E2
:1041000060237123822393231F910F910C94D91F55
:104110000F931F930091CB021091CC022091CD02FE
:104120003091CE0260277127822793271F910F912C
:104130000C94D91F0895E92FEE0FE90FEE0F8E0FA3
:10414000982F977041E001C0440F9A95EAF7869541
:104150008695869595E0899FF0011124EC56FD4FD8
:1041600030E020E070E05191DF011197CB01022E89
:1041700002C0969587950A94E2F78170819585270C
:10418000842385278C932F5F3F4F2530310559F7C6
:104190000895E92FEE0FE90FEE0F8E0F982F97700D
:1041A00086958695869525E0829FF0011124EC5630
:1041B000FD4F50E040E080E0219130E0092E02C048
:1041C000369527950A94E2F721703327042E01C013
:1041D000220F0A94EAF7822B4F5F5F4F453051055B
:1041E00059F70895BF92CF92DF92EF92FF920F930B
:1041F0001F93CF93DF938C01C090CB02D090CC0261
:10420000E090CD02F090CE028091CF029091D0024A
:10421000A091D102B091D202C82AD92AEA2AFB2A57
:10422000CFE1D0E0BC2ED701C6010C2E04C0B6955C
:10423000A795979587950A94D2F780FD0EC0219790
:1042400088F7B12C8B2DDF91CF911F910F91FF90AB
:10425000EF90DF90CF90BF900895B8018C2F0E940F
:10426000410A019761F3EECFCF93DF93EC010E94F7
:10427000F220BE01DF91CF910C94410A1F93CF939E
:10428000DF93EB0190915902992331F0CB01DF913B
:10429000CF911F910C943421882379F0CB010E9497
:1042A000F220182F682FCE010E949B20BE01812F83
:1042B000DF91CF911F910C94410ACB010E94C9203C
:1042C000182FF4CF682F80911801909119010C9448
:1042D0006623682F80911801909119010C94712325
:1042E00080911801909119010C947C238091D30244
:1042F00085958595859508958091D3028770089559
:104300009091D302977081E009F480E00895809144
:10431000F70208959091F702892B8093F702089590
:1043200080959091F70298239093F70208958093D7
:10433000F70208951092F70208959091F602892BE2
:104340008093F602089580959091F60298239093B9
:10435000F60208951092F60208959091F502892BC5
:104360008093F502089580959091F502982390939B
:10437000F50208951092F50208958091D4020895EF
:1043800008950C94C0219091D402981721F0809345
:10439000D4020C94C12108958091D402882329F07D
:1043A0001092D40280E00C94C1210895E09118018C
:1043B000F09119018091F7028083E0911801F0914A
:1043C000190180819091F602892B8083E091180178
:1043D000F091190180819091F502892B8083909151
:1043E000D402992381F0E0911801F09119018081A4
:1043F000892B808380911801909119010E940223DA
:1044000081110E94CC2180911801909119010C9486
:10441000061608950C94092298E0899F90011124B2
:10442000622B6093D3020E94FF1F8091D302859577
:10443000859585950C940A221092D30280E00C9405
:104440000A229091D302809589238093D302282F4A
:10445000277071F4282F082E000C330B92171306C7
:1044600039F08595859585950E9420200C941C2215
:104470000895CF92DF92EF92FF926C01EE24FF2419
:1044800020E0C114D104E104F10419F0C701B60120
:1044900020E1C72ED82EE92EFF24C114D104E10457
:1044A000F10419F0285FC701B6016B017C0154E0EB
:1044B000F694E794D794C7945A95D1F7C114D104D0
:1044C000E104F10419F02C5FC701B6016B017C0116
:1044D00042E0F694E794D794C7944A95D1F7C11473
:1044E000D104E104F10419F02E5FC701B6019695DD
:1044F000879577956795672B682B692B09F02F5F58
:10450000822FFF90EF90DF90CF90089590E080E0B1
:104510000E94413121E08D3E9E4F09F020E0822F24
:10452000089582E090E00C94333183E090E00C94A5
:10453000333184E090E00C943331682F84E090E0D4
:104540000C944731AB01BC018FE090E00C945931E1
:10455000AB01BC0183E190E00C94593160E070E064
:10456000CB010C94A82260E070E0CB010E94A22253
:104570000C94AE226DEE7EEF90E080E00E946531FB
:1045800060E082E090E00E94473160E083E090E0EC
:104590000E9447311092CF021092D0021092D102A5
:1045A0001092D20260E084E090E00E94473160E027
:1045B00085E090E00E94473160E086E090E00E9454
:1045C00047316FEF87E090E00E94473140E050E0D4
:1045D000BA0188E090E00E94593160E08DE090E0FF
:1045E0000E94473140E050E0BA0188E190E00E942B
:1045F000593160E087E190E00E9447310C94B3228A
:104600000C94BA22FC01329680912901882321F072
:10461000809176039EE187FF96E080E0915008F458
:10462000089521912223D1F38F5FF8CF9C01FC01E3
:1046300032969FEF80E04191461751F09F3F19F469
:10464000411101C0982F8F5F8630A9F79F3F09F471
:104650000895290F311D97FD3A95F9016283089558
:10466000FC01329608962191261303C0DF011197B1
:104670001C92E817F907B9F70895E62FE695E69535
:10468000E695EE3168F4E80FF92FF11D677021E02F
:1046900030E001C0220F6A95EAF78281822B828383
:1046A0000895E62FE695E695E695EE3170F4E80F6D
:1046B000F92FF11D677021E030E001C0220F6A95EB
:1046C000EAF72095828128232283089520912901E9
:1046D000222329F02091760327FD0C943D230C948E
:1046E000162320912901222329F02091760327FD0A
:1046F0000C9451230C943023FC01329680912901B3
:10470000882351F08091760387FF06C08EE1DF0198
:104710001D928A95E9F7089586E0F9CF08950C94E3
:104720008E230E948F2380917C03843049F1109264
:10473000F90288E190E020E40FB6F894A895809300
:1047400060000FBE2093600080E00E94F5070E9489
:104750008F2383B7817F846083BF83B7816083BFEA
:104760007894889583B78E7F83BF0FB6F894A89509
:1047700080916000886180936000109260000FBE9D
:1047800008950895CF930E94E9040E94FC040E94BA
:10479000C123C0E08C2F0E945805811105C0CF5F56
:1047A000CE30C1F7CF91089581E0FCCF08950C94ED
:1047B000D6230E94DD1B0E94FA150E94F5070C9477
:1047C000D7231F921FB61F9211248F939F93AF93ED
:1047D000BF938091F902811113C08091720390916F
:1047E0007303A0917403B09175034196A11DB11D8F
:1047F0008093720390937303A0937403B093750333
:10480000BF91AF919F918F911F901FBE1F901895E0
:1048100082E084BD93E095BD9AEF97BD80936E00D2
:1048200008952FB7F8948091720390917303A0912B
:104830007403B09175032FBF0895CF92DF92EF926A
:10484000FF920F931F932FB7F894409172035091EA
:10485000730360917403709175032FBF6A017B012C
:10486000EE24FF248C0130E020E0C016D106E206E1
:10487000F30650F0481B590BCA011F910F91FF908E
:10488000EF90DF90CF90089541505109F3CF789485
:104890001F921FB61F9211248F939F93AF93BF93C4
:1048A0008091720390917303A0917403B09175038A
:1048B0000196A11DB11D8093720390937303A09381
:1048C0007403B0937503BF91AF919F918F911F9027
:1048D0001FBE1F901895F89481E08093E00080E25D
:1048E0008093D800E9ECF0E010828FE19EE401971C
:1048F000F1F700C000001DBA109268001CBC10BE89
:104900001FBA10927A0010926E0010926F001092EF
:104910007100109272001082ECEBF0E0108214B87B
:1049200017B81AB81DB810BA108215B818B81BB845
:104930001EB811BA0C94003F08950E94862281117E
:1049400002C00E9400230E9491228093F8020E94DC
:10495000992290E090937703809376030E949522AA
:10496000682F70E090E080E00C949F1F8091FE0221
:1049700080FF12C060911D0185E0689FB001112485
:10498000759567957595679560387105A8F56115FA
:104990007105A1F1862F089581FF09C060911D0165
:1049A00085E0689FB001112475956795EDCF609102
:1049B0001D0182FD0AC08091FD028823D1F09091F3
:1049C0001C0160911D01891728F085E0689FB001E6
:1049D0001124DACF869FB001112485E0869F9001D3
:1049E000879F300D1124692F70E0C9010E94E12FCB
:1049F000CBCF65E070E0CECF8FE7089581E00895DA
:104A00008091FE0280FF0CC060911B0170E07595E3
:104A10006795759567956115710549F1862F08951C
:104A200081FF06C060911B0170E075956795F3CF1B
:104A300060911B0182FD0BC09091FD029923A1F0B2
:104A400060911A0180911B01961738F0682F70E071
:104A50006038710500F38FE70895899FC001112424
:104A600070E00E94E12FF4CF61E070E0D7CF81E0E9
:104A70000895803F31F40E94B6248195809302030B
:104A80000895813F19F40E94B624F8CF823F31F493
:104A90000E94B6248195809301030895833F19F401
:104AA0000E94B624F8CF893F29F40E940025809304
:104AB000030308958A3F21F40E9400258195F7CFD2
:104AC0008B3F31F40E940025819580930403089563
:104AD0008C3F19F40E940025F8CF843F31F4809177
:104AE00000038160809300030895853F21F4809145
:104AF00000038260F7CF863F21F480910003846039
:104B0000F1CF873F21F4809100038860EBCF883F8D
:104B100021F4809100038061E5CF8D3F31F48091D5
:104B2000FE0281608093FE0208958E3F21F4809101
:104B3000FE028260F7CF8F3FB9F78091FE0284605A
:104B4000F1CF90910103803F41F48091020387FDF2
:104B500010920203992371F00895813F29F4809106
:104B600002031816ACF3F6CF823F81F497FFF2CF21
:104B7000109201038091020390910303892B90917D
:104B80000403892B49F71092FD020895833F19F41D
:104B9000191674F3DFCF893F39F480910303181697
:104BA000CCF610920303D6CF8A3F29F480910303F9
:104BB00087FFD0CFF6CF8B3F39F48091040387FF76
:104BC000C9CF10920403C6CF8C3F29F4809104030F
:104BD0001816BCF3BFCF843F31F4809100038E7F61
:104BE00080930003B7CF853F21F4809100038D7F30
:104BF000F7CF863F21F4809100038B7FF1CF873F71
:104C000021F480910003877FEBCF883F21F48091CE
:104C100000038F7EE5CF8D3F31F48091FE028E7FC1
:104C20008093FE0297CF8E3F21F48091FE028D7F0C
:104C3000F7CF8F3F09F08ECF8091FE028B7FF0CFB0
:104C40008FEF92E00E9420160E9411249093FC02A4
:104C50008093FB0208951F93CF93DF938091FB0213
:104C60009091FC020E941D24AC019091FD022091C4
:104C70001E0130E0911106C02091FA028AE0289FBF
:104C8000900111244217530778F020910103C0913D
:104C90000203D091030310910403211109C08C2F4A
:104CA0008D2B812B09F06AC0DF91CF911F91089560
:104CB0009F3F19F09F5F9093FD02121624F40E940B
:104CC000B624809301038091010387FF05C00E94F1
:104CD000B6248195809301031C1624F40E94B62407
:104CE000809302038091020387FF05C00E94B624CF
:104CF000819580930203309101033323A1F0209129
:104D00000203222381F045EB3403C00111249923CF
:104D100069F19093010345EB24039001112433239F
:104D200049F1309302031D1624F40E94002580935C
:104D300003038091030387FF05C00E94002581952E
:104D400080930303111624F40E940025809304032A
:104D50008091040387FF05C00E9400258195809300
:104D60000403DF91CF911F910C94202681E0809362
:104D70000103D1CF81E080930203D5CF9F3F09F09B
:104D800099CFAACF86E0EFEFF2E0DF011D928A957E
:104D9000E9F71092FD021092FE020895833081F12E
:104DA00028F4813059F08230D1F00895853009F42B
:104DB00049C0B8F1863009F456C008958091FA02CE
:104DC000482F460F5527551F4F3F510524F4680FB4
:104DD0006093FA0208958FEF8093FA02089580910C
:104DE0001E01482F460F5527551F4F3F510524F4EC
:104DF000680F60931E0108958FEF80931E01089540
:104E000080911D01482F460F5527551F4F3F5105D3
:104E100024F4680F60931D0108958FEF80931D01A6
:104E2000089580911C01482F460F5527551F4F3F6D
:104E3000510524F4680F60931C0108958FEF80934F
:104E40001C01089580911B01482F460F5527551FBF
:104E50004F3F510524F4680F60931B0108958FEFB5
:104E600080931B01089580911A01482F460F552702
:104E7000551F4F3F510524F4680F60931A010895A0
:104E80008FEF80931A010895833011F128F4813057
:104E900049F0823091F00895853081F120F186301B
:104EA000C1F108958091FA02681720F4861B80935F
:104EB000FA0208951092FA02089580911E0168176F
:104EC00020F4861B80931E01089510921E01089500
:104ED00080911D01681720F4861B80931D010895A1
:104EE00010921D01089580911C01681720F4861B03
:104EF00080931C01089510921C01089580911B015C
:104F0000681720F4861B80931B01089510921B01E3
:104F1000089580911A01681720F4861B80931A0166
:104F2000089510921A0108950F931F9341E050E0E5
:104F300060E070E08A019B0104C0000F111F221F76
:104F4000331F8A95D2F7C901B8010E949F1F1F9194
:104F50000F910C94DD1BEBEFE80FEF3308F065C009
:104F6000F0E0E653FE4C0C94F52F0E94002381E004
:104F700008958091F802807F8093F80281E0809309
:104F8000060308950E94DD1B2FEF83ED90E321506F
:104F900080409040E1F700C000000E946B24E7CF02
:104FA0009091F802892F8E7F90FF81608093F802A4
:104FB00080FDDDCF817F8093F802D9CF9091F802F8
:104FC000892F8D7F91FF82608093F80281FFCFCF80
:104FD0008091F8028160EFCF9091F802892F8B7F4A
:104FE00092FF84608093F80282FDF2CFC0CF90914F
:104FF000F802892F877F93FF88608093F80283FDF2
:10500000E7CFB5CF0E94DD1B90917603892F97FBE8
:1050100087F9805880937603AACF80E00E94942776
:10502000A6CF8953FBCF8D51F9CF80E0089580E062
:1050300008950C9417288E518A3030F4E82FF0E050
:10504000E950FE4F8081089580E00895CF93C82FE6
:10505000809106038130E1F0882329F08230E9F164
:105060001092060313C00E948721813159F48C2FBE
:105070000E941728811125C08C2F0E94AB278170B8
:10508000CF9108950E948721823289F380E0F8CF82
:105090000E948721813159F30E948721823239F39E
:1050A0008C2F0E94192881110AC0C43199F060F434
:1050B000CB3029F0C03119F782E08093060381E0FC
:1050C000DECF81E090E0DBCFC93221F0C833B9F305
:1050D00080E0D5CF10920603FBCFC93219F188F4D6
:1050E000C43101F120F4C73081F181E0C9CF82EEF3
:1050F0008C0F8630D0F78C2F0E941B2880930503DD
:10510000F4CFCE3401F140F46AE0CB3471F78091F2
:1051100005030E94CE26E9CFC13579F061E0C235A2
:10512000B1F3E3CF80910503882319F010920503B2
:10513000DCCF81E080930603A3CF61E0809105037B
:105140000E944427D2CF6AE0F9CF1092FA0284E19C
:1051500080931E01C0931D018CE380931C0188E0A5
:1051600080931B0188E280931A01BFCF80912703AF
:1051700008950F931F93CF93DF9300D00F92CDB775
:10518000DEB78C010E941F2B823011F0843021F594
:1051900084E089831B830A8382E08093E9008FEF98
:1051A0009091E800815095FD06C095ED9A95F1F734
:1051B00000008111F5CF8091E80085FF0DC050E01F
:1051C00040E063E070E0CE0101960E943C2B8091AC
:1051D000E8008E778093E8000F900F900F90DF919A
:1051E000CF911F910F910895CF93DF9300D00F922D
:1051F000CDB7DEB720917C03243031F523E029833D
:10520000805891099B838A8382E08093E9008FEF25
:105210009091E800815095FD06C095ED9A95F1F7C3
:1052200000008111F5CF8091E80085FF0DC050E0AE
:1052300040E063E070E0CE0101960E943C2B80913B
:10524000E8008E778093E8000F900F900F90DF9129
:10525000CF910895CF93DF93EC010E941F2B8230F2
:1052600011F08430F9F482E08093E9008FEF90919F
:10527000E800815095FD06C095ED9A95F1F7000084
:105280008111F5CF8091E80085FF0CC050E040E02F
:1052900066E070E0CE010E943C2B8091E8008E77A2
:1052A0008093E800DF91CF910895CF93DF93EC01D5
:1052B0000E941F2B823011F08430B9F580912901B2
:1052C0008823B1F18091760387FF32C060E282E0EB
:1052D0008093E9008FEF9091E800815095FD06C022
:1052E00095ED9A95F1F700008111F5CF8091E800D6
:1052F00085FF1BC08091290170E050E040E08111E2
:1053000004C050E040E068E070E0CE010E943C2B19
:105310008091E8008E778093E80080E2FE01A7E0AC
:10532000B3E001900D928A95E1F7DF91CF91089556
:1053300068E081E0CDCF80917B03811109C00E949C
:10534000CC2C0E94292D8091E20084608093E200A1
:10535000089510927B030895089508950C94D9231D
:1053600042E061EC81E00E94482C42E261EC82E084
:105370000C94482C80917E03833009F45FC030F494
:105380008130C1F1823009F49BC008958A3009F45C
:1053900087C08B3009F46DC0893009F04EC0809110
:1053A0007D03813209F049C080918103909182038D
:1053B000029708F042C08091E800877F8093E80060
:1053C0008091E80082FF35C09091F3008091F20057
:1053D000029729F48091F1008B7F813021F4809134
:1053E000F100809327038091E8008B778093E80099
:1053F0000C947C2C80917D03813AF9F48091E80033
:10540000877F8093E8008091810390918203892BAC
:1054100061F460E287E093E070E00E948B2B809162
:10542000E8008B778093E800089560E090E080E0EA
:10543000F3CF80917C038111C3CF089580917D03C8
:10544000813AD9F78091810390918203892BA9F742
:105450008091E800877F8093E8008091E80080FFDA
:10546000FCCF809129018093F1008091E8008E7734
:10547000BDCF80917D03813201F7809181039091AE
:105480008203892BD1F68091E800877F8093E80022
:105490000E947C2C80917F03809329010C94DD1B5A
:1054A00080917D03813249F68091E800877F809367
:1054B000E8000E947C2C809180038093280308954B
:1054C00080917D03813A09F0B8CF8091E800877F11
:1054D0008093E8008091E80080FFFCCF8091280352
:1054E000C2CF84B7877F84BF0FB6F894A895809108
:1054F0006000886180936000109260000FBE80E8B9
:1055000080936100109261000E9468160E94CC2C6A
:105510000E94292D8091E20084608093E2007894BB
:105520000E94B22F0E9470168FE191E00E94F51543
:1055300080917C03853029F00E947A160E942E13F8
:10554000F7CF0E94912380917A03882389F30E94E8
:10555000C223882369F30E94262BEACF0C94B02A39
:10556000292F33272330310519F168F42130310513
:1055700009F44AC02230310509F44BC090E080E0C4
:1055800030E020E028C02132310579F122323105A6
:10559000A9F780E490E029EA37E061157105D9F0B8
:1055A00080EC90E029EE36E061307105A1F0E6CFA5
:1055B00099278130910599F0009741F0823091054B
:1055C00089F00397D9F6E2E6F6E002C0E8E9F6E0F2
:1055D000849190E09F01FA01318320830895E0E8EF
:1055E000F6E0F6CFE8E6F6E0F3CF89E090E02EEAC9
:1055F00036E06115710579F389E090E027EC36E03B
:105600006130710541F3BACF82E190E027ED36E0D9
:10561000E2CF8BE390E02CE936E0DDCF0895CF9325
:10562000C82F0E940E2BC0932903CF91089580911B
:105630007C03843011F482E0089581E00895809124
:105640002903811102C00C94172B089580E189BDB4
:1056500082E189BD09B400FEFDCF8091D8008F7D25
:105660008093D8008091E00082608093E000809178
:10567000E00081FDFCCF0895AF92BF92CF92DF9200
:10568000FF920F931F93CF93DF936C01EB018A017D
:105690000E949B2CF82E811123C00115110539F0B1
:1056A000F80180819181C81BD90BC80ED91EB12C7D
:1056B000A12C2097A9F08091E80085FD22C080915F
:1056C000E8008E778093E80001151105A1F0F8013C
:1056D00080819181A80EB91EB182A08285E0F82E4A
:1056E0008F2DDF91CF911F910F91FF90DF90CF9081
:1056F000BF90AF9008950E949B2C8823D1F2F82E82
:10570000EFCFF60181916F018093F1002197FFEFB8
:10571000AF1ABF0ACECFFC0180918303909184031E
:1057200086179707A0F06115710529F49091E8009C
:105730009E779093E80090E06115710551F4911106
:1057400008C08091E80082FF34C080E00895BC0169
:10575000F2CF80917C038823C1F18530C1F1809123
:10576000E80083FD30C08091E80082FDEACF80919F
:10577000E80080FFE1CF8091F3002091F200382F04
:105780006115710519F02830310558F091E0283085
:10579000310509F090E02091E8002E772093E80091
:1057A000CBCF81918093F100615071092F5F3F4F02
:1057B000E7CF80917C03882341F0853041F08091D0
:1057C000E80083FFBECF81E0089582E0089583E082
:1057D0000895FC01809183039091840386179707B5
:1057E000A0F06115710529F48091E8008E7780930F
:1057F000E80090E06115710551F4911108C08091A5
:10580000E80082FF35C080E00895BC01F2CF8091AE
:105810007C038823C9F18530C9F18091E80083FDBC
:1058200031C08091E80082FDEACF8091E80080FFDE
:10583000E1CF8091F3002091F200382F61157105BE
:1058400019F02830310558F091E02830310509F081
:1058500090E08091E8008E778093E800CBCF849130
:105860008093F1003196615071092F5F3F4FE6CF71
:1058700080917C03882341F0853041F08091E800DD
:1058800083FFBDCF81E0089582E0089583E008950D
:10589000982F973028F08F708093E90081E0089569
:1058A0009093E900242F762F50E0981731F07091F3
:1058B000EC002091ED005091F00021FD02C09F5FAF
:1058C000E8CF3091EB003E7F3093EB003091ED005C
:1058D0003D7F3093ED003091EB0031603093EB0071
:1058E0007093EC002093ED005093F0002091EE00B7
:1058F00027FDE5CF80E0089580917D0387FF13C0E9
:105900008091E80082FF06C08091E8008B77809349
:10591000E80004C080917C038111F2CF089580914A
:105920007C038823D9F38091E80080FFF8CF809131
:10593000E8008E77ECCF2091E4003091E50095E609
:10594000A9012091EC00822F817020FF06C0809178
:10595000E80080FF06C080E008952091E80022FD65
:105960001AC080917C03882389F0853089F080916A
:10597000EB0085FD0FC02091E4003091E500421757
:105980005307F9F29150E1F684E0089582E008951A
:1059900083E0089581E008950E943A2D0E94422DEF
:1059A000E0EEF0E0808181608083E8EDF0E08081CE
:1059B0008F77808319BCA7EDB0E08C918E7F8C939C
:1059C00080818F7E808310927B0308950F931F93B5
:1059D000CF93DF930E943A2D0E94422DC8EDD0E074
:1059E00088818F77888388818068888388818F7D8C
:1059F000888319BC10927C031092780310927A036A
:105A00001092790300EE10E0F80180818B7F808393
:105A100088818160888342E060E080E00E94482CB9
:105A2000E1EEF0E080818E7F8083E2EEF0E0808125
:105A300081608083808188608083F80180818E7F8F
:105A40008083888180618883DF91CF911F910F913E
:105A50000895E8EDF0E080818F7E8083E7EDF0E04F
:105A600080818160808384E082BF81E080937B03BA
:105A70000C94E62CE8EDF0E080818E7F808310921C
:105A8000E20008951092DA001092E10008951F924A
:105A90000F920FB60F9211242F933F934F935F9362
:105AA0006F937F938F939F93AF93BF93EF93FF93E6
:105AB0008091E10082FF0BC08091E20082FF07C06D
:105AC0008091E1008B7F8093E1000E94B12F809153
:105AD000DA0080FF19C08091D80080FF15C0809146
