:100000000C947A030C9497030C9497030C94970325
:100010000C9497030C9497030C9497030C949703F8
:100020000C9497030C9497030C94CC1A0C94081A14
:100030000C94311E0C9497030C9497030C94970323
:100040000C9497030C9497030C9497030C949703C8
:100050000C9497030C94BF1D0C9497030C94970376
:100060000C9497030C9497030C9497030C949703A8
:100070000C9497030C9497030C9497030C94970398
:100080000C9497030C9497030C9497030C94970388
:100090000C9497030C9497030C9497030C94970378
:1000A0000C9497030C9497030C94970370057305B5
:1000B000760579057C057F0582059F12A112AC1299
:1000C000A312A512A712A912AB12AE12B012B2124D
:1000D000BD12B412B612B812BA12BC12BF1261131A
:1000E00061139F139F13DB13FB13DD1536163D14AD
:1000F00036163A153A15471547154715471547154A
:10010000471547154715471547154715471547150F
:100110004715471547155815801585158C15A415D5
:1001200019184018E0194018E0198818AB18E019A0
:10013000A919BC1969206E2078206C2071207620C6
:100140007420402540255325532549255325532503
:100150005325402540254E25532553254E25000087
:100160000000000000000000010101010101010187
:100170000102020202020202020303030303030359
:10018000040404040405050505050606060606071D
:10019000070707080808080909090A0A0A0B0B0BD0
:1001A0000C0C0C0D0D0D0E0E0E0F0F10101011116A
:1001B00012121313141415151616171718181919E7
:1001C0001A1A1B1C1C1D1D1E1F1F20212122232348
:1001D00024252526272828292A2B2C2C2D2E2F3084
:1001E000313132333435363738393A3B3C3D3E3F96
:1001F000404142434445464748494B4C4D4E4F5081
:10020000525354555758595A5C5D5E60616364653A
:1002100067686A6B6C6E6F7172747677797A7C7DC1
:100220007F8182848687898B8D8E90929495979911
:100230009B9D9FA1A2A4A6A8AAACAEB0B2B4B6B929
:10024000BBBDBFC1C3C5C8CACCCED0D3D5D7DADCFD
:10025000DEE1E3E6E8EAEDEFF2F4F7F9FCFFFFAAEE
:100260007F55402223252628292A2C2D2F30323352
:100270003536383A3B3D3E4042434547494A4C4E6D
:100280005051535557595A5C5E6062646668696B99
:100290006D6F71737577797B7D7F81838587898A9F
:1002A0008C8E90929496989A9C9E9FA1A3A5A7A8A5
:1002B000AAACAEAFB1B3B4B6B8B9BBBCBEBFC1C2D5
:1002C000C3C5C6C7C9CACBCCCDCED0D1D2D2D3D468
:1002D000D5D6D7D7D8D9D9DADADBDBDBDCDCDCDC86
:1002E000DCDDDDDDDDDCDCDCDCDCDBDBDBDADAD954
:1002F000D9D8D7D7D6D5D4D3D2D2D1D0CECDCCCBD6
:10030000CAC9C7C6C5C3C2C1BFBEBCBBB9B8B6B4F3
:10031000B3B1AFAEACAAA8A7A5A3A19F9E9C9A9883
:10032000969492908E8C8A89878583817F7D7B7954
:10033000777573716F6D6B6968666462605E5C5A35
:100340005957555351504E4C4A4947454342403EF8
:100350003D3B3A3836353332302F2D2C2A2928268A
:100360002523222E004C002A00E100354100001E0A
:1003700000140004001D6134004D001F001A001617
:10038000001B00E1042A00200008000700060050BE
:10039000002C0021001500090019004F004A00221E
:1003A0000017000A000500000065645000015300BA
:1003B00000000F0000E3004F0001530000000700A1
:1003C00000E20023001C000B001100000029612442
:1003D0000018000D00100052004B0025000C000E0C
:1003E00000360051002800260012000F0037002FB1
:1003F000002B00270013003342387130004E002DCF
:100400000031003468E500015100002900010001BD
:10041000000100010000003A001E02200222020139
:1004200000F85C3B001F02210223020100C95C3C72
:10043000002F0226022F000100CA5C3D0030022777
:100440000230000100F75C3E003102350035020049
:1004500000C35C01000100000001000000F65C0127
:10046000000100000001000000C25C3F005200518A
:100470000024020000F45C4000240021001E000162
:100480000001004100250022001F003700C55C422A
:10049000002600230020002700C65C430025022E12
:1004A0000231002E0001004400450001000100015E
:1004B0000000000100010001000100010000000136
:1004C000000100010001000100010001000100F233
:1004D000000100010001000100F000F1000100F442
:1004E00000010001000100F3000100F5000100011E
:1004F00000010001000100000001000100010000F6
:1005000000010000000100010001000000010000E6
:1005100000010001000100010001000000010001D4
:1005200000010001000100A900010001000100011B
:1005300000AC00AA00B600010001000100AB00A859
:1005400000010001000100010001000100010001A3
:10055000000100AE0001000100000005010902A138
:100560000185020901A100050919012905150025C8
:100570000195057501810295017503810105010948
:100580003009311581257F950275088106093815D6
:1005900081257F950175088106050C0A38021581B1
:1005A000257F950175088106C0C005010980A1015C
:1005B00085031601002603001A81002A83007510A6
:1005C00095018100C0050C0901A1018504160100F7
:1005D000269C021A01002A9C02751095018100C018
:1005E00005010906A1018505050719E029E71500A0
:1005F0002501950875018102050819012905950550
:10060000750191029501750391010507190029EF04
:100610001500250195F075018102C005010906A1AB
:1006200001050719E029E7150025019508750181E5
:1006300002950175088101050819012905950575BF
:100640000191029501750391010507190029FF1514
:100650000026FF00950675088100C009023B0002D4
:100660000100A0FA090400000103010100092111A1
:100670000100012240000705810308000A09040166
:1006800000010300000009211101000122C0000740
:1006900005820320000A1201100100000008EDFE8F
:1006A00007130100010203010403300000001603D8
:1006B0004500720067006F0044006F007800200062
:1006C00045005A00000016034500720067006F00E5
:1006D00044006F007800200045005A000000040329
:1006E000090400047F3F1F643214643214783C1EF6
:1006F0001E140A0511241FBECFEFDAE0DEBFCDBF06
:1007000011E0A0E0B1E0EEE3F5E502C005900D9246
:10071000AE3EB107D9F723E0AEEEB1E001C01D92C5
:10072000AE36B207E1F70E94EE210C949D2A0C949C
:1007300000000895AF92BF92CF92DF92EF92FF92A6
:100740000F931F93CF93DF93C82ED62EE901662314
:1007500009F47FC0E62EF12C042F10E026E0829FE2
:10076000C0011124EFEFF0E0BF010E9435295BEAE0
:1007700056039001579F300D11242C0D311D2C0D67
:10078000311D822F880F280FCF018E199F09809F5E
:10079000D001819FB00D909FB00D11248B2F2D9D06
:1007A00060011124CD2CDD245F01AC18BD08A09E92
:1007B0006001A19ED00CB09ED00C11245F01A21A42
:1007C000B108AE9C9001AF9C300DBE9C300D112441
:1007D000232F3327E21BF30BE09F9001E19F300DA5
:1007E000F09F300D1124932F6230710591F04CF47D
:1007F00061157105E9F061307105C1F4942F4D2D3B
:1008000017C06430710569F044F06630710581F0FD
:100810000DC0942F4B2F832F0BC09D2DE42F4B2FFA
:1008200003C0E42F432F9B2F8E2F02C09B2F8D2DB3
:10083000E42FF0E0E25AFE4F2491492F50E0FA01F4
:10084000E25AFE4F4491E82FF0E0E25AFE4F8491C5
:1008500002C0842F242F298348838A83DF91CF917C
:100860001F910F91FF90EF90DF90CF90BF90AF90CE
:10087000089590912D0392FF0DC0282F28712830E4
:1008800019F4877F846006C0282F2471243011F466
:100890008B7F886093FF0DC0282F2871283119F4B1
:1008A000877E846106C0282F2471243111F48B7E49
:1008B000886194FD877E0895882319F05198599A8C
:1008C00002C0519A59985098589A95E09A95F1F724
:1008D0000000509A589895E09A95F1F70000882307
:1008E00011F0519A599885E08A95F1F70000089522
:1008F000CF93DF93D82FC8E08D2F80780E945C04BF
:10090000DD0FC150C9F780E00E945C0485E08A9544
:10091000F1F7000085E08A95F1F7000080E0DF91B3
:10092000CF910895AF92BF92CF92DF92EF92FF9254
:100930000F931F93CF93DF931F92CDB7DEB7F82E9F
:100940008B01CFB6D090BC00F8942091BC002B7FD7
:100950002093BC002BB12C7F2BB95098589A5198FA
:10096000599A85E08A95F1F700002AB12C7F2AB9BF
:10097000E5E0EA95F1F70000519A5998F5E0FA950B
:10098000F1F70000509A589885E08A95F1F7000039
:1009900084E899830E947804AF2C9981B92E000FC6
:1009A000111F000F111F0A0D1B1D7501E016F10626
:1009B00031F0F70181917F010E947804F7CF5098C0
:1009C000589AF5E0FA95F1F700005198599A85E0A8
:1009D0008A95F1F70000CFBED092BC00579A8BB138
:1009E0008F779BB190682FB7F894A016B10699F055
:1009F000F50131915F0148E09BB9000000C037FF6D
:100A00008BB9330F000000C000C000C08BB900C01C
:100A10004A9591F7EACF2FBF0F90DF91CF911F91A9
:100A20000F91FF90EF90DF90CF90BF90AF9008951F
:100A3000282F277081E090E001C0880F2A95EAF7FF
:100A4000809590910E03892380930E030C94201FB0
:100A5000282F277081E090E001C0880F2A95EAF7DF
:100A600090910E03892B80930E030C94201FCF933B
:100A7000E82F873058F58091140190911501892B4A
:100A800009F042C0CE2F80E40E94A7169093150172
:100A900080931401892BB1F482E10E948016909317
:100AA000150180931401892B69F481E090E001C065
:100AB000880FCA95EAF780950E94801690931501D9
:100AC0008093140184E98093BC001EC090E0FC0177
:100AD0003797E730F105C0F4EA5AFF4F0C945D29CF
:100AE000209A289811C0219A29980EC0229A2A98F3
:100AF0000BC0239A2B9808C0529A5A9805C0539A53
:100B00005B9802C03E9A4698CF910895CF93DF93A9
:100B1000873008F047C08091140190911501892B0E
:100B200009F049C080E40E94A716909315018093B4
:100B30001401892B11F080E031C083E10E948016FE
:100B40009093150180931401892BA9F781E40E94E9
:100B5000A7169093150180931401892B61F784E8FF
:100B60008093BC000E940F1EEC019091BC0097FD89
:100B70000EC00E940F1E8C1B9D0B84369105A8F39E
:100B80008EEF9FEF9093150180931401D4CF809145
:100B9000BB008095109215011092140194E9909376
:100BA000BC000AC09FB18FB1807F869586959370F7
:100BB000892B809501C080E0DF91CF910895EF925D
:100BC000FF920F931F93CF93DF93CDB7DEB7679755
:100BD0000FB6F894DEBF0FBECDBF4B8B5C8B6D8B19
:100BE0007E8B8F8B0E891F8901151105C1F15F3F27
:100BF00011F44F3FA1F1E42EF12CA1E0B0E0042E5E
:100C000001C0AA0F0A94EAF7852F90E0662319F035
:100C10002091690306C09C012A5C3D4FF9012081A7
:100C20002A232223A9F046E0489F9001499F300DD6
:100C30001124F701E20FF31FEE0FFF1FEB5BFE4FD6
:100C400040815181FC01EA5CFD4F9081A92B06C0D7
:100C5000FC01EA5CFD4FA0958081A823A08386E07B
:100C6000FE013D96DF01982F1D929A95E9F74D8779
:100C70005E876F87198B088BDE01179601900D92A6
:100C80008A95E1F7CE0107960E945725811137C05A
:100C900086E0FE013796DE01119601900D928A954D
:100CA000E1F7FF81E8856A857B856115710539F17A
:100CB000EF3F11F4FF3F19F120919F0230E0C9018D
:100CC0000196877099274091D00250E084179507CC
:100CD00079F1F983EA837D836C8396E0929FD0015A
:100CE000939FB00D1124A056BD4FFE013196019087
:100CF0000D929A95E1F780939F020E94EF2016E0F3
:100D00008091D00290919F02891711F1189FC00124
:100D1000112480569D4F0E9457258823C9F0809149
:100D2000D00290E00196877099278093D002E8CF97
:100D300010924A020E943C2710929F021092D00209
:100D4000E9E9F2E086E0DF011D928A95E9F7D7CF65
:100D500067960FB6F894DEBF0FBECDBFDF91CF917F
:100D60001F910F91FF90EF900895209134023091E0
:100D700035028217930771F0909335028093340205
:100D8000E0913003F0913103309721F00084F18538
:100D9000E02D099408952091320230913302821798
:100DA000930771F09093330280933202E091300305
:100DB000F0913103309721F00680F781E02D0994FE
:100DC0000895E0913003F0913103309721F00190C4
:100DD000F081E02D099480E008950F931F93CF9345
:100DE000DF93C62FD42F022FFC0182818823C9F004
:100DF000609345020E940F1E90933102809330024F
:100E000080E28C0F883008F050C0C77081E001C0CC
:100E1000880FCA95EAF7DF91CF911F910F910C943B
:100E20005A2710914502161330C0809130029091DC
:100E300031020E94E51D883C910538F5C0E2CD0FD6
:100E40001D17B9F080E2810F883040F4177081E0FF
:100E500001C0880F1A95EAF70E944F27C83048F45E
:100E600081E09D2F977001C0880F9A95EAF70E9444
:100E70005A27802F0E94CB27C830B8F4D77081E062
:100E800001C0880FDA95EAF70AC080E28C0F88303B
:100E900060F4C77081E001C0880FCA95EAF7DF915E
:100EA000CF911F910F910C944F27DF91CF911F91FC
:100EB0000F9108958091600380FF06C06FE070E09D
:100EC00084EF91E00C94920480E090E0FC01EC50FF
:100ED000FE4F11821082128204968C339105B1F775
:100EE000EDCFEF92FF920F931F93CF93DF937C018F
:100EF000C4EFD1E000E010E0F70184810730110574
:100F00001CF4882339F002C0811104C09E01409175
:100F1000630302C09E0140E060916203809161031F
:100F20000E949A030F5F1F4F24960F30110521F77F
:100F30000E945A07F701248130E02F5F3F4F217054
:100F400033272483DF91CF911F910F91FF90EF9072
:100F50000895EF92FF920F931F93CF93DF93EC01CD
:100F60002C813D812F5F3F4F217033273D832C83A0
:100F700084EFE82E81E0F82E10E005E5812F8695BC
:100F80004C815D81480F511D842F817097014091E4
:100F9000630360916203809F802D11240E949A0355
:100FA0001F5F84E0E80EF11C1F3041F7DF91CF9105
:100FB0001F910F91FF90EF900C945A070F931F937E
:100FC000CF93DF9380E090E0FC01EC50FE4F118264
:100FD0001082128204968C339105B1F7C0E0D0E004
:100FE0000FE010E0CE01B8010E944929FC01809178
:100FF000F201082E000C990BEE0FFF1FEE0FFF1FE2
:10100000C817D907A4F080911201082E000C990B83
:101010008C179D0764F09F012C503E4F4091630355
:1010200060916203809161030E949A0305C0EC50B5
:10103000FE4F1182108212822196CF30D10591F697
:101040000E945A07809111019091F201980F90939C
:10105000F20120911201280F20931201121614F4AC
:101060009E301CF0819580931101DF91CF911F91EB
:101070000F910895AF92BF92CF92DF92EF92FF92BD
:101080000F931F93CF93DF93FC01828180FF03C0F6
:10109000BB24BA9402C0BB24B39424EFE22E21E017
:1010A000F22E06EF11E0C0E0D0E0F8013197108297
:1010B000F7011082F801108294E0C92ED12CA12CE6
:1010C0008091F1018A0D87FD815F082E000C990B3C
:1010D000C817D90791F4809163038C9DA0018D9D61
:1010E000500D112455954795559547959701609159
:1010F0006203809161030E949A03AB0CF1E0CF1A66
:10110000D108F1F6219684E0E80EF11C0C5F1F4F28
:10111000CF30D10551F60E945A078091F10191E03C
:10112000B91206C0811102C08EE007C0815005C00F
:1011300090E00196BE010E9449298093F101DF9160
:10114000CF911F910F91FF90EF90DF90CF90BF90C4
:10115000AF900895EF92FF921F93CF93DF93EC012E
:1011600084EFE82E81E0F82E10E08C819701409109
:10117000630360916203810F0E949A031F5E84E003
:10118000E80EF11C1F3F89F70E945A078A819C8153
:1011900080FF02C09F5F01C091509C83DF91CF917F
:1011A0001F91FF90EF9008959091600390FF0FC002
:1011B00020E030E0F901EC50FE4F818360834283F0
:1011C0002C5F3F4F2C333105A9F70C945A07089533
:1011D0000F931F93CF93DF9300D000D0CDB7DEB72E
:1011E0008C018091F30181110AC09E012F5F3F4F56
:1011F0004FEF6FEF0E949A038A818093F301F80109
:101200008481813051F028F0823061F44091F30103
:101210000AC08091F30140E007C06091F30140E013
:1012200080E003C040E080E060E00E94D408F80164
:10123000248130E0C901019663E070E00E944929F1
:1012400084830F900F900F900F90DF91CF911F919B
:101250000F910895CF93DF9300D000D0CDB7DEB7C4
:101260009091600390FF0AC09E012F5F3F4F0E9444
:101270009A034B8169818A810E94D4080F900F9054
:101280000F900F90DF91CF910895CF93DF93EC01F2
:10129000E0E6F3E0438162818C810E942A098C811F
:1012A0008F5F8C83DF91CF910895CF93DF93EC0113
:1012B000EC81F0E0ED59FD4F4491E0E6F3E062810E
:1012C00081810E942A098C818F5F8C83DF91CF916D
:1012D00008958091600380FF02C08695089580E0A4
:1012E000089580916003282F269530E0211531055F
:1012F00019F48170826005C02532310524F08170B7
:101300008864809360030895CF93DF9300D000D06A
:10131000CDB7DEB7AB01BC0149835A836B837C83B5
:101320000E94710949815A816B817C8188E090E03B
:101330000F900F900F900F90DF91CF910C94132985
:101340005F926F927F928F929F92AF92BF92CF9255
:10135000DF92EF92FF920F931F93CF93DF9300D012
:1013600000D0CDB7DEB7182F762E042F622E9091C5
:10137000600390FF6DC0E92FE695AE2FB0E0A05E50
:10138000BE4F8C91809365039E7F923061F49E01E5
:101390002F5F3F4F812F0E949A034B8169818A8181
:1013A0000E94D40843C0823019F4009163033EC008
:1013B000863019F41091610339C08930D9F389312D
:1013C000A9F5E9518E2F8170582EE695F0E0E25A8A
:1013D000FD4FA590B49084EFC82E81E0D82EE12C6B
:1013E000F12CBB249FE0892E912CEA9CC001EB9C40
:1013F000900DFA9C900D1124B4010E943529812F83
:10140000511002C0860F01C0861B9601402F672D28
:101410000E949A038FEFE81AF80A84E0C80ED11CE4
:101420008FE0E816F10409F70E945A071093610350
:101430007092620300936303662051F06091600331
:101440007091610380916203909163030E9484090B
:101450000F900F900F900F90DF91CF911F910F91F0
:10146000FF90EF90DF90CF90BF90AF909F908F90C4
:101470007F906F905F9008959091600390FF3DC0C2
:101480009170811102C0926006C0853210F098649C
:1014900002C0880F982B90936003662351F06091EF
:1014A00060037091610380916203909163030E94D5
:1014B000840960916003669570E04BE050E086E03F
:1014C00091E00E94902A892B19F01092660309C0BE
:1014D00081E0809366030E940F1E90935B038093CC
:1014E0005A0381E080935D0320E0409163036091A3
:1014F0006203809161030C94A009089561E00C944B
:101500003C0AE0E6F3E080818160808386950C945C
:101510007E0A809160038695815009F484E261E03F
:101520000C943C0A8091600386958F5F853208F0A9
:1015300081E061E00C943C0AE0E6F3E083E0808324
:1015400011828FEF82838383148260817181828113
:1015500093810C94840960911B038CE090E00C94BF
:101560000129CF93DF9326E0729FF001112434E527
:10157000839FE00DF11D1124E60FF11DEE0FFF1FFB
:10158000ED59FC4FC591D491CE01C238D10549F136
:10159000B0F4C133D10509F464C048F4C932D105AF
:1015A00009F458C0CA32D10509F462C068C0C53315
:1015B000D10509F448C0C933D10599F060C0C33ED4
:1015C000D10541F138F4C03ED10591F0C23ED105BC
:1015D000B1F055C0C63ED10521F1C73ED10561F13C
:1015E0004EC020912D0320FD14C221FD12C213C252
:1015F00020912D0320FF0FC289E390E00CC22091BF
:101600002D0322FF08C280912D0384FDB4C183EE17
:1016100090E001C280912D0382FFF5CF82EE90E031
:10162000FAC120912D0323FFF6C180912D0384FD83
:10163000A2C187EE90E0EFC180912D0383FFF5CF2B
:1016400086EE90E0E8C120912D0325FFE4C189E2F8
:1016500090E0E1C120912D0325FFDDC185E390E0FD
:10166000DAC120912D0326FFD6C18AE290E0D3C1D2
:1016700020912D0326FFCFC181E390E0CCC1C1159D
:1016800020E5D20708F047C0C11530E4D30708F0C1
:1016900034C1C83ED10518F5C03ED10508F0BBC124
:1016A000C83AD10570F4C53AD10508F0B0C0C130D0
:1016B000D10509F4B0C108F45EC1249708F45BC1F8
:1016C000AAC1CF3BD10508F4ADC0C03CD10508F498
:1016D00052C1FE01EE0FFF1FE252F04002C1C115E0
:1016E00020E2D20760F4C11531E0D30708F093C1BE
:1016F000C03FD10508F43FC1CE0190658CC1C11532
:1017000080E3D80708F0F0C0FE01FF70EE0FFF1F66
:10171000E25AFE4FE6C0C11595E5D90708F044C06E
:10172000C11524E5D20708F000C1C11532E5D30781
:1017300010F5C11581E5D80708F0E3C02C2F237000
:1017400081E090E002C0880F991F2A95E2F79C681B
:101750009E0174E0369527957A95E1F72370922BD8
:10176000EC2FEF70E695E69530E2E39FF00111244F
:101770008E2B9F2B50C18C2F86958695AE01437082
:101780005527C115D34508F0C1C090E2899F90014B
:10179000112481E090E002C0880F991F4A95E2F77A
:1017A000822B932B9C6837C1C1152AE5D207A0F480
:1017B000C11539E5D30708F0C6C0C11586E5D807BD
:1017C00008F4B8C0C11598E5D90708F4D4C09C2F17
:1017D0008827806F906A1FC1C1152BE5D20708F4D6
:1017E000CAC0CE01C1153CE5D30708F4C1C090566C
:1017F0008115904208F0BFC08D2F8F710E9439046F
:10180000FE01FF27F0628F719F01382BAFC0C53AF0
:10181000D10509F4B3C0C63AD10509F0B2C082E8D7
:1018200090E4F9C0C83AD10509F4AEC0C93AD1056F
:1018300009F4ADC0CA3AD10509F4ACC0CB3AD10520
:1018400009F4ABC0CC3AD10509F4AAC0CB3BD10511
:1018500009F4A9C0CC3BD10509F4A8C0CD3AD10503
:1018600009F4A7C0C03BD10509F4A6C0CE3AD10502
:1018700009F4A5C0CF3AD10509F4A4C0C13BD105F4
:1018800009F4A3C0C23BD10509F4A2C0C33BD105F2
:1018900009F4A1C0C43BD10509F4A0C0C53BD105E2
:1018A00009F49FC0C63BD10509F49EC0C73BD105D2
:1018B00009F49DC0C83BD10509F49CC0C93BD105C2
:1018C00009F49BC0CD3BD10509F49AC0CE3BD105AC
:1018D00009F499C0CA3BD10509F498C080E094E4AA
:1018E0009AC08591949197C09E013327C901D3FF77
:1018F00002C0986C90C0906C8EC0CE019F70906AB0
:101900008AC09C2F8827816F906A85C090E2899F4A
:101910009001112481E090E002C0880F991F4A9540
:10192000E2F7822B932B9A6876C09C2F8827846FCE
:10193000906A71C08C2F0E9439048F7190E0982FAB
:101940008827906268C08C2F8F700E943904FE0136
:1019500094E0F695E7959A95E1F7EF70F0E0FE2FA9
:10196000EE27F06A8F70806E9F01282BC90153C04B
:101970009927906650C080E090E04DC081E890E4E7
:101980004AC083E890E447C082EE94E444C089EE04
:1019900094E441C08AEE94E43EC085EB94E43BC0FD
:1019A00086EB94E438C083EB94E435C084EB94E494
:1019B00032C087EB94E42FC08CEC94E42CC08DEC07
:1019C00094E429C083E895E426C08AE895E423C01E
:1019D00082E995E420C084E995E41DC081E296E4A3
:1019E0001AC083E296E417C084E296E414C085E24C
:1019F00096E411C086E296E40EC087E296E40BC03E
:101A00008FE694E408C080E794E405C08AE296E497
:101A100002C080EE90E0DF91CF91089580E290E0E7
:101A200090931501809314018091F001811111C0F0
:101A30001092B9008CE08093B80081E08093F001AF
:101A40002FEF83ED90E3215080409040E1F700C0FC
:101A5000000080E40E94A716909315018093140162
:101A6000892B09F040C080E00E94801690931501F8
:101A700080931401892BB9F580E00E948016909321
:101A8000150180931401892B71F58FE30E94801654
:101A90009093150180931401892B29F584E9809393
:101AA000BC0080E40E94A716909315018093140156
:101AB000892BC9F48CE00E948016909315018093C5
:101AC0001401892B81F480E00E9480169093150107
:101AD00080931401892B39F48FE30E948016909330
:101AE00015018093140184E98093BC008091140156
:101AF000089556985E9825982D9826982E982798A0
:101B00002F988FEF90E090938900809388009093B6
:101B10008B0080938A0090938D0080938C00259A8F
:101B20002D9A2FEF80E792E0215080409040E1F71E
:101B300000C00000269A2E9A2FEF80E792E02150F5
:101B400080409040E1F700C00000279A2F9A2FEFC5
:101B500080E792E0215080409040E1F700C0000013
:101B600025982D982FEF80E792E0215080409040FB
:101B7000E1F700C0000026982E982FEF80E792E052
:101B8000215080409040E1F700C0000027982F9836
:101B900056985E9825982D9826982E9827982F98D5
:101BA000089584B1807F84B985B1807F85B98AB179
:101BB000837F8AB98BB1837F8BB93E98469808950D
:101BC00080B38C7080BB81B3836F81BB0895AF926B
:101BD000BF92CF92DF92EF92FF920F931F93CF931A
:101BE000DF938091140190911501892B91F08091E0
:101BF000EF018F5F8093EF0181110BC00E940E0DEA
:101C000090E09093150180931401892B11F40E94A8
:101C1000790D0FE113E026E2E22E23E0F22E6801B7
:101C2000C0E0D0E097E0A92EAC0E8C2F0E943705C3
:101C30008A2D0E9437058C2F0E948605F60190811F
:101C4000981721F08083BB24B39401C0B12C8A2D56
:101C50000E948605F7019081981719F0808381E032
:101C600001C080E0B82ADB290E94D10DCF5FFFEFD1
:101C7000CF1ADF0A8FEFE81AF80AC73099F60E94E8
:101C80000F1E6AEF70E00E9435299C01682F809139
:101C9000EE01882309F44CC01092EE01E091190383
:101CA000F0911A03DF011E9690E07BEF8AEFE82E99
:101CB000F12C80818B3FA9F0482F50E0681728F065
:101CC0006901C41AD50AA60106C06701C41AD50A5B
:101CD000A601420F531F4530510514F0708301C017
:101CE00091E03196EA17FB0721F79093EE01D111AD
:101CF00002C091111FC0A0911903B0911A038091E5
:101D0000EE01E3E3F3E02EE02E0F3081E80199913C
:101D10008E014C914B3F29F4391719F06C93908345
:101D200081E0119631962E13F0CF8093EE0102C020
:101D3000D111E1CF81E0DF91CF911F910F91FF9001
:101D4000EF90DF90CF90BF90AF9008958F929F92C9
:101D5000AF92BF92CF92DF92EF92FF920F931F93B9
:101D6000CF93DF93CDB7DEB728970FB6F894DEBFD9
:101D70000FBECDBFFC01F080118183819481892B3E
:101D800009F4ABC71F3F21F40FEFF01609F4A5C704
:101D90006F0185E0DE01119601900D928A95E1F7C1
:101DA000F601228189819A81222349F00E94661FCF
:101DB000082F682F89819A810E94DF1F03C00E942B
:101DC000B21F082F26E0129FF001112434E5039F73
:101DD000E00DF11D1124EF0DF11DEE0FFF1FED5968
:101DE000FC4F05911491F6018281063FFCE51F0727
:101DF000D9F048F4043F3CE5130791F0053F9CE51A
:101E0000190751F0B7C0073FECE51E07D1F0083FB6
:101E1000FCE51F07B1F1AEC0882309F45EC763C0BB
:101E2000882309F45AC77AC0882309F456C70E9448
:101E3000810A81E00E947E0A21E04FEF6FEF8CEA79
:101E40000CC0882309F449C70E94810A81E00E94DE
:101E50007E0A21E040E86FEF86E528960FB6F894F9
:101E6000DEBF0FBECDBFDF91CF911F910F91FF90CD
:101E7000EF90DF90CF90BF90AF909F908F900C9499
:101E8000A009882309F429C70E94810A81E00E94E1
:101E90007E0A21E04FEF6FEF8BE1DFCF109245021A
:101EA000F60192810A3CFCE51F0709F49AC208F486
:101EB00046C1013D2CE5120709F4E7C240F1053D9A
:101EC000ECE51E0709F407C308F47DC10D3D8CE560
:101ED000180709F40BC30E3DECE51E0709F07BC1A2
:101EE000992309F4FAC628960FB6F894DEBF0FBE00
:101EF000CDBFDF91CF911F910F91FF90EF90DF90B9
:101F0000CF90BF90AF909F908F900C94C81E0D3CC7
:101F10008CE5180729F4992309F4DFC681E016C07F
:101F20000E3CECE51E0708F444C10F3C3CE51307EA
:101F300009F495C208F09EC2992309F4CEC60E9406
:101F400069098250833008F4FFC182E028960FB6F9
:101F5000F894DEBF0FBECDBFDF91CF911F910F91DF
:101F6000FF90EF90DF90CF90BF90AF909F908F90B9
:101F70000C947E0A882319F1033E2CE51207C1F068
:101F800050F4013E8CE5180781F0023E9CE51907EC
:101F9000B1F481E010C0043EECE51E0759F0053EA7
:101FA000FCE51F0761F484E006C010921B0305C026
:101FB00082E001C083E080931B030E94AB0A17FFFD
:101FC00073C0F6018281882309F46EC080914A02B1
:101FD0008093440210924A0280911B03813071F079
:101FE00048F08230D1F08430F1F486EE0E94CB27A5
:101FF00088E117C082EE0E94D32715C088E295E0E1
:102000000E94F11688E10E94D32788E10E9464278C
:1020100088E195E00E94F11606C082EE0E94D32767
:1020200087E50E94CB278FE39CE90197F1F700C079
:1020300000007801E894F7F85CE0A52EB12CC70108
:102040000A2C02C0969587950A94E2F7282F2F70E4
:1020500041F0822F90E02A3010F44D9604C006978C
:1020600002C087E290E00E94CB2794E0A91AB10851
:10207000ECEFAE16EFEFBE0611F780911B03813037
:1020800039F040F0823031F0843051F488E206C0FB
:102090008CE204C082EE0E94642702C00E94CB271B
:1020A0008091440280934A02003FFCE51F07C1F182
:1020B00088F4083D3CE51307D9F0093D8CE5180785
:1020C000D9F1073D9CE5190709F0E8CE26E241EE7B
:1020D00061EE11C0023FECE51E0751F128F1033F0C
:1020E0002CE5120709F0DACE27E246EE66EE03C0D1
:1020F00027E245EE65EEC60128960FB6F894DEBFDE
:102100000FBECDBFDF91CF911F910F91FF90EF9048
:10211000DF90CF90BF90AF909F908F900C94ED0682
:1021200026E240EE60EEE7CF27E244EE64EEE3CF36
:1021300026E242EE62EEDFCF28E241E0DBCF033C55
:102140003CE5130709F4DEC0E0F40531ECE51E07B9
:1021500070F40230FCE51F0708F0CFC101152CE533
:102160001207F1F101301C4509F47CC061C206314F
:102170008CE5180709F428C2023C1C4509F47BC011
:1021800057C2063CFCE51F0709F4FEC050F4043CAE
:102190003CE5130709F4D1C0053C1C4509F4E8C02F
:1021A00047C2083CECE51E0709F404C108F4F8C076
:1021B0000EC10B3CFCE51F0709F422C10C3C1C4579
:1021C00009F427C135C2033D2CE5120709F473C198
:1021D00008F466C175C10C3D1C4509F029C280C1D7
:1021E000992309F47AC510924A020E943C270FEF06
:1021F00014E32CE0015010402040E1F700C0000043
:10220000F89481E08093E00080E28093D8001092FF
:10221000C9008FE19EE40197F1F700C000001DBAEC
:10222000109268001CBC10BE1FBA10927A00109267
:102230006E0010926F001092710010927200109256
:10224000C9001092BC0014B817B81AB81DB810BA5B
:102250001092BC0015B818B81BB81EB811BA0C946F
:10226000003F3BC5992309F438C580914B03816039
:1022700080934B0332C5992309F42FC580916003E5
:1022800080FF2CC08E7F809360036091600370910B
:10229000610380916203909163030E94840910920C
:1022A00066039FEFE0E7F2E09150E040F040E1F795
:1022B00000C0000028960FB6F894DEBF0FBECDBF59
:1022C000DF91CF911F910F91FF90EF90DF90CF9012
:1022D000BF90AF909F908F900C945A0728960FB69E
:1022E000F894DEBF0FBECDBFDF91CF911F910F914C
:1022F000FF90EF90DF90CF90BF90AF909F908F9026
:102300000C94810A992309F4E8C480914A028272EC
:10231000D9F028960FB6F894DEBF0FBECDBFDF917F
:10232000CF911F910F91FF90EF90DF90CF90BF90D2
:10233000AF909F908F900C94890A992309F4CDC493
:1023400080914A02827229F328960FB6F894DEBF74
:102350000FBECDBFDF91CF911F910F91FF90EF90F6
:10236000DF90CF90BF90AF909F908F900C94920A87
:10237000992309F4B2C48091610321E04091630381
:1023800060916203845F69CD992309F4A6C48091AA
:10239000610321E040916303609162038C505DCD45
:1023A000992309F49AC4609162032FEF620F08F435
:1023B0006FEF09C0992309F490C4609162032FEF75
:1023C000621B08F460E021E04091630316C099238A
:1023D00009F483C4409163032CE0420F08F44FEFEB
:1023E00009C0992309F479C4409163032CE0421B8E
:1023F00008F440E021E060916203809161032DCDFB
:10240000992309F46AC480916403833060F48F5F78
:1024100008C0992309F461C480916403882319F0EA
:102420008150809364036091600370916103809197
:1024300062039091630328960FB6F894DEBF0FBE37
:10244000CDBFDF91CF911F910F91FF90EF90DF9063
:10245000CF90BF90AF909F908F900C948409992358
:1024600009F43BC40E9469098650823008F46CCF9D
:1024700086E06CCD992309F430C40E946909895023
:10248000853008F461CF89E061CD992309F425C432
:102490000E9469098F50853008F456CF8FE056CDE1
:1024A000992309F41AC40E9469098551823008F4FD
:1024B0004BCF85E14BCD992309F40FC488E146CD7C
:1024C000992309F40AC40E9469098951893008F4E2
:1024D0003BCF89E13BCD992309F4FFC383E236CD9D
:1024E000992309F4FAC310926703F7C3992309F4F7
:1024F000F4C382E080936703F0C3992309F498C082
:102500000E94BD1E811102C00E94C81E84E090E09E
:102510000E94ED2890E090932E0380932D03F80104
:10252000E350FC45E231F10530F4E35AFF4F80916E
:102530002D030C945D2980912D03816027C082605A
:1025400025C0846023C0806121C080621FC0806478
:102550001DC080681BC08460886018C08E7F16C054
:102560008D7F14C08B7F12C08F7E10C08F7D0EC0F8
:102570008F7B0CC08F770AC08B7F877F07C087FB5C
:10258000222720F991E0922790FB87F980932D0371
:1025900060912D0384E090E00E94012910924A028C
:1025A00028960FB6F894DEBF0FBECDBFDF91CF9156
:1025B0001F910F91FF90EF90DF90CF90BF90AF9061
:1025C0009F908F900C943C2780914A02992389F028
:1025D000982F9A7A81E009F480E080934602811175
:1025E00002C069E201C065E389E792E00E94851EAE
:1025F0000BC080914602811102C069E201C065E30F
:1026000089E792E00E945A1E28960FB6F894DEBF22
:102610000FBECDBFDF91CF911F910F91FF90EF9033
:10262000DF90CF90BF90AF909F908F900C94201F21
:10263000F60100811181992349F0C8010E94661FAB
:10264000F82E682FC8010E94DF1F04C0C8010E9435
:10265000B21FF82EB8018F2D0E94B10A182F382F03
:10266000F601258122952F700281011110920E032F
:1026700080910C038770A9F0002399F080E2810F0C
:10268000883078F082E02F8338879E830E94AB20C9
:1026900080910C038770EE24E3942F8138859E810E
:1026A0008111E12CA92EA2944FE0A422B12CFCE0D0
:1026B000AF16B10408F0DAC2F501E159FF4F0C94EE
:1026C0005D29892F807F9F70F92E882319F0F2945D
:1026D00080EFF8220023B9F0FF2009F458C280E20D
:1026E000810F883010F0311106C090914A02F92A0A
:1026F000F0924A0205C090910E03F92AF0920E035F
:102700000E94201F44C2812F38870E946427388589
:10271000FF2009F4ABC2105EF094183010F03111B4
:1027200006C090914A02F922F0924A0205C09091A7
:102730000E03F922F0920E030E94201F97C2492F28
:10274000407F892F8F70403211F08295807F332334
:1027500019F03130E9F025C0002381F030910F03EA
:10276000222351F0213041F4982F932B391709F48B
:102770007DC290930F037AC2832B91C1222319F05B
:10278000213009F473C28E830E941A1F8E818DC17D
:10279000002321F0223008F069C281C1211166C2F4
:1027A00084C1002321F0222309F479C1F0C122233E
:1027B00009F47BC1FEC1292F26952695237030E0B0
:1027C0002115310521F02130310559F04FC2002388
:1027D00019F0812F937002C080E090E00E94CB0638
:1027E00053C2002319F0812F937002C080E090E063
:1027F0000E94B50649C20023F9F0153F51F0163F7B
:1028000071F0143FA9F480914702909148028160D1
:102810000BC08091470290914802826005C0809170
:102820004702909148028460909348028093470247
:10283000812F0E94571D1EC0153F51F0163F71F0A9
:10284000143FA9F480914702909148028E7F0BC0FB
:1028500080914702909148028D7F05C08091470288
:10286000909148028B7F9093480280934702812F7A
:102870000E948D1C0E941B1E07C2892F837009F0C5
:1028800079C00111FFC1812F829586958770880FCD
:10289000880F412F4F7050E060E070E04A015B010B
:1028A000082E04C0880C991CAA1CBB1C0A94D2F7E1
:1028B00014FF14C04FE050E060E070E08A019B011B
:1028C00004C0000F111F221F331F8A95D2F7B901D0
:1028D000A801409550956095709503C040E050E088
:1028E000BA01969596959370892F90E00091100308
:1028F000109111032091120330911303823091053E
:10290000A9F083309105E9F0019759F04829592938
:102910006A297B29CB01BA01602371238223932387
:1029200026C0802A912AA22AB32A1BC048295929E5
:102930006A297B29CB01BA01602771278227932757
:1029400016C0CB01BA0160237123822393230E9416
:10295000E520409110035091110360911203709192
:102960001303CB01BA01682979298A299B290E947E
:10297000E52088C1002319F0892F817001C0869558
:10298000882309F47FC1812F829586958770880FEF
:10299000880F412F4F7050E060E070E04A015B010A
:1029A000082E04C0880C991CAA1CBB1C0A94D2F7E0
:1029B00014FF14C04FE050E060E070E08A019B011A
:1029C00004C0000F111F221F331F8A95D2F7B901CF
:1029D000A801409550956095709503C040E050E087
:1029E000BA01969596959370892F90E0009108030F
:1029F0001091090320910A0330910B038230910555
:102A0000A9F083309105E9F0019759F04829592937
:102A10006A297B29CB01BA01602371238223932386
:102A200026C0802A912AA22AB32A1BC048295929E4
:102A30006A297B29CB01BA01602771278227932756
:102A400016C0CB01BA0160237123822393230E9415
:102A50000F20409108035091090360910A0370917F
:102A60000B03CB01BA01682979298A299B290E9485
:102A70000F2008C1412F50E0FA01E05EF109E53175
:102A8000F10508F07FC0E558FF4F0C945D291F70D9
:102A9000892F8F71002331F00E94C420812F0E9462
:102AA0005A27E4C00E948620812F0E944F27DEC053
:102AB000002311F12111DAC0292F2F7181E090E05C
:102AC000A0E0B0E0AC01BD0104C0440F551F661F7B
:102AD000771F2A95D2F78091080390910903A0915E
:102AE0000A03B0910B038A019B01082719272A27A3
:102AF0003B27C901B80125C0223008F0B7C0DCCFA0
:102B0000002329F0892F8F712EC00023D9F3892F3C
:102B10008F710E948620AAC0002381F0292F2F7177
:102B200081E090E0A0E0B0E0BC01CD0104C0660F00
:102B3000771F881F991F2A95D2F703C060E070E0C5
:102B4000CB010E940F2092C0002381F0192F1F712A
:102B5000812F0E94C42028E0129FC00111248360AD
:102B600080930C03812F0E94C42080C081E02F83BA
:102B70000E94AB202F81223008F478C082E00E94AE
:102B8000AB2074C0002339F0222309F4BBCF812F7E
:102B90000E94D3276BC0222309F4B9CF193349F41B
:102BA0003FEF87EE93E0315080409040E1F700C066
:102BB0000000812F0E94642759C0323FB1F028F4F1
:102BC000303F49F0313FF9F028C0343FB9F058F0B8
:102BD000353F71F022C0002309F456C0909169037B
:102BE00081E0892708C081E00827009369034CC071
:102BF00001114AC081E08093690346C0011144C0BD
:102C00001092690341C0002329F080916803882352
:102C100029F329C0222311F337C0809168032223AE
:102C2000C1F0882341F09091690381E08927809366
:102C3000690310926803812F002319F00E94D327A3
:102C400023C00E94642786E0F60111928A95E9F775
:102C50001BC08823C9F0011117C09091690381E05E
:102C6000892780936903109268030EC0F8E0AF16BD
:102C7000B10441F04CF01AE0A11AB10822E0A2160A
:102C8000B10410F40E94E106EE2039F180910C03AA
:102C900080FD23C0F60112828595859585950E9459
:102CA000C420C6010E94A60E80910C0385958595CF
:102CB000859528960FB6F894DEBF0FBECDBFDF9185
:102CC000CF911F910F91FF90EF90DF90CF90BF9029
:102CD000AF909F908F900C94862028960FB6F89412
:102CE000DEBF0FBECDBFDF91CF911F910F91FF903F
:102CF000EF90DF90CF90BF90AF909F908F9008950E
:102D0000CF93DF938093BB0084E88093BC000E9444
:102D10000F1EEC019091BC0097FD0AC00E940F1E8F
:102D20008C1B9D0B84369105A8F38EEF9FEF0CC092
:102D30002091B900287F81E090E0283211F480E0F2
:102D400090E0919581959109DF91CF9108950F932E
:102D50001F93CF93DF93C82F1092BC0084EA809317
:102D6000BC000E940F1E8C019091BC0097FD0AC010
:102D70000E940F1E801B910B84369105A8F38EEFE5
:102D80009FEF2AC09091B900987F983041F09091C0
:102D9000B900987F903119F08FEF9FEF1DC0C0935D
:102DA000BB0084E88093BC000E940F1EEC01909150
:102DB000BC0097FD08C00E940F1E8C1B9D0B843623
:102DC0009105A8F3DCCF8091B900887F883111F09C
:102DD000803411F780E090E0DF91CF911F910F9147
:102DE0000895CF93DF93EC0180EEFE01099581EE0B
:102DF000FE01DF91CF910994CF92DF92FF920F9362
:102E00001F93CF93DF931F92CDB7DEB7F82E8B01C0
:102E100099830E94F920998181111CC0CF2CD92E51
:102E200001151105B1F08091E80085FD0AC080917F
:102E3000E8008E778093E8000E94F920882381F3D0
:102E400009C0F60181916F018093F10001501109D1
:102E5000E7CF80E00F90DF91CF911F910F91FF900E
:102E6000DF90CF9008951F93CF93DF93CDB7DEB758
:102E7000AA970FB6F894DEBF0FBECDBFE1E7F2E030
:102E800088E08E0F9091F10091938E13FBCF80918B
:102E90007202833009F460C030F4813071F0823006
:102EA00009F49CC0B3C08A3009F488C08B3009F49F
:102EB0006BC0893009F0AAC020C080917102813AAC
:102EC00009F0A4C08091E800877F8093E80080919A
:102ED000750290917602892B21F460E28DE492E0F4
:102EE00003C060E080E090E070E00E947F2180916C
:102EF000E8008B778093E80089C08091710281326D
:102F000009F084C08091750290917602029708F0D2
:102F10007DC08091E800877F8093E8008091E80081
:102F200082FD05C080916F028111F8CF6FC02091A2
:102F3000F3008091F20090E0922B029729F48091A7
:102F4000F1008B7F813021F48091F10080934C025D
:102F50008091E8008B7756C080917102813A09F028
:102F600055C08091750290917602892B09F04EC070
:102F70008091E800877F8093E8008091E80080FFDF
:102F8000FCCF8091130139C0809171028132F1F53B
:102F90008091750290917602892BC1F58091E800AD
:102FA000877F8093E8000E942B2180917302809399
:102FB000130110924A020E943C2728C0809171029E
:102FC000813221F58091E800877F8093E8000E949C
:102FD0002B218091740280934B0218C08091710262
:102FE000813AA1F48091E800877F8093E800809186
:102FF000E80080FFFCCF80914B028093F10080912C
:10300000E8008E778093E8000E942B218091E800F1
:1030100083FFD6C18091710290917202492F50E0D6
:103020004A30510508F0CCC1FA01E057FF4F0C942B
:103030005D29803821F0823809F0C2C108C0809132
:103040006D0290916E02992389F082600FC0809189
:1030500075028F70873008F0B3C18093E9008091CA
:10306000EB0085FB882780F91092E9009091E80039
:10307000977F9093E8008093F1001092F10074C163
:10308000282F2D7F09F09CC1882319F0823061F030
:1030900097C180917302813009F092C1933009F099
:1030A00080E080936E022EC08091730281112AC04D
:1030B000809175028F702FEF280F263008F080C1A5
:1030C0008093E9002091EB0020FF1CC0933021F495
:1030D0008091EB00806214C09091EB00906190931E
:1030E000EB0021E030E0A90102C0440F551F8A9592
:1030F000E2F74093EA001092EA008091EB008860CA
:103100008093EB001092E9008091E800877F2FC147
:10311000811156C1109173021F778091E30080786E
:10312000812B8093E3008091E800877F8093E80003
:103130000E942B218091E80080FFFCCF8091E3006A
:1031400080688093E300111102C082E001C083E037
:1031500080936F0235C18058823008F031C1809170
:103160007302909174028C3D53E0950779F583E0EA
:103170008A838AE289834FB7F894DE01139620E0B0
:103180003EE051E2E32FF0E050935700E49120FF3E
:1031900003C0E295EF703F5FEF708E2F90E0EA3052
:1031A00010F0C79601C0C0968D939D932F5F243178
:1031B00049F74FBF8091E800877F8093E8006AE27B
:1031C00070E0CE0101960E947F21BDC04091750242
:1031D00050917602292F332723303105B9F06CF452
:1031E0002130310509F4FBC02230310509F0E8C077
:1031F0008BE390E0EBE5F6E054C02132310509F4B1
:1032000033C02232310509F43CC0DAC0992781303D
:103210009105D1F05CF4892B09F0D2C0EEEDF6E017
:10322000E4918E2F90E0EEEDF6E038C0823091050B
:1032300099F0039709F0C4C0E8EAF6E0E4918E2F14
:1032400090E0E8EAF6E02AC0E6ECF6E0E4918E2FA2
:1032500090E0E6ECF6E022C0EEEAF6E0E4918E2F94
:1032600090E0EEEAF6E01AC04115510509F4BCC041
:103270004130510509F0A4C089E090E0E6E8F6E0AD
:1032800010C04115510509F4B4C04130510509F091
:1032900097C080EC90E0EBE5F5E003C0009709F4FF
:1032A0008FC02091E800277F2093E80020917702CB
:1032B000309178022817390708F4C90140E00097D7
:1032C00089F120916F02222309F43DC02530D9F104
:1032D0002091E80023FD37C02091E80022FD2FC097
:1032E0002091E80020FFEBCF4091F3002091F20005
:1032F00030E0342B009759F02830310540F44491E8
:103300004093F100319601972F5F3F4FF3CF41E09B
:103310002830310509F040E02091E8002E77209315
:10332000E800CDCF4111CDCF0AC080916F02882334
:1033300051F0853041F08091E80083FD04C0809118
:10334000E80082FFF2CF8091E8008B778093E8005D
:1033500037C08038A9F58091E800877F8093E80026
:10336000809170028093F1008091E8008E778093C5
:10337000E8000E942B2124C0811122C01091730209
:103380001230F0F48091E800877F8093E80010937A
:1033900070020E942B21111106C08091E30087FD6D
:1033A00002C081E001C084E080936F0242E061ECE2
:1033B00081E00E944A2142E261EC82E00E944A21BF
:1033C0008091E80083FF1AC08091E800877F809396
:1033D000E8008091EB0080628093EB000FC082E1F7
:1033E00090E0E6E9F6E05DCF89E090E0EDE6F6E01A
:1033F00058CF80E490E0EBE1F6E053CFAA960FB609
:10340000F894DEBF0FBECDBFDF91CF911F9108951D
:103410001F920F920FB60F9211242F933F934F9349
:103420005F936F937F938F939F93AF93BF93CF934C
:10343000DF93EF93FF93C091E900CF708091EC0090
:10344000D82FD17080FDD0E81092E9008091F00073
:10345000877F8093F00078940E9433171092E900E0
:103460008091F00088608093F000CD2BCF70C093E6
:10347000E900FF91EF91DF91CF91BF91AF919F91C3
:103480008F917F916F915F914F913F912F910F900D
:103490000FBE0F901F901895E8EDF0E080818E7FB1
:1034A00080831092E2001092DA001092E100A0EE08
:1034B000B0E08C9181608C9380818F77808319BC80
:1034C000A7EDB0E08C918E7F8C9380818F7E80837E
:1034D000109249020895CF92DF92EF92FF920F93DC
:1034E0001F93CF93DF93C8EDD0E088818F7E8883D0
:1034F000E7EDF0E080818160808384E082BF81E03D
:103500008093490288818E7F888302EE10E0F80163
:1035100010821092DA0081EEC82ED12CF6011082B2
:1035200088818F77888388818068888388818F7D70
:10353000888319BC10926F021092700210926E0272
:1035400010926D0290EEE92EF12CF70180818B7FB5
:10355000808388818160888342E060E080E00E940F
:103560004A21F60180818E7F8083F801808181600D
:103570008083808188608083F70180818E7F808353
:10358000888180618883DF91CF911F910F91FF9097
:10359000EF90DF90CF9008951F920F920FB60F9289
:1035A00011242F933F934F935F936F937F938F9348
:1035B0009F93AF93BF93EF93FF938091E10082FFBE
:1035C00009C08091E20082FF05C08091E1008B7FFD
:1035D0008093E1008091DA0080FF2AC08091D800BA
:1035E00080FF26C08091DA008E7F8093DA00809180
:1035F000D90080FF18C080E189BD82E189BD09B48E
:1036000000FEFDCF81E080936F028091490281111D
:103610000FC00E944C1A0E946B1A8091E2008460D5
:103620008093E20005C019BC10926F02109249020B
:103630008091E10080FF17C08091E20080FF13C0FD
:103640008091E2008E7F8093E2008091E2008061B1
:103650008093E2008091D80080628093D80019BCEA
:1036600085E080936F028091E10084FF34C08091F7
:10367000E20084FF30C080E189BD82E189BD09B4E8
:1036800000FEFDCF8091D8008F7D8093D80080917F
:10369000E1008F7E8093E1008091E2008F7E809335
:1036A000E2008091E20081608093E20080917002EC
:1036B000882311F084E007C08091E30087FD02C0F9
:1036C00081E001C083E080936F0210924A020E9461
:1036D0003C270E94E1068091E10083FF27C0809192
:1036E000E20083FF23C08091E100877F8093E100A7
:1036F00082E080936F02109270028091E1008E7FD1
:103700008093E1008091E2008E7F8093E2008091BF
:10371000E20080618093E20042E060E080E00E948D
:103720004A218091F00088608093F000FF91EF9132
:10373000BF91AF919F918F917F916F915F914F91C9
:103740003F912F910F900FBE0F901F901895809171
:103750004C020895CF93DF9300D01F92CDB7DEB710
:1037600020916F02243031F523E02983805891099C
:103770009B838A8382E08093E9008FEF9091E80039
:10378000815095FD06C095ED9A95F1F700008111E5
:10379000F5CF8091E80085FF0DC040E050E063E088
:1037A00070E0CE0101960E94FC168091E8008E77B1
:1037B0008093E8000F900F900F90DF91CF910895C4
:1037C0000F931F93CF93DF9300D01F92CDB7DEB737
:1037D0008C010E94E221823011F0843021F584E0D6
:1037E00089831B830A8382E08093E9008FEF9091A5
:1037F000E800815095FD06C095ED9A95F1F700001F
:103800008111F5CF8091E80085FF0DC040E050E0C8
:1038100063E070E0CE0101960E94FC168091E80002
:103820008E778093E8000F900F900F90DF91CF91EB
:103830001F910F910895CF93DF93EC010E94E22135
:10384000823011F08430F9F482E08093E9009FEF38
:103850008091E800915085FD06C085ED8A95F1F7CD
:1038600000009111F5CF8091E80085FF0CC040E089
:1038700050E066E070E0CE010E94FC168091E80006
:103880008E778093E800DF91CF910895CF93DF93F7
:10389000EC010E94E221823011F08430D9F5809150
:1038A0001301882339F080912D0387FF03C060E264
:1038B00082E002C068E081E08093E9008FEF9091A0
:1038C000E800815095FD06C095ED9A95F1F700004E
:1038D0008111F5CF8091E80085FF1CC08091130114
:1038E000811105C040E050E068E070E003C070E086
:1038F00040E050E0CE010E94FC168091E8008E77F7
:103900008093E80080E2FE01ADE4B2E001900D9208
:103910008A95E1F7DF91CF910895803F39F4809146
:10392000440387FF6CC01092440369C0813F29F4AF
:10393000809144031816BCF362C090914303823F08
:1039400029F497FF5CC01092430359C0833F19F4D8
:103950001916CCF354C0893F41F4809145031816E1
:103960000CF04DC0109245034AC08A3F29F4809163
:10397000450387FF44C0F6CF8B3F39F4809146035F
:1039800087FF3DC0109246033AC08C3F29F48091D6
:1039900046031816BCF333C0843F21F480914203E0
:1039A0008E7F17C0853F21F4809142038D7F11C027
:1039B000863F21F4809142038B7F0BC0873F21F427
:1039C00080914203877F05C0883F31F48091420394
:1039D0008F7E8093420313C08D3F21F480911803A2
:1039E0008E7F0BC08E3F21F4809118038D7F05C020
:1039F0008F3F29F4809118038B7F80931803809167
:103A0000430381110EC08091440381110AC080914B
:103A10004503811106C080914603811102C01092B6
:103A2000470308958091180380FD16C081FD16C0DC
:103A300082FD18C080914703882391F0883290F46A
:103A400028E0829FC001112468E270E00E944929A9
:103A5000862F672B29F007C082E0089584E008953F
:103A600081E0089588E008958091180380FD17C0D3
:103A700081FD17C082FD19C080914703882399F00A
:103A80008C3398F423E2829FC00111246CE370E030
:103A90000E944929862F672B49F481E0089588E028
:103AA000089581E1089585E0089583E20895803FB7
:103AB00021F40E94341D819504C0813F29F40E94A5
:103AC000341D809344030895823F21F40E94341DE5
:103AD000819504C0833F29F40E94341D80934303E1
:103AE0000895893F19F40E94121D05C08A3F31F4E0
:103AF0000E94121D81958093450308958B3F21F408
:103B00000E94121D819504C08C3F29F40E94121D51
:103B1000809346030895843F21F48091420381609D
:103B200017C0853F21F480914203826011C0863F17
:103B300021F48091420384600BC0873F21F480917F
:103B40004203886005C0883F31F480914203806160
:103B50008093420308958D3F21F480911803816082
:103B60000BC08E3F21F480911803826005C08F3F07
:103B700029F4809118038460809318030895789441
:103B80001F920F920FB60F9211248F939F93AF93B2
:103B9000BF938091140390911503A0911603B091E7
:103BA00017030196A11DB11D809314039093150373
:103BB000A0931603B0931703BF91AF919F918F917C
:103BC0000F900FBE0F901F901895CF92DF92EF923B
:103BD000FF920F931F932FB7F894409114035091C5
:103BE000150360911603709117032FBF6A017B01C3
:103BF000EE24FF248C0120E030E0C016D106E2065E
:103C0000F30610F4415051099A01281B390BC901E0
:103C10001F910F91FF90EF90DF90CF9008952FB7F5
:103C2000F8948091140390911503A0911603B0911C
:103C300017032FBF0895E0913003F09131033097BF
:103C400049F082E0809341030480F581E02D81E416
:103C500093E009950E940F1E9093490380934803B7
:103C600008951F920F920FB60F9211248F939F9376
:103C7000AF93BF9380913203811113C080911403DD
:103C800090911503A0911603B09117034196A11DC1
:103C9000B11D8093140390931503A0931603B09362
:103CA0001703BF91AF919F918F910F900FBE0F900F
:103CB0001F90189520911301222321F020912D03AC
:103CC00027FD04C0FC013296089619C0262F2695C0
:103CD000269526952E31C0F4FC01E20FF11D677088
:103CE00081E090E001C0880F6A95EAF780959281A3
:103CF0008923828308953196E817F90729F02081F6
:103D00002613F9CF1082F7CF0895209113012223B3
:103D100021F020912D0327FD05C0FC0132962FEFE5
:103D200030E019C0262F2695269526952E3120F5B0
:103D3000FC01E20FF11D677081E090E001C0880F87
:103D40006A95EAF79281892B828308952F3F39F093
:103D50003F5F363041F041914613F8CF0DC041111D
:103D6000F7CF232FF5CF2F3F39F0FC01E20FF11DE4
:103D700027FDFA9562830895089580E090E00E94FF
:103D8000FB2821E08D3E9E4F09F020E0822F089510
:103D90006DEE7EEF80E090E00E941F2960E082E0FF
:103DA00090E00E94012960E083E090E00E940129F8
:103DB0001092100310921103109212031092130329
:103DC00060E084E090E00E94012960E085E090E0FE
:103DD0000E94012960E086E090E00E9401296FEFD7
:103DE00087E090E00E94012940E050E0BA0188E0BD
:103DF00090E00E94132960E08DE090E00E9401298C
:103E000040E050E0BA0188E190E00E94132960E0B0
:103E100087E190E00E94012940E050E0BA018FE084
:103E200090E00E94132940E050E0BA0183E190E065
:103E30000C94132980910F03811110920F030895A0
:103E400090910E0380914A02892B20910D03982FA7
:103E5000922B9093790280910F038823D9F0892BBC
:103E60008093790280911301882331F080912D0392
:103E700087FF02C08EE101C086E0EBE7F2E090E050
:103E8000815028F021912223D9F39F5FF9CF91111E
:103E90000E941A1FE0913003F09131033097A9F08E
:103EA00080911301882359F080912D0387FF07C06B
:103EB0008091790280937A0285E080937902028072
:103EC000F381E02D89E792E009940895BF92CF92A3
:103ED000DF92EF92FF920F931F93CF93DF938C01AA
:103EE000C0901003D0901103E0901203F0901303E0
:103EF0008091080390910903A0910A03B0910B03EC
:103F0000C82AD92AEA2AFB2ACFE1D0E0D701C60184
:103F10000C2E04C0B695A795979587950A94D2F76D
:103F200080FF07C0BC2EB8018C2F0E94B10A0197F8
:103F300019F4219758F7B12C8B2DDF91CF911F9158
:103F40000F91FF90EF90DF90CF90BF900895CF93A7
:103F5000DF93EC010E94661FBE010E94B10ADF914F
:103F6000CF910895292F220F920F990F890F682F53
:103F7000669566956695982F977085E0689FB00165
:103F8000112440E050E080E0FA01E60FF71FEF5205
:103F9000FD4F208130E0092E02C0369527950A9406
:103FA000E2F721703327042E01C0220F0A94EAF7AA
:103FB000822B4F5F5F4F4530510531F70895292F10
:103FC000220F920F990F890FA82FA695A695A69557
:103FD000877051E001C0550F8A95EAF785E0A89FE8
:103FE000D001112420E030E070E0F901EA0FFB1F5E
:103FF000EF52FD4F4081CB01022E02C0969587956E
:104000000A94E2F781709927819584278523842774
:1040100080832F5F3F4F2530310539F708950F9387
:104020001F93AB01BC01CB01AA27BB270097A105B9
:10403000B10511F0E0E103C0DB01CA01E0E0092FA6
:104040001A2F2B2F3327011511052105310519F0E2
:10405000E85FD901C8018C019D01F4E036952795F0
:1040600017950795FA95D1F7011511052105310529
:1040700019F0EC5FD901C8018C019D01F2E0369581
:10408000279517950795FA95D1F701151105210583
:10409000310519F0EE5FD901C801B695A79597953E
:1040A0008795892B8A2B8B2B09F0EF5F56985E98AA
:1040B00025982D9826982E9827982F988E2F90E047
:1040C000FC013197E730F105A8F4E656FF4F0C9458
:1040D0005D29259A2D9A0EC0259A2D9A269A2E9AF8
:1040E00009C0259A2D9A04C0259A2D9A269A2E9AAF
:1040F000279A2F9A409308035093090360930A0369
:1041000070930B031F910F910C9421270F931F9312
:1041100041E050E060E070E004C0440F551F661FAE
:10412000771F8A95D2F7409550956095709580914C
:10413000080390910903A0910A03B0910B038A012F
:104140009B01082319232A233B23C901B8011F918E
:104150000F910C940F2020910C0380958223809363
:104160000C03982F977079F430E0482F082E000C3C
:10417000550B2417350739F08595859585950E944F
:10418000862010920C0308950F931F9341E050E096
:1041900060E070E004C0440F551F661F771F8A95CA
:1041A000D2F78091080390910903A0910A03B0917E
:1041B0000B038A019B01082B192B2A2B3B2BC901CE
:1041C000B8011F910F910C940F206093100370930E
:1041D000110380931203909313030C942127809171
:1041E000D00290919F02891719F08F5F8770FBCFE3
:1041F00008952091E4003091E50095E64091EC00AF
:10420000842F817040FF22C08091E80080FD1CC097
:1042100080916F02882391F0853091F08091EB00BE
:1042200085FD10C04091E4005091E500421753070E
:1042300029F39A01915011F784E0089582E00895DE
:1042400083E0089581E0089580E008954091E800BA
:1042500042FFDECF08958091710287FF11C08091E7
:10426000E80082FD05C080916F028111F8CF11C076
:104270008091E8008B770BC080916F02882349F012
:104280008091E80080FFF8CF8091E8008E778093DE
:10429000E8000895982F973058F59093E900981703
:1042A00039F07091EC002091ED005091F00003C0C6
:1042B000242F762F50E021FF19C03091EB003E7F74
:1042C0003093EB003091ED003D7F3093ED00309165
:1042D000EB0031603093EB007093EC002093ED0025
:1042E0005093F0002091EE0027FF07C09F5FD3CFCF
:1042F0008F708093E90081E0089580E00895209117
:104300007702309178022617370748F0611571055A
:1043100039F42091E8002E772093E80001C0B9011C
:1043200040E061157105A9F120916F02222309F483
:1043300043C0253009F442C02091E80023FD40C06D
:104340002091E80022FD32C02091E80020FFE9CF53
:104350004091F3002091F20030E0342BFC01CF01BA
:104360006115710559F02830310540F48191809331
:10437000F100615071092F5F3F4FF1CF41E02830CC
:10438000310509F040E02091E8002E772093E80005
:10439000C8CF4111C9CF0AC080916F02882361F054
:1043A000853061F08091E80083FD0AC08091E800CB
:1043B00082FFF2CF80E0089582E0089583E00895BF
:1043C00081E0089580916703811107C080916F0299
:1043D000843011F081E0089582E00895CF93DF9357
:1043E000CDB7DEB72C970FB6F894DEBF0FBECDBFAA
:1043F00084B7877F84BF0FB6F894A895809160003A
:10440000886180936000109260000FBE80E8809306
:1044100061001092610085B7806885BF85B78068AC
:1044200085BF0E944C1A0E946B1A8091E200846042
:104430008093E200789480916F028823A1F010911C
:10444000E9001F709091EC00892F817090FD80E849
:10445000182B1092E9008091E80083FD0E94331729
:104460001F701093E90082E084BD93E095BD9AEF40
:1044700097BD80936E000E940E0D90E09093150101
:10448000809314010E94D10D0E94E00DAFE1B3E0D2
:10449000E3E3F3E05EE0D52EDE0E11921D92DE1214
:1044A000FCCF8EE090E00E946329809319039093E3
:1044B0001A03FC010E962BEF2193E817F907E1F799
:1044C0000E94BD1E811102C00E94C81E8CE090E0B7
:1044D0000E94ED2890E0A0E0B0E080931B03909351
:1044E0001C03A0931D03B0931E0389EA80938000F0
:1044F00089E08093810024982C983F988AB18F7C22
:104500008AB96E98479A8BB180638BB9769A0E946C
:10451000790D0E94BD1E811102C00E94C81E82E05A
:1045200090E00E94ED2880934B0384E090E00E948D
:10453000ED2890E090932E0380932D0383E090E08C
:104540000E94ED28682F70E080E090E00E94E52056
:1045500080912F03811138C080914B03816080933B
:104560004B030E94BD1E811104C00E94C81E0E9400
:104570009C0A88E090E00E94F528609360037093A5
:10458000610380936203909363036E7F71F40E94D2
:104590009C0A88E090E00E94F52860936003709385
:1045A000610380936203909363030E9471091092E8
:1045B00066038091600380FF04C060E086950E94DE
:1045C0003C0A81E080932F0386E191E090933103D0
:1045D0008093300342EEE42E46E0F42E80916F0289
:1045E000853009F047C080916F02843021F110922C
:1045F000320320E488E190E00FB6F894A895809308
:1046000060000FBE2093600083B7817F846083BF0A
:1046100083B7816083BF7894889583B78E7F83BF8B
:104620000FB6F894A895809160008861809360002F
:10463000109260000FBE80916E02882309F4CECFE5
:104640000E940E0D90E090931501809314010E943A
:10465000D10D0E94E00DE3E3F3E01192DE12FDCFF5
:104660000E94E70DE3E3F3E08191811184C1DE1242
:10467000FBCFB4CF0E94E70DECE4F3E0A3E3B3E09B
:1046800000E010E0302F2D9141914227B9F180E0F8
:1046900090E050E0682F5A01082E02C0B594A7940C
:1046A0000A94E2F7A0FE26C089833A8381E090E075
:1046B0005C0102C0AA0CBB1C6A95E2F7822F90E055
:1046C0008A219B2121E0892B09F420E02B830E9481
:1046D0000F1E8160782F9D838C8349815A816B8165
:1046E0008D810E94DF05F801E45BFC4F8081A826E4
:1046F000A0821AC001968630910561F60F5F1F4FA8
:104700000E30110509F0BECF8FEF8E838F83188690
:104710000E940F1E8160782F9A8789874E815F8162
:1047200068858A850E94DF0580914803909149033E
:104730000E94E51D9C0190914703992321F02431AB
:10474000310508F478C0809143031091440381112E
:104750000BC0111126C120914503211122C12091C6
:10476000460321111EC167C09F3F19F09F5F9093C0
:104770004703181624F40E94341D8093430380914C
:10478000430387FF05C00E94341D81958093430336
:10479000111624F40E94341D809344038091440335
:1047A00087FF05C00E94341D81958093440330919A
:1047B00043033323E1F0209144032223C1F045EB6E
:1047C0003403C0011124892F990F990B009709F424
:1047D00081E08093430335EB2303C0011124892F2B
:1047E000990F990B009709F481E08093440380911D
:1047F0004503181624F40E94121D809345038091EE
:10480000450387FF05C00E94121D819580934503D3
:1048100080914603181624F40E94121D80934603CB
:104820008091460387FF05C00E94121D81958093E9
:1048300046030E941B1E10914A030E94E1061817AE
:1048400021F00E94E10680934A0380916603882349
:1048500009F4C4CE80916503E0916003E695E81BFE
:10486000E0935C03823049F4F0E0E051F94FE491C9
:104870000E2F10E025E539E048C0863049F4F0E01D
:10488000E351F94FE4910E2F10E025E439E03DC0EB
:10489000893051F4E695F0E0E651F94FE4910E2F9E
:1048A00010E02AEA38E031C08F3051F4E695F0E0AC
:1048B000E951F94FE4910E2F10E02AE338E025C0CA
:1048C000853149F4F0E0EC51F94FE4910E2F10E0FE
:1048D0002EED37E01AC0883179F0833231F4F701D8
:1048E0000591149128EE38E010C0843251F404EFA1
:1048F00011E021E737E009C008EE13E029EA37E0CC
:1049000004C000ED17E029E933E080915D038823BE
:10491000A9F010925D032B873C870E940F1EA8010F
:1049200040955095840F951F90935B0380935A0395
:1049300010925F0310925E033C852B8580915A0391
:1049400090915B032B873C870E94E51D2B853C855E
:104950008017910708F442CEE0915A03F0915B036F
:104960000E0F1F1F10935B0300935A038AE593E019
:10497000F901099533CE80E189BD82E189BD09B491
:1049800000FEFDCF8091D8008F7D8093D80080916C
:10499000E00082608093E0008091E00081FDFCCF28
:1049A0001DCE9F3F09F0E2CEEACE80919E02829515
:1049B0008F7009F054C080919B02882309F44FC086
:1049C0008091D002A0919F026091990270919A0209
:1049D00040919C0250919D02B6E08A1709F43FC0B5
:1049E00090E041155105C1F17F3F11F46F3FA1F1F6
:1049F000B89FF001B99FF00D1124E056FD4F2181C1
:104A000072132AC02081621327C02281211124C081
:104A1000238134812417350710F421503109241BD8
:104A2000350B283C3105C0F420919E022F70206187
:104A300020939E0226E0289FF001299FF00D11246B
:104A4000EB55FD4F80818F708061808389E992E012
:104A50000E94A60E0C94EF2001968770BECF089599
:104A60000E94A71F292F2F7092959F70E92FF0E0C9
:104A70003297EE30F105B8F4EF55FF4F0C945D29F5
:104A8000803F99F018F4803E70F40FC0843F59F4D1
:104A90000CC0803E50F0813F31F407C0822F8695D4
:104AA00086958695089580E0089581E00895BF92E7
:104AB000CF92DF92EF92FF920F931F93CF93DF93EA
:104AC000CDB7DEB761970FB6F894DEBF0FBECDBF8E
:104AD0008C0185E0F801DE011D9601900D928A950A
:104AE000E1F7D8013C9111962C9111971296EC9018
:104AF00012971396CD90DC90149750919902609183
:104B00009A0280919C0290919D02009709F44FC1F6
:104B10006F3F19F45F3F09F44AC1B0909B02BB207C
:104B200009F4ECC040919E02C816D90628F0F6019F
:104B3000E81BF90BCF0104C0809590958C0D9D1D4D
:104B4000FF24F394883C910548F0F12C407F09F054
:104B50009FC089E992E00E94A60E21C1842F807F28
:104B600009F044C0621312C0531310C0E1100EC00C
:104B70004F70406140939E0289E992E00E94A60E28
:104B800080919E02D80115968C932EC0CD2819F1E4
:104B90002F3F11F43F3FF9F0FE2CE1101CC0809133
:104BA000D00240919F0256E0841709F458C090E06B
:104BB000589FF001599FF00D1124E056FD4F61817F
:104BC000261306C06081361303C06281611103C0E1
:104BD00001968770E9CFFE2CEE2009F421C1809167
:104BE0009E02816080939E02F12C1AC162130AC05A
:104BF000531308C0E11006C080919E02D80115969B
:104C00008C93B0C03D872E878D859E850E94302570
:104C10008823D1F1EE20C1F120919E02822F82954E
:104C20008F7090E0029774F08091990290919A02AF
:104C300098878F831986DB86CA862C87CE010796D4
:104C40000E94A60E86E0F801A9E9B2E001900D925B
:104C50008A95E1F70E94D524FF24F394E1C03D87B3
:104C60002E878D859E850E94A71F292F22952F7044
:104C700030E0223031050CF0C7C09F7009F0C1C090
:104C8000805E883008F4CCC0C8010E94A60EE4CF34
:104C9000621314C0531312C0E11010C080919E0221
:104CA000F8018583C8010E94A60E86E0E9E9F2E0DA
:104CB000DF011D928A95E9F7FB2CB2C03D872E8754
:104CC0008D859E850E9430258823F1F2EE20E1F249
:104CD00020919E02822F82958F7090E002970CF4B3
:104CE000B1CF8091990290919A029A8389831B8215
:104CF000DD82CC822E83CE010196A2CFC816D906C2
:104D000038F0C81AD90AB8ECCB16D10450F007C055
:104D1000809590958C0D9D1D883C910510F0F12C8F
:104D20003EC0FE2CEE2009F4AFCF621327C0531310
:104D300025C020919E0220FD18C0822F82958F7081
:104D4000482F50E04115510581F0F80125834F307F
:104D5000510541F08F5F982F9295907F822F8F7031
:104D6000892B8583C8010E94A60E86E0F801A9E977
:104D7000B2E001900D928A95E1F752C03D872E87EF
:104D80008D859E850E94302581115CCF80919E0289
:104D9000816080939E02C8010E94A60E41C0E9E98D
:104DA000F2E086E0DF011D928A95E9F739C0EE2036
:104DB00009F46ACF3D872E878D859E850E94302518
:104DC000F82E882309F460CF86E0F801A9E9B2E063
:104DD00001900D928A95E1F78091990290919A0243
:104DE0000E94A71F92959F70963041F480916903AD
:104DF00091E0892780936903909368030E94D524EA
:104E00000FC081113DCF0CC0243031050CF03CCFD8
:104E10009F7009F435CFF8019581907F09F030CF6C
:104E20008F2D61960FB6F894DEBF0FBECDBFDF9118
:104E3000CF911F910F91FF90EF90DF90CF90BF9097
:104E4000089510920E0310920D030E94201FE1E4BA
:104E5000F3E086E0DF011D928A95E9F7109247039F
:104E6000109218030E941B1E80E090E00E94CB0667
:104E700080E090E00C94B50680911301882331F016
:104E800080912D0387FF02C08EE101C086E0EBE731
:104E9000F2E0DF011D928A95E9F70C94212788231F
:104EA00041F0809590914A02892380934A020C94A4
:104EB000201F0895882339F090914A02892B80930E
:104EC0004A020C94201F0895882309F463C0823895
:104ED00069F40E94E10681FF5DC069E389E792E021
:104EE0000E94851E0E94201F69E30EC0833891F442
:104EF0000E94E10680FF4EC063E589E792E00E94D0
:104F0000851E0E94201F63E589E792E00E945A1ED9
:104F10000C94201F843869F40E94E10682FF3AC095
:104F200067E489E792E00E94851E0E94201F67E4E3
:104F3000EBCF9CEF980F913A10F4682FE5CF90E2F9
:104F4000980F983088F4877021E030E0A90102C002
:104F5000440F551F8A95E2F7CA01809590914A0245
:104F6000892380934A02D4CF9BE5980F933020F495
:104F700080E090E00C94CB0698E5980F973120F4F0
:104F800080E090E00C94B506803F20F00E948D1CDC
:104F90000C941B1E0895CF93C82F0E94D3278C2FEB
:104FA000CF910C946427882309F416C18238B1F498
:104FB0000E94E10681FD10C169E389E792E00E9449
:104FC000851E0E94201F2FEF41EE54E021504040EB
:104FD0005040E1F700C0000069E317C08338D9F4FE
:104FE0000E94E10680FDF8C063E589E792E00E9437
:104FF000851E0E94201F8FEF91EE24E0815090408B
:105000002040E1F700C0000063E589E792E00E94DC
:105010005A1E0C94201F8438B1F40E94E10682FDD0
:10502000DBC067E489E792E00E94851E0E94201F92
:105030004FEF51EE84E0415050408040E1F700C016
:10504000000067E4E2CF9CEF980F913A30F4682FAC
:1050500089E792E00E94851EDCCF90E2980F98309D
:1050600080F4877021E030E0A90102C0440F551F91
:105070008A95E2F7CA0190914A02892B80934A02ED
:10508000C8CF9BE5980F933070F4853A29F0863AA3
:1050900031F083E890E005C081E890E002C082E84A
:1050A00090E00C94CB0698E5980F973108F08EC0ED
:1050B000883A09F445C0893A09F445C08A3A09F4A6
:1050C00045C08B3A09F445C08C3A09F445C08B3B86
:1050D00009F445C08C3B09F445C08D3A09F445C03C
:1050E000803B09F445C08E3A09F445C08F3A09F473
:1050F00045C0813B09F445C0823B09F445C0833B70
:1051000009F445C0843B09F445C0853B09F445C01A
:10511000863B09F445C0873B09F445C0883B09F448
:1051200045C0893B09F445C08D3B09F445C08E3B21
:1051300009F445C08A3B09F445C080E090E044C0D2
:1051400082EE90E041C089EE90E03EC08AEE90E0B1
:105150003BC085EB90E038C086EB90E035C083EB38
:1051600090E032C084EB90E02FC087EB90E02CC041
:105170008CEC90E029C08DEC90E026C083E891E0B3
:1051800023C08AE891E020C082E991E01DC084E953
:1051900091E01AC081E292E017C083E292E014C06D
:1051A00084E292E011C085E292E00EC086E292E0D5
:1051B0000BC087E292E008C08FE690E005C080E770
:1051C00090E002C08AE292E00C94B506803F20F0A5
:1051D0000E94571D0C941B1E0895F999FECF92BD95
:1051E00081BDF89A992780B50895A6E1B0E044E022
:1051F00050E00C942729A8E1B0E042E050E00C9484
:105200002729262FF999FECF92BD81BDF89A0197E3
:1052100000B4021639F01FBA20BD0FB6F894FA9AFE
:10522000F99A0FBE08950396272F0E9402290E9423
:105230000129252F0E940229242F0C94022901966E
:10524000272F0E9402290C940129DC01CB01FC01CB
:10525000F999FECF06C0F2BDE1BDF89A319600B4CF
:105260000D9241505040B8F70895AA1BBB1B51E165
:1052700007C0AA1FBB1FA617B70710F0A61BB70BC6
:10528000881F991F5A95A9F780959095BC01CD016B
:10529000089597FB072E16F4009407D077FD09D0E8
:1052A0000E94352907FC05D03EF4909581959F4FCB
:1052B0000895709561957F4F0895EE0FFF1F05903B
:1052C000F491E02D0994CF93DF938230910510F48F
:1052D00082E090E0E0916C03F0916D0320E030E01B
:1052E000C0E0D0E0309711F1408151814817590753
:1052F000C0F04817590761F482819381209719F013
:105300009B838A832BC090936D0380936C0326C08C
:105310002115310519F04217530718F49A01BE01FF
:10532000DF01EF010280F381E02DDCCF2115310593
:1053300009F1281B390B2430310590F412968D9118
:105340009C9113976115710521F0FB019383828372
:1053500004C090936D0380936C03FD01329644C0AA
:10536000FD01E20FF31F81939193225031092D9398
:105370003C933AC020916A0330916B03232B41F494
:10538000209102013091030130936B0320936A0353
:1053900020910001309101012115310541F42DB713
:1053A0003EB74091040150910501241B350BE0915B
:1053B0006A03F0916B03E217F307A0F42E1B3F0B77
:1053C0002817390778F0AC014E5F5F4F2417350777
:1053D00048F04E0F5F1F50936B0340936A03819315
:1053E000919302C0E0E0F0E0CF01DF91CF9108950A
:1053F0000F931F93CF93DF93009709F48CC0FC01A8
:1054000032971382128200916C0310916D03011583
:10541000110581F420813181820F931F20916A034D
:1054200030916B032817390779F5F0936B03E093FC
:105430006A0371C0D80140E050E0AE17BF0750F4D6
:1054400012962D913C911397AD012115310509F16B
:10545000D901F3CF9D01DA01338322836081718109
:10546000860F971F8217930769F4EC012881398111
:10547000260F371F2E5F3F4F318320838A819B8108
:1054800093838283452B29F4F0936D03E0936C039F
:1054900042C01396FC93EE931297ED0149915991F6
:1054A0009E01240F351FE217F30771F4808191816B
:1054B000840F951F029611969C938E9382819381FF
:1054C00013969C938E931297E0E0F0E0D801129629
:1054D0008D919C911397009719F0F8018C01F6CFEC
:1054E0008D919C9198012E5F3F4F820F931F2091C9
:1054F0006A0330916B032817390769F4309729F450
:1055000010926D0310926C0302C0138212821093EA
:105510006B0300936A03DF91CF911F910F91089560
:10552000FC014150504030F001900616D1F7319700
:0E553000CF010895882799270895F894FFCF9A
:10553E0000006E03200001191A1B1C1D1E1F2021C6
:10554E00220102012000A71B461C1B1CAA1BE01BEC
:10555E000001020202020606060909090909090FDD
:10556E000F0F0F0F0F1515151819191919191919DC
:10557E001919192324000D010D020D030D040D053B
:10558E000D000C010C020C030C040C050C000B019D
:10559E000B020B030B040B050B000A010A020A0394
:1055AE000A040A050A00090109020903090409058A
:1055BE00090008010802080308040805080007018D
:1055CE000702070307040705070006010602060384
:1055DE00060406050600050105020503050405057A
:1055EE00050004010402040304040405040003017D
:1055FE000302030303040305030002010202020374
:10560E000204020502000101010201030104010569
:0E561E0001000001000200030004000500006E
:00000001FF
