:100000000C948D040C94AA040C94AA040C94AA04D5
:100010000C94AA040C94AA040C94AA040C94AA04A8
:100020000C94AA040C94AA040C94CC2D0C949E2E2F
:100030000C9445240C94AA040C94AA040C94AA04CD
:100040000C94AA040C94AA040C94AA040C94AA0478
:100050000C94AA040C94AD240C94AA040C94AA0445
:100060000C94AA040C94AA040C94AA040C94AA0458
:100070000C94AA040C94AA040C94AA040C94AA0448
:100080000C94AA040C94AA040C94AA040C94AA0438
:100090000C94AA040C94AA040C94AA040C94AA0428
:1000A0000C94AA040C94AA040C94AA040005030559
:1000B000060509050C050F051205D707DA07DF0746
:1000C000E907DD07E207E707E5075609580963096D
:1000D0005A095C095E0960096209650967096909CD
:1000E00074096B096D096F0971097309760965193E
:1000F000651997199719CE19EE19571BB51B301AA8
:10010000B51BDD1ADD1A4E1BB51BB51BAF1BEA1A5A
:10011000EA1AEA1AEA1AEA1AEA1AEA1AEA1AEA1ABF
:10012000EA1AEA1AEA1AEA1AEA1AEA1AEA1AFB1A9E
:10013000081B0F1B161B201B401C401C521C521C72
:10014000491C521C521C521C401C401C4E1C521C70
:10015000521C4E1C1328092821287A28812881281E
:100160007A2881288128422881284C2856288128ED
:100170008128812881287A28812881287A28812845
:100180002F28812881286628662866286628662800
:1001900066286628662866287C2881281328062871
:1001A0008128812881288128812881288128812807
:1001B000812881287C28812881287A288128642820
:1001C00064286428642864286428642864286428CF
:1001D0007C280B2F322F2430322F24307E2FA12F5A
:1001E0002430F72F06306572676F646F785F657A29
:1001F0002F64656661756C74204020302E362E3376
:100200003536002E004C002A00E100354100001E6A
:1002100000140004001D6134004D001F001A001678
:10022000001B00E1042A002000080007000600501F
:10023000002C0021001500090019004F004A00227F
:100240000017000A0005000000656450000153001B
:1002500000006F0000E3004F000153000000670042
:1002600000E20023001C000B0011000000296124A3
:100270000018000D00100052004B0025000C000E6D
:1002800000360051002800260012000F0037002F12
:10029000002B00270013003342386130004E002D40
:1002A0000031003468E50001580000F55C010001F0
:1002B000000100F45C00003A001E0220022202014C
:1002C0000001003B001F02210223020100C95C3C27
:1002D000002F0226022F000100CA5C3D00300227D9
:1002E000023000010001003E0031023500350200FD
:1002F00000C35C01000100000001000000010001DA
:10030000000100000001000000C25C3F00520051EB
:100310000024020000F65C4000240021001E0001C1
:100320000001004100250022001F003700C55C428B
:10033000002600230020002700C65C430025022E73
:100340000231002E000100440045000100010001BF
:100350000000000100010001000100010000000197
:10036000000100010001000100010001000100F294
:10037000000100010001000100F000F1000100F4A3
:1003800000010001000100F3000100F5000100017F
:100390000001000100010000000100010001000057
:1003A0000001000000010001000100000001000048
:1003B0000001000100010001000100000001000136
:1003C00000010001000100A900010001000100017D
:1003D00000AC00AA00B600010001000100AB00A8BB
:1003E0000001000100010001000100010001000105
:1003F000000100AE0001000100000000000000004C
:100400000000002A2B28000000000000000000006F
:1004100000000000000029000000002C1E342021F4
:100420002224342627252E362D3738271E1F20213B
:1004300022232425263333362E37381F040506079A
:1004400008090A0B0C0D0E0F1011121314151617B4
:1004500018191A1B1C1D2F3130232D3504050607D2
:1004600008090A0B0C0D0E0F101112131415161794
:1004700018191A1B1C1D2F3130354C0000000000CC
:10048000000000000000000000000000000000006C
:10049000000000000000000000000000000000005C
:1004A000000000000000000000000000000000004C
:1004B000000000000000000000000000000000003C
:1004C000000000000000000000000000000000002C
:1004D000000000000000000000000000000000001C
:1004E000000000000000000000000000000000000C
:1004F00000000000000000000000000000000000FC
:1005000000000000000000000000000000000000EB
:1005100000000000000000000000000001010101D7
:1005200001010001010101000000000000000000C5
:1005300000000000000100010001010101010101B2
:10054000010101010101010101010101010101019B
:100550000101010101010000000101000000000093
:10056000000000000000000000000000000000008B
:10057000000000000000010101010000047F3F1F96
:10058000643214643214783C1E1E140A052223259A
:100590002628292A2C2D2F3032333536383A3B3D48
:1005A0003E4042434547494A4C4E50515355575996
:1005B0005A5C5E6062646668696B6D6F71737577B3
:1005C000797B7D7F81838587898A8C8E90929496B2
:1005D000989A9C9E9FA1A3A5A7A8AAACAEAFB1B3C1
:1005E000B4B6B8B9BBBCBEBFC1C2C3C5C6C7C9CA11
:1005F000CBCCCDCED0D1D2D2D3D4D5D6D7D7D8D9D3
:10060000D9DADADBDBDBDCDCDCDCDCDDDDDDDDDC30
:10061000DCDCDCDCDBDBDBDADAD9D9D8D7D7D6D542
:10062000D4D3D2D2D1D0CECDCCCBCAC9C7C6C5C304
:10063000C2C1BFBEBCBBB9B8B6B4B3B1AFAEACAA51
:10064000A8A7A5A3A19F9E9C9A98969492908E8C01
:100650008A89878583817F7D7B79777573716F6DDB
:100660006B6968666462605E5C5A595755535150B5
:100670004E4C4A4947454342403E3D3B3A38363569
:100680003332302F2D2C2A292826252322FFAA7F1A
:1006900055400000000000000000000001010101C1
:1006A000010101010102020202020202020303032C
:1006B00003030303040404040405050505050606F5
:1006C00006060607070707080808080909090A0AAD
:1006D0000A0B0B0B0C0C0C0D0D0D0E0E0E0F0F104C
:1006E00010101111121213131414151516161717D2
:1006F000181819191A1A1B1C1C1D1D1E1F1F20213A
:100700002122232324252526272828292A2B2C2C7F
:100710002D2E2F30313132333435363738393A3B9C
:100720003C3D3E3F404142434445464748494B4C8F
:100730004D4E4F50525354555758595A5C5D5E6058
:100740006163646567686A6B6C6E6F7172747677EB
:10075000797A7C7D7F8182848687898B8D8E909249
:10076000949597999B9D9FA1A2A4A6A8AAACAEB070
:10077000B2B4B6B9BBBDBFC1C3C5C8CACCCED0D355
:10078000D5D7DADCDEE1E3E6E8EAEDEFF2F4F7F9FB
:10079000FCFF0403300000001603450072006700F0
:1007A0006F0044006F007800200045005A000000F0
:1007B00016034500720067006F0044006F00780068
:1007C000200045005A0000000403090409023B0010
:1007D000020100A0FA09040000010301010009213F
:1007E000110100012240000705810308000A0904E5
:1007F0000100010300000009211101000122C000D5
:100800000705820320000A1201100100000008ED14
:10081000FE071301000102030105010902A1018580
:10082000020901A1000509190129051500250195F5
:1008300005750181029501750381010501093009E2
:10084000311581257F9502750881060938158125A6
:100850007F950175088106050C0A38021581257FF0
:10086000950175088106C0C005010980A1018503B5
:100870001601002603001A81002A830075109501D5
:100880008100C0050C0901A1018504160100269C08
:10089000021A01002A9C02751095018100C0050111
:1008A0000906A1018505050719E029E715002501BD
:1008B000950875018102050819012905950575013D
:1008C00091029501750391010507190029EF1500A3
:1008D000250195F075018102C005010906A10105F8
:1008E0000719E029E7150025019508750181029592
:1008F0000175088101050819012905950575019102
:10090000029501750391010507190029FF150026BD
:10091000FF00950675088100C00011241FBECFEFAF
:10092000DAE0DEBFCDBF12E0A0E0B1E0E2E1F4E644
:1009300002C005900D92A030B107D9F713E0A0E0F6
:10094000B2E001C01D92A538B107E1F70E94EE2A7E
:100950000C9407320C94000080B38C7080BB81B380
:10096000836F81BB089584B1807F84B985B1807F16
:1009700085B98AB1837F8AB98BB1837F8BB93E9861
:1009800046980895CF93E82F873080F5809106012F
:1009900090910701892B09F047C0CE2F64E670E0E3
:1009A00080E40E9409069093070180930601892B39
:1009B000D1F464E670E082E10E9460069093070142
:1009C00080930601892B79F481E090E001C0880FC3
:1009D000CA95EAF764E670E080950E9460069093FD
:1009E000070180930601CF910C94B50690E0FC01BD
:1009F0003797E730F105C0F4EA5AFF4F0C94803086
:100A0000209A289811C0219A29980EC0229A2A98D3
:100A10000BC0239A2B9808C0529A5A9805C0539A33
:100A20005B9802C03E9A4698CF910895CF93873045
:100A300008F03FC08091060190910701892B09F0D1
:100A400041C064E670E080E40E94090690930701CB
:100A500080930601892B11F0C0E027C064E670E0A6
:100A600083E10E9460069093070180930601892B21
:100A700099F764E670E081E40E940906909307010B
:100A800080930601892B41F784E690E00E9490064E
:100A900097FF05C09093070180930601DDCFC82F13
:100AA000C09510920701109206010E94B5068C2F86
:100AB0000AC09FB18FB1807F869586959370892BF0
:100AC000809501C080E0CF91089508950C9465054C
:100AD0000E94270790E090930701809306010E94EF
:100AE000B3040E94AC04AFE0B2E0E1E0F2E08EE0DB
:100AF0008E0F11921D928E13FCCF8EE00E94630D1B
:100B00000C94A2080E94270790E09093070180931D
:100B100006010E94B3040E94AC04E1E0F2E08EE022
:100B20008E0F11928E13FDCF0895CF92DF92EF9228
:100B3000FF920F931F93CF93DF93809106019091C3
:100B40000701892B91F0809100028F5F8093000252
:100B500081110BC00E94270790E0909307018093BA
:100B60000601892B11F40E94B9069FE0E92E92E05C
:100B7000F92E06E112E0C0E0D12C87E0C82ECC0EA1
:100B80008C2F0E94C2048C2D0E94C2048C2F0E94C4
:100B90001605F7019081981719F08083D1E001C004
:100BA000D0E08C2D0E941605F8019081981719F05D
:100BB000808381E001C080E0D82BDD2A0E94B3044D
:100BC000CF5FFFEFEF1AFF0A0F5F1F4FC730A9F685
:100BD0002D2D4EE061E072E08FE092E00E94CF0D9B
:100BE0000E94AC0881E0DF91CF911F910F91FF909F
:100BF000EF90DF90CF900895E82FF0E0EF5FFD4F8A
:100C00008081089508951092B9008CE08093B80017
:100C10000895EF92FF920F931F93CF93DF93182FB6
:100C2000EB011092BC0084EA8093BC000E94772400
:100C30007C019091BC0097FD0EC0CF3F8FEFD8078D
:100C4000C1F30E9477248E199F098C179D0788F3A2
:100C50008EEF9FEF2EC09091B900987F983041F0B1
:100C60009091B900987F903119F08FEF9FEF21C0DC
:100C70001093BB0084E88093BC000E9477248C0111
:100C80009091BC0097FD0CC0CF3F8FEFD807C1F308
:100C90000E947724801B910B8C179D0788F3D8CF77
:100CA0008091B900887F883111F08034F1F680E0BE
:100CB00090E0DF91CF911F910F91FF90EF900895F9
:100CC0000F931F93CF93DF93EB018093BB0084E8D6
:100CD0008093BC000E9477248C019091BC0097FD0A
:100CE0000EC0CF3F8FEFD807C1F30E947724801B3F
:100CF000910B8C179D0788F38EEF9FEF0CC020910E
:100D0000B900287F81E090E0283211F480E090E083
:100D1000919581959109DF91CF911F910F91089540
:100D20000F931F93CF93DF93EC0184E88093BC0073
:100D30000E9477248C019091BC0097FD0EC0CF3F9C
:100D40008FEFD807C1F30E947724801B910B8C177B
:100D50009D0788F38EEF9FEF03C08091BB0090E06A
:100D6000DF91CF911F910F91089584E98093BC008A
:100D7000089556985E9825982D9826982E9827982D
:100D80002F988FEF90E09093890080938800909344
:100D90008B0080938A0090938D0080938C00259A1D
:100DA0002D9A2FEF80E792E0215080409040E1F7AC
:100DB00000C00000269A2E9A2FEF80E792E0215083
:100DC00080409040E1F700C00000279A2F9A2FEF53
:100DD00080E792E0215080409040E1F700C00000A1
:100DE00025982D982FEF80E792E021508040904089
:100DF000E1F700C0000026982E982FEF80E792E0E0
:100E0000215080409040E1F700C0000027982F98C3
:100E100056985E9825982D9826982E9827982F9862
:100E2000089589EA8093800089E080938100249866
:100E30002C983F988AB18F7C8AB96E98479A8BB16B
:100E400080638BB9769A0E94B9060C94BD0780E244
:100E500090E0909307018093060180911D0281111B
:100E60000EC00E94030681E080931D022FEF83EDE8
:100E700090E3215080409040E1F700C0000064E61C
:100E800070E080E40E9409069093070180930601B8
:100E9000892B09F04EC064E670E080E00E94600695
:100EA0009093070180930601892B09F042C064E604
:100EB00070E080E00E946006909307018093060135
:100EC000892BB9F564E670E08FE30E946006909389
:100ED000070180930601892B61F50E94B50664E63F
:100EE00070E080E40E940906909307018093060158
:100EF000892BF9F464E670E08CE00E946006909320
:100F0000070180930601892BA1F464E670E080E07C
:100F10000E9460069093070180930601892B49F493
:100F200064E670E08FE30E9460069093070180936F
:100F300006010E94B5068091060108959C01FB01FF
:100F400082818823C1F0253FFCE53F0751F0263F11
:100F50009CE5390759F0243F3C4571F40E94632316
:100F600008C086EE91E00E949F0803C081E00E94C5
:100F70007A1380E0089581E008950895CF92DF927A
:100F8000EF92FF926B017C0156985E9825982D9800
:100F900026982E9827982F980E94992290E08830C2
:100FA0009105C8F4FC01E35AFF4F0C9480300E9475
:100FB0008F1311C0259A2D9A0EC0259A2D9A269A24
:100FC0002E9A09C0259A2D9A04C0259A2D9A269A00
:100FD0002E9A279A2F9AC701B601FF90EF90DF90C3
:100FE000CF90089581E008950C949E071F93CF93AE
:100FF000DF9300D000D01F92CDB7DEB749835A836C
:101000002091560289819A81211112C0662349F0EC
:101010000E946621182F682F89819A810E940921D8
:1010200003C00E943921182F69817A81812F04C061
:101030000E94662169817A810F900F900F900F9026
:101040000F90DF91CF911F910C94E40AFC01408135
:1010500051816281738184810C94F6071F93CF9331
:10106000DF93282F30E0F901E550FC4F1491F9018E
:10107000E550FB4FE491C1E0E11101C0C0E0F9018E
:10108000E558FB4F2491D1E0211101C0D0E0CC23E1
:1010900019F081EE0E947A17DD2319F086EE0E9486
:1010A0007A17812F0E941B19DD2319F086EE0E940A
:1010B000B318CC2331F081EEDF91CF911F910C94C6
:1010C000B318DF91CF911F9108950F931F93CF9382
:1010D000DF93EC01062FFE018491882359F19E01D4
:1010E0002F5F3F4F813041F4E901F9011491812FC5
:1010F0000E947A17812F0DC0823031F4E901F90185
:1011000084910E947A170AC0833031F4E901F90111
:1011100084910E94B31802C00E942E082196802F4D
:101120008823C9F2EFE9FFE03197F1F700C0000032
:101130008150F6CFDF91CF911F910F91089560E01C
:101140000C9465080E94E922811102C00E94632369
:101150000E94270E0C9411070C946605282F2F70FF
:1011600041F0822F90E02A3010F44D9608950697B2
:10117000089587E290E0089508950C94BC080C94BB
:10118000BD0808950E94301C0E94C1082FEF84E31F
:101190009CE0215080409040E1F700C000000C949A
:1011A000D3240F931F93CF93DF938C010E942608C3
:1011B000EC01B8010E94F407882309F4FBC1B801CF
:1011C000CE010E94A60E882309F4F4C1B801CE0115
:1011D0000E948615882309F4EDC1CA3CFCE5DF07AF
:1011E00041F4F8018281882309F4E4C10E948E1140
:1011F000E1C1CB3C8CE5D80708F00FC1C33C9CE5AE
:10120000D90761F4F8018281882309F4D3C10E94CF
:10121000E6218272E1F00E947713CCC1C43CECE578
:10122000DE07C0F0C63C9CE5D90709F4C7C008F04A
:10123000D9C0C43CFCE5DF0709F0C8C0F8018281D1
:10124000882309F4B7C10E94E621827221F30E942B
:101250006A13B0C1C531FCE5DF0708F078C0C230C1
:101260008CE5D80708F452C0F8018281882309F47C
:1012700054C00E94E922811102C00E9463230E948F
:10128000FC2290E09093730380937203FE01E3507D
:10129000FC45E231F10530F4EB59FF4F80917203C8
:1012A0000C94803080917203816027C0826025C0D9
:1012B000846023C0806121C080621FC080641DC023
:1012C00080681BC08460886018C08E7F16C08D7FC8
:1012D00014C08B7F12C08F7E10C08F7D0EC08F7B9D
:1012E0000CC08F770AC08B7F877F07C087FB2227C0
:1012F00020F991E0922790FB87F980937203809107
:1013000072030E9400230E94301C54C1C1159CE549
:10131000D90751F0C130DC4579F0C801DF91CF9198
:101320001F910F910C94F207F8018281882309F430
:1013300041C10E94C2083EC1F8018281882309F49C
:1013400039C18091F50281608093F50233C1C631C5
:10135000FCE5DF0739F50E94E621282FF80182819C
:101360004091160150911701882379F02A7A91E073
:1013700009F490E090931E02911102C069E201C04D
:1013800065E3CA010E94CA230AC080911E0281112E
:1013900002C069E201C065E3CA010E94D5230E9430
:1013A000352208C1C23CDC4509F0B7CFF801828183
:1013B000882309F4FFC00E948513FCC0F8018281D4
:1013C000882309F4F7C00E945211F4C0C53CDC45E3
:1013D00009F0A3CFF8018281882309F4EBC00E94B1
:1013E0004511E8C0F8018281C83CFCE5DF0731F413
:1013F000882309F4DFC00E947011DCC0C93CDC45C1
:1014000030F4882309F4D6C00E946111D3C0882328
:1014100009F4D0C00E947F11CDC0C13DECE5DE07CC
:1014200091F4F8018281882309F4C4C00E94C20F9C
:101430008F3028F00E94C20F843108F408CF8FE06B
:101440000E947A13B7C0C23DFCE5DF0708F05AC01E
:10145000CD3C8CE5D80739F4F8018281882309F462
:10146000A9C081E0EDCFCE3C9CE5D907C0F4CB3CD0
:10147000ECE5DE0741F4F8018281882309F49AC083
:101480000E94CA0F97C0CC3CDC4509F046CFF8015A
:101490008281882309F48EC00E94DB0F8BC0F80183
:1014A0008281CF3CFCE5DF0771F4882309F482C018
:1014B0000E94C20F863028F00E94C20F883008F4C4
:1014C000C6CE86E0BDCFC03DDC4570F4882309F46C
:1014D00071C00E94C20F823028F00E94C20F853076
:1014E00008F4B5CE82E0ACCF882309F463C00E9433
:1014F000C20F893028F00E94C20F8E3008F4A7CEA8
:1015000089E09ECFC53DECE5DE0739F4F801828124
:10151000882309F44FC083E293CFC63DFCE5DF0783
:1015200040F5F8018281C33DFCE5DF0729F48823FB
:1015300009F440C088E184CFC43DDC4568F48823C9
:10154000C9F10E94C20F853128F00E94C20F873175
:1015500008F47DCE85E174CF882361F10E94C20F2B
:10156000893128F00E94C20F823208F470CE89E1DE
:1015700067CFCD3DECE5DE0741F4F8018281882399
:10158000C9F082E00E948F2B15C0CE3DFCE5DF073D
:1015900039F4F8018281882369F00E9463230AC02C
:1015A000CC3DDC4509F0B9CEF8018281882311F0E9
:1015B00080E0E8CF80E0DF91CF911F910F910895F7
:1015C00080E090E00895089596E0799FF00111245D
:1015D00094E5899FE00DF11D1124E60FF11DEE0F3A
:1015E000FF1FED5FFD4F859194910895880F991F1E
:1015F000FC01E558FA4F859194910895CF93DF93BC
:101600000E94E40A0E94C30CEC01811520E59207B8
:10161000F0F5811530E4930708F029C1883E910563
:1016200000F5803E910508F0AAC1883A910570F452
:10163000853A910508F0A4C08130910509F49FC155
:1016400008F450C1049708F09AC14CC18F3B910532
:1016500008F4A1C0803C910508F444C1805C910964
:10166000F9C0811540E2940758F4C11581E0D8070C
:1016700008F085C1C03FD10508F434C1D0657FC1F1
:10168000811520E3920708F0E9C09F70E3C081153F
:1016900035E5930708F044C0811544E5940708F048
:1016A000FDC0C11582E5D80708F5C11521E5D207AF
:1016B00008F0E0C08C2F837021E030E002C0220FE0
:1016C000331F8A95E2F73C68CE0174E096958795C2
:1016D0007A95E1F78370382BCF70C695C69540E2B6
:1016E000C49FE0011124C22BD32B49C12C2F269576
:1016F0002695CE0183709927C115D34508F0BFC048
:1017000040E2249F90011124C1E0D0E002C0CC0F40
:10171000DD1F8A95E2F72C2B3D2BE901DC682FC1F8
:1017200081154AE59407A0F4C11589E5D80708F0AA
:10173000C4C0C11526E5D20708F4B5C0C11538E507
:10174000D30708F4CFC0DC2FCC27C06FD06A17C1F5
:1017500081159B4508F4C6C0C1158CE5D80708F46F
:10176000BEC0CE0190568115904208F0BBC08D2FAF
:101770008F710E94400DDD27D0628F71D82BFFC082
:10178000853A910509F4B1C0863A910509F0B0C0D7
:10179000C2E8D0E4F4C0883A910509F4ACC0893AB3
:1017A000910509F4ABC08A3A910509F4AAC08B3AB5
:1017B000910509F4A9C08C3A910509F4A8C08B3BA6
:1017C000910509F4A7C08C3B910509F4A6C08D3A98
:1017D000910509F4A5C0803B910509F4A4C08E3A97
:1017E000910509F4A3C08F3A910509F4A2C0813B89
:1017F000910509F4A1C0823B910509F4A0C0833B87
:10180000910509F49FC0843B910509F49EC0853B76
:10181000910509F49DC0863B910509F49CC0873B66
:10182000910509F49BC0883B910509F49AC0893B56
:10183000910509F499C08D3B910509F498C08E3B40
:10184000910509F497C08A3B910509F496C0C0E060
:10185000D4E495C00E94F60AEC0191C09927D3FF09
:1018600003C0EC01D86C8BC0EC01D06C88C0DF7079
:10187000D06A85C0DC2FCC27C16FD06A80C040E21F
:10188000249F90011124C1E0D0E002C0CC0FDD1FE5
:101890008A95E2F7C22BD32BDA6871C0D82FCC27F8
:1018A000C46FD06A6CC08C2F0E94400D8F71C82FFE
:1018B000D0E0DC2FCC27D06262C08C2F8F700E94CA
:1018C000400D94E0D695C7959A95E1F7CF70D0E09A
:1018D000DC2FCC27D06A8F70806EC82B50C0DD27DC
:1018E000D0664DC0C0E0D0E04AC0C1E8D0E447C0F7
:1018F000C3E8D0E444C0C2EED4E441C0C9EED4E4AD
:101900003EC0CAEED4E43BC0C5EBD4E438C0C6EB5D
:10191000D4E435C0C3EBD4E432C0C4EBD4E42FC06C
:10192000C7EBD4E42CC0CCECD4E429C0CDECD4E497
:1019300026C0C3E8D5E423C0CAE8D5E420C0C2E984
:10194000D5E41DC0C4E9D5E41AC0C1E2D6E417C08D
:10195000C3E2D6E414C0C4E2D6E411C0C5E2D6E4C2
:101960000EC0C6E2D6E40BC0C7E2D6E408C0CFE69C
:10197000D4E405C0C0E7D4E402C0CAE2D6E4CE0194
:10198000DF91CF9108958238910549F1B0F4813308
:10199000910509F458C048F48932910509F44EC004
:1019A0008A32910509F454C008958533910509F4EC
:1019B00040C08933910599F00895833E910529F13E
:1019C00038F4803E910591F0823E9105A1F0089592
:1019D000863E9105F9F0873E910531F108952091F9
:1019E000720320FD3AC021FD38C008958091720332
:1019F00080FD35C032C08091720382FF32C0809179
:101A0000720384FD30C083EE39C08091720382FD81
:101A100028C0F5CF8091720383FF27C080917203A5
:101A200084FD21C087EE2AC08091720383FD1DC012
:101A3000F5CF8091720385FD1AC01BC0809172039F
:101A400085FD17C014C08091720386FD14C015C0B7
:101A50008091720386FD11C00EC080EE0FC089E335
:101A60000DC082EE0BC080E009C086EE07C089E29F
:101A700005C085E303C08AE201C081E390E00895D8
:101A80009091720392FF0DC0282F2871283019F40D
:101A9000877F846006C0282F2471243011F48B7F47
:101AA000886093FF0DC0282F2871283119F4877E94
:101AB000846106C0282F2471243111F48B7E886143
:101AC00094FD877E0895CF93C82F90E00E948630C2
:101AD0008093200290932102282FFC019BEF8E2FF0
:101AE000821B8C1710F49193FACFCF9108950F9326
:101AF0001F93CF93DF9310921F0250912002E52F86
:101B0000F091210240E0A62FB0E07BEFCAEFD0E0D9
:101B10009E2F951B9817D0F490819B3FA9F0292FF9
:101B200030E0691728F08D01021B130B980106C0E5
:101B30008E01021B130B98012A0F3B1F2530310524
:101B400014F0708301C041E03196E2CF40931F0250
:101B5000DF91CF911F910F910895CF93DF93509113
:101B6000200230911F02DB01E52FF09121026E2F40
:101B7000651B641778F47C91EC016991CE01C081FA
:101B8000CB3F29F4761719F020836C9331E031961E
:101B90001196EDCF30931F02DF91CF910895DF9220
:101BA000EF92FF920F931F93CF93DF9300D0CDB7A7
:101BB000DEB78C017B01D22E4A830E9477246AEF24
:101BC00070E00E945830282F80911F024A8188239C
:101BD000D9F0622F842F29830E94770D29814A81B1
:101BE000DD2069F0B701C8010F900F90DF91CF9110
:101BF0001F910F91FF90EF90DF900C94AD0D8091AD
:101C00001F02882379F302C0D110ECCF0F900F9000
:101C1000DF91CF911F910F91FF90EF90DF9008958A
:101C2000CF93DF93813020E8920768F0FB01228197
:101C3000222349F0EC010E943D0ECE019F770E94C5
:101C4000890E0E94720E81E0DF91CF9108958CE0A1
:101C500090E00E94C03190E0A0E0B0E080932703C4
:101C600090932803A0932903B0932A0308956091C9
:101C700027038CE090E00C94D4310E94E6218093FD
:101C800022020E94F92180912703813071F048F0EF
:101C90008230D9F08430F9F486EE0E941B1988E175
:101CA00018C082EE0E947A1716C080EE0E947A1742
:101CB00081EE0E947A1788E10E941B1981EE0E9432
:101CC000B31880EE0E94B31806C082EE0E947A1705
:101CD00087E50E941B198FE39CE90197F1F700C08B
:101CE0000000089580912703813039F040F0823060
:101CF00031F0843051F488E206C08CE204C082EEF8
:101D00000E94B31802C00E941B19809122020C94F9
:101D1000F6210F931F93CF93DF938C01CCE0D0E09B
:101D2000C8010C2E02C0969587950A94E2F78F7031
:101D30000E94AE080E941B192497CC3F8FEFD80752
:101D400079F7DF91CF911F910F9108950F931F9312
:101D5000CF93DF93EC018B01FB018281882319F182
:101D6000C33EFCE5DF07C1F050F4C13EECE5DE0701
:101D700081F0C23EFCE5DF07B1F481E010C0C43E53
:101D80008CE5D80759F0C53EECE5DE0761F484E048
:101D900006C01092270305C082E001C083E0809353
:101DA00027030E94370EB801CE01DF91CF911F911A
:101DB0000F910C94100ECF92DF92EF92FF920F933F
:101DC0001F93CF93DF93D62E472FE82FF82F711153
:101DD00003C0682F782F7CC0072F10E0E82EF12C6D
:101DE00026E0629FC0011124CFEFD0E0BE010E9427
:101DF00058309B015BEA5603C001579F900D112498
:101E00008D0D911D8D0D911D982F990F980F6E01BD
:101E1000C01AD10AB701C69ED001C79EB00DD69E8A
:101E2000B00D11248B2F949FA0011124452F55270D
:101E30007E01E41AF50AE69EA001E79E500DF69E8B
:101E4000500D11246E01C91AD108C09E7001C19EA7
:101E5000F00CD09EF00C11240F2D1127C01BD10BBC
:101E6000C69F8001C79F100DD69F100D1124712FA2
:101E70002230310591F04CF421153105D9F0213093
:101E80003105B1F47E2FE52F15C02430310561F006
:101E900044F02630310571F00BC0EB2F812F7F2FDE
:101EA00009C0752FEB2F02C0E12F7B2F8F2F02C0AF
:101EB0007B2F852FF0E0EE56F94F6491E72FF0E08D
:101EC000EE56F94F7491E82FF0E0EE56F94F8491F9
:101ED000DF91CF911F910F91FF90EF90DF90CF9006
:101EE00008950895CF93DF93762FE901682F842F0B
:101EF0000E94DB0E698378838A83DF91CF910895F6
:101F000080912B03282F269530E02115310519F4F7
:101F10008170826005C02532310524F081708864AB
:101F200080932B03089588E090E00C94C831CF9300
:101F3000DF9300D000D0CDB7DEB7AB01BC01498341
:101F40005A836B837C830E94800F49815A816B8105
:101F50007C8188E090E00F900F900F900F90DF91C0
:101F6000CF910C94E531EBE2F3E083E080831182C2
:101F70008FEF828383831482608171818281938158
:101F80000C94970F80912B0380FF02C086950895D3
:101F900080E0089580912F03833018F48F5F809341
:101FA0002F0360912B0370912C0380912D0390914E
:101FB0002E030C94970F80912F03882319F08150E2
:101FC00080932F0360912B0370912C0380912D033C
:101FD00090912E030C94970F8091260224E0829F0B
:101FE000C0011124805D9C4F60910A0170E0209136
:101FF0002B0320FD0DC020E030E0F901E05DFC4F37
:102000001182108212822C5F3F4F2C333105A9F7C9
:102010000C94E51490912B0390FF0FC020E030E06A
:10202000F901E05DFC4F8183608342832C5F3F4F69
:102030002C333105A9F70C94EC0F0895CF93DF935F
:1020400000D000D0CDB7DEB790912B0390FF0AC02F
:102050009E012F5F3F4F0E94720F4B8169818A81E1
:102060000E940A100F900F900F900F90DF91CF9168
:102070000895CF93DF93EC01EC81F0E0E357FA4F42
:102080004491EBE2F3E0628181810E941E108C8119
:102090008F5F8C83DF91CF910895CF93DF93EC0115
:1020A000EBE2F3E0438162818C810E941E108C81FF
:1020B0008F5F8C83DF91CF9108950F931F93CF9300
:1020C000DF9300D000D0CDB7DEB78C018091230222
:1020D00081110AC09E012F5F3F4F4FEF6FEF0E94AB
:1020E000720F8A8180932302F8018481813051F03C
:1020F00028F0823061F4409123020AC080912302CB
:1021000040E007C06091230240E080E003C040E06F
:1021100080E060E00E940A10F801248130E0C901EB
:10212000019663E070E00E946C3084830F900F9002
:102130000F900F90DF91CF911F910F9108955F92B3
:102140006F927F928F929F92AF92BF92CF92DF92C7
:10215000EF92FF920F931F93CF93DF9300D000D0A5
:10216000CDB7DEB7182F762E042F622E90912B0359
:1021700090FF6DC0E92FE695AE2FB0E0A053BE4FA3
:102180008C9180932E029E7F923061F49E012F5F8E
:102190003F4F812F0E94720F4B8169818A810E947B
:1021A0000A1043C0823019F400912E033EC08630DD
:1021B00019F410912C0339C08930D9F38931A9F56C
:1021C000E9518E2F8170582EE695F0E0E357F94FD4
:1021D000A590B49080E3C82E83E0D82EE12CF12C9A
:1021E000BB249FE0892E912CEA9CC001EB9C900DB2
:1021F000FA9C900D1124B4010E945830812F511087
:1022000002C0860F01C0861B9601402F672D0E94D9
:10221000720F8FEFE81AF80A84E0C80ED11C8FE025
:10222000E816F10409F70E94EC0F10932C0370924A
:102230002D0300932E03662051F060912B037091C3
:102240002C0380912D0390912E030E94970F0F90E5
:102250000F900F900F90DF91CF911F910F91FF90F2
:10226000EF90DF90CF90BF90AF909F908F907F9036
:102270006F905F900895EBE2F3E09181282F438106
:1022800062818CE0890F0C949F1081E00C943B11CB
:10229000EBE2F3E09181282F4381628184EF890F83
:1022A0000C949F1081E00C944811EBE2F3E0628102
:1022B0002FEF620F08F46FEF282F438181810C9478
:1022C0009F1081E00C945511EBE2F3E062812FEF57
:1022D000621B08F460E0282F438181810C949F10D9
:1022E00081E00C946411EBE2F3E043812CE0420FB7
:1022F00008F44FEF282F628181810C949F1081E0B8
:102300000C947311EBE2F3E043812CE0421B08F4E0
:1023100040E0282F628181810C949F1081E00C9411
:10232000821120E00C949F10EF92FF921F93CF93A5
:10233000DF93EC0180E3E82E83E0F82E10E08C813F
:10234000970140912E0360912D03810F0E94720F1F
:102350001F5E84E0E80EF11C1F3F89F70E94EC0F1E
:102360008A819C8180FF02C09F5F01C091509C8345
:10237000DF91CF911F91FF90EF900895AF92BF92A0
:10238000CF92DF92EF92FF920F931F93CF93DF9341
:10239000FC01828180FF03C0BB24BA9402C0BB242D
:1023A000B39420E3E22E23E0F22E02E313E0C0E038
:1023B000D0E0F80131971082F7011082F801108205
:1023C00094E0C92ED12CA12C809125028A0D87FD85
:1023D000815F992787FD9095C817D90791F480915F
:1023E0002E038C9DA0018D9D500D11245595479570
:1023F00055954795970160912D0380912C030E947C
:10240000720FAB0CF1E0CF1AD108F1F6219684E0FF
:10241000E80EF11C0C5F1F4FCF30D10551F60E9422
:10242000EC0F8091250291E0B91206C0811102C023
:102430008EE007C0815005C090E00196BE010E9469
:102440006C3080932502DF91CF911F910F91FF9007
:10245000EF90DF90CF90BF90AF9008950F931F93B0
:10246000CF93DF9380E090E0FC01E05DFC4F1182B0
:102470001082128204968C339105B1F7C0E0D0E04F
:102480000FE010E0CE01B8010E946C30FC01809199
:102490002402992787FD9095EE0FFF1FEE0FFF1F77
:1024A000C817D907A4F080910901992787FD909555
:1024B0008C179D0764F09F01205D3C4F40912E03D7
:1024C00060912D0380912C030E94720F05C0E05D86
:1024D000FC4F1182108212822196CF30D10591F6E5
:1024E0000E94EC0F8091080190912402980F909324
:1024F000240220910901280F20930901121614F4D7
:102500009E301CF0819580930801DF91CF911F913F
:102510000F910895EF92FF920F931F93CF93DF9344
:10252000EC012C813D812F5F3F4F217033273D838C
:102530002C8380E3E82E83E0F82E10E005E5812F60
:1025400086954C815D81480F511D842F81709701C4
:1025500040912E0360912D03809F802D11240E94B5
:10256000720F1F5F84E0E80EF11C1F3041F7DF910E
:10257000CF911F910F91FF90EF900C94EC0FEF9281
:10258000FF920F931F93CF93DF937C01C0E3D3E0BF
:1025900000E010E0F7018481073011051CF4882366
:1025A00039F002C0811104C09E0140912E0302C087
:1025B0009E0140E060912D0380912C030E94720FD8
:1025C0000F5F1F4F24960F30110521F70E94EC0F6B
:1025D000F701248130E02F5F3F4F217033272483A0
:1025E000DF91CF911F910F91FF90EF900895EBE253
:1025F000F3E080818E7F808360817181828193810D
:102600000E94970F10922F022FEF80E792E0215047
:1026100080409040E1F700C000000C94EC0F609106
:102620002B03669570E04BE050E08BE091E00E9458
:10263000B331892B19F481E080932F020E94772413
:102640009093280280932702089590912B0390FF86
:1026500035C09170811102C0926006C0853210F0C1
:10266000986402C0880F982B90932B03662351F037
:1026700060912B0370912C0380912D0390912E0378
:102680000E94970F60912B03669570E04BE050E03D
:102690008BE091E00E94B331892B19F010922F0248
:1026A00002C00E940F1381E080932A0240912E0302
:1026B00060912D0380912C030C9491110895682F43
:1026C00090912B03969581E0890F853208F081E087
:1026D0000C94251381E00C945F13682F90912B03C9
:1026E00096958FEF890F09F484E20C94251381E00D
:1026F0000C946D1361E00C942513EBE2F3E0808100
:102700008160808386950C947A1380912B0380FDE1
:102710000C94F7120C947D1360E00C9425138091B7
:102720002D02811133C08091F50281608093F50202
:102730000E94E922811104C00E9463230E94B30F0A
:102740000E94930F60932B0370932C0380932D03AF
:1027500090932E036E7F61F40E94B30F0E94930F3B
:1027600060932B0370932C0380932D0390932E037F
:102770000E94800F10922F0280912B0380FF03C0D4
:1027800086950E948C1381E080932D0208950F930B
:102790001F93CF93DF9380912F02882309F48CC07D
:1027A00080912E02E0912B03E695E81BE09329022D
:1027B000823049F4F0E0E757FA4FE491CE2FD0E0B1
:1027C00009E310E149C0863049F4F0E0EA57FA4FD6
:1027D000E491CE2FD0E00DE410E13EC0893051F4F9
:1027E000E695F0E0ED57FA4FE491CE2FD0E004E902
:1027F00011E132C08F3051F4E695F0E0E058FA4F25
:10280000E491CE2FD0E00EEB11E126C0853149F4E2
:10281000F0E0E358FA4FE491CE2FD0E00EE212E15F
:102820001BC0883181F0833239F4EBE7F5E0C591C4
:10283000D4910DE510E110C0843251F4C4EFD1E021
:102840000FEB12E109C0C8EED3E00AE812E104C0C0
:10285000C0EDD7E001E71FE080912A02882389F0CC
:1028600010922A020E9477249E0120953095820FB3
:10287000931F909328028093270210922C021092AB
:102880002B0280912702909128020E9483248C17AA
:102890009D0790F0E0912702F0912802CE0FDF1FF4
:1028A000D0932802C093270287E292E0F801DF91DB
:1028B000CF911F910F910994DF91CF911F910F91AB
:1028C0000895882319F05198599A02C0519A59983D
:1028D0005098589A95E09A95F1F70000509A5898B8
:1028E00095E09A95F1F70000882311F0519A5998D4
:1028F00085E08A95F1F7000008958BB18C7F8BB944
:102900005098589A5198599A85E08A95F1F70000A5
:1029100008958AB18C7F8AB985E08A95F1F7000025
:10292000519A599885E08A95F1F70000509A589885
:1029300085E08A95F1F7000008955098589A85E04F
:102940008A95F1F700005198599A85E08A95F1F738
:1029500000000895CF93DF93D82FC8E08D2F8078A3
:102960000E946114DD0FC150C9F780E00E9461141C
:1029700085E08A95F1F7000085E08A95F1F700007F
:1029800080E0DF91CF9108952BB1342F3095232330
:102990003BB1432B3FB7F894FC01680F791FE61752
:1029A000F70789F0819198E04BB9000000C087FFDC
:1029B0002BB9880F000000C000C000C02BB900C0B8
:1029C0009A9591F7ECCF3FBF0895AF92BF92CF9207
:1029D000DF92EF92FF920F931F93CF93DF938C01BF
:1029E000EB01CFB6D090BC00F8948091BC008B7FF7
:1029F0008093BC000E947D140E94891484E80E9488
:102A0000AA14CC0FDD1FCC0FDD1F78015801AC0ECE
:102A1000BD1EEA14FB0431F0F70181917F010E9491
:102A2000AA14F7CF0E949D14CFBED092BC00579A33
:102A300040E8BE01C801DF91CF911F910F91FF9037
:102A4000EF90DF90CF90BF90AF900C94C4140F9391
:102A50001F93CF93DF93C62FD42F022FFC018281C7
:102A600010E2160F8823B9F0609332020E94772497
:102A70009093310280933002183008F042C0C77042
:102A800081E001C0880FCA95EAF7DF91CF911F91CD
:102A90000F910C942319183048F481E0962F977009
:102AA00001C0880F9A95EAF70E942A198091320294
:102AB0008C1327C080913002909131020E948324B0
:102AC000883C9105F0F4C0E2CD0FC83048F481E0B5
:102AD0009D2F977001C0880F9A95EAF70E942319DD
:102AE000802F0E941B19C83060F4D77081E001C0AC
:102AF000880FDA95EAF7DF91CF911F910F910C942F
:102B00002A19DF91CF911F910F9108959C01CB015C
:102B1000203F4CE5340719F178F4283D4CE53407A3
:102B2000B9F0293D4CE5340731F1273D3C4531F5FD
:102B300026E241EE61EE0FC0223F4CE53407B9F0CA
:102B400090F0233F3C45D1F427E246EE66EE03C009
:102B500027E245EE65EE0E94271580E0089526E203
:102B600040EE60EEF8CF27E244EE64EEF4CF26E2CA
:102B700042EE62EEF0CF28E241E0ECCF109232025A
:102B800081E0089590933802809337020895E09190
:102B90003702F0913802309721F00190F081E02D5A
:102BA000099480E00895E0913702F091380230975F
:102BB00099F020912701222359F02091720327FFD9
:102BC00007C0DC012C9111962C93119725E02C93D2
:102BD0000280F381E02D09940895E0913702F0918D
:102BE0003802309739F022E0DC012C930480F58123
:102BF000E02D099408952091350230913602821714
:102C0000930771F09093360280933502E09137027A
:102C1000F0913802309721F00680F781E02D099479
:102C2000089520913302309134028217930771F096
:102C30009093340280933302E0913702F09138028E
:102C4000309721F00084F185E02D0994089585B72F
:102C5000806885BF85B7806885BF08950895089509
:102C60000C942F1608950C9432160E9427160E9479
:102C70002E160C94301681E008950E946E240E9456
:102C800068050E9405250E948F130C943316CF927D
:102C9000DF92EF92FF920F931F93CF93DF93CDB705
:102CA000DEB72B970FB6F894DEBF0FBECDBF0E94E4
:102CB00095050E943B16811111C08FEF89838A838D
:102CC0001B820E9477248160782F9D838C834981A9
:102CD0005A816B818D810E942B1756C08AE3C82EC2
:102CE00082E0D82E00E010E0E02E802F0E94FC054C
:102CF000F60141916F01F42EF82631F40F5F1F4F5A
:102D00000E30110589F7D9CF9091F50291FF04C0DB
:102D10008B870E9402068B8520E030E04F2D50E02B
:102D2000922FBA01022E02C0759567950A94E2F7B8
:102D300060FF24C02E83EF8221E030E0690102C0F1
:102D4000CC0CDD1C9A95E2F790E08C219D21892B1B
:102D500009F420E028870E9477248160782F9A87E1
:102D600089874E815F8168858A850E942B17F801CB
:102D7000E65CFD4F8081C826C08206C02F5F3F4FB2
:102D80002630310569F6BACF0E9498261091390293
:102D90000E94C7151817A1F00E94C7158093390229
:102DA0002B960FB6F894DEBF0FBECDBFDF91CF914B
:102DB0001F910F91FF90EF90DF90CF900C94BF0880
:102DC0002B960FB6F894DEBF0FBECDBFDF91CF912B
:102DD0001F910F91FF90EF90DF90CF900895DC014D
:102DE00011962C9111978C91682F70E041E050E082
:102DF00001C0440F8A95EAF712968C91129730E041
:102E0000882329F0809158028823E9F006C0F9014F
:102E1000E85BFD4F90819423B1F086E0829FF00142
:102E2000839FF00D1124E60FF71FEE0FFF1FE85DE3
:102E3000FE4F808191818D939C93F901E85BFD4F5A
:102E40008081482B06C0F901E85BFD4F40958081E9
:102E5000482340830895CF93DF93CDB7DEB72B97F8
:102E60000FB6F894DEBF0FBECDBF942F4F83252F32
:102E7000588769877A878B874A855B85452B21F040
:102E80002F3F09F59F3FF9F4DE01119686E0FD0121
:102E900011928A95E9F785E0FE01379601900D922F
:102EA0008A95E1F749815A816B817C818D819E8170
:102EB0000E94DA1E2B960FB6F894DEBF0FBECDBF70
:102EC000DF91CF910895CE0107960E94EF16DCCFD7
:102ED000FC01808191810E94A72192959F7096307C
:102EE00041F48091580291E0892780935802909391
:102EF00057020895CF93DF931F92CDB7DEB7882393
:102F000009F42DC1682F8238C1F40E94C71581FDD4
:102F100026C169E380911601909117010E94CA238E
:102F20000E9435222FEF81EE94E0215080409040A6
:102F3000E1F700C0000069E319C0833811F50E9471
:102F4000C71580FD0CC163E58091160190911701B2
:102F50000E94CA230E9435222FEF81EE94E0215077
:102F600080409040E1F700C0000063E580911601C9
:102F7000909117010E94D5230F90DF91CF910C946F
:102F800035228438C1F40E94C71582FDE8C067E489
:102F900080911601909117010E94CA230E94352248
:102FA0002FEF81EE94E0215080409040E1F700C087
:102FB000000067E4DBCF8CEF860F813A70F4862F38
:102FC00069830E94942869818111C9C0809116018A
:102FD000909117010E94CA23CFCF80E2860F8830DC
:102FE00048F4677081E001C0880F6A95EAF70E9493
:102FF000E921C2CF8BE5860F833088F4653A29F04A
:10300000663A31F083E890E005C081E890E002C0C4
:1030100082E890E00F90DF91CF910C94FB1588E54A
:10302000860F873108F091C0683A09F445C0693AC3
:1030300009F445C06A3A09F445C06B3A09F445C041
:103040006C3A09F445C06B3B09F445C06C3B09F48C
:1030500045C06D3A09F445C0603B09F445C06E3A7D
:1030600009F445C06F3A09F445C0613B09F445C015
:10307000623B09F445C0633B09F445C0643B09F475
:1030800045C0653B09F445C0663B09F445C0673B54
:1030900009F445C0683B09F445C0693B09F445C0E3
:1030A0006D3B09F445C06E3B09F445C06A3B09F429
:1030B00045C080E090E044C082EE90E041C089EEDF
:1030C00090E03EC08AEE90E03BC085EB90E038C0D7
:1030D00086EB90E035C083EB90E032C084EB90E06B
:1030E0002FC087EB90E02CC08CEC90E029C08DECD9
:1030F00090E026C083E891E023C08AE891E020C0F8
:1031000082E991E01DC084E991E01AC081E292E079
:1031100017C083E292E014C084E292E011C085E21D
:1031200092E00EC086E292E00BC087E292E008C017
:103130008FE690E005C080E790E002C08AE292E06E
:103140000F90DF91CF910C941116603F40F0862FC5
:103150000E94A0250F90DF91CF910C948D260F90A7
:10316000DF91CF910895882309F464C0823879F4FF
:103170000E94C71581FF5EC069E38091160190919E
:1031800017010E94CA230E94352269E310C08338C8
:10319000B1F40E94C71580FF4DC063E58091160110
:1031A000909117010E94CA230E94352263E5809105
:1031B0001601909117010E94D5230C943522843872
:1031C00079F40E94C71582FF35C067E4809116012B
:1031D000909117010E94CA230E94352267E4E7CF2D
:1031E0009CEF980F913A10F4682FE1CF90E2980F7E
:1031F000983050F4877091E001C0990F8A95EAF7F2
:10320000892F0E94EF21D9CF9BE5980F933020F4AE
:1032100080E090E00C94FB1598E5980F973120F42E
:1032200080E090E00C941116803F20F00E94082668
:103230000C948D260895CF93C82F0E947A178C2F57
:10324000CF910C94B318882321F00E94E9210C94AB
:1032500035220895882321F00E94EF210C94352215
:1032600008958F929F92AF92BF92DF92EF92FF925A
:103270000F931F93CF93DF937C01D62FC72FFC01B1
:10328000058102950F70128111110E9409220E947E
:10329000DF21882379F0112369F080E28D0F8830D7
:1032A00048F082E00E9480220E94DF2191E0D82E27
:1032B000D92601C0D12CAC2EA2948FE0A822B12C2B
:1032C000F501E958FF4F0C9480308C2F807FCF7030
:1032D000882311F0C295C07F112399F0CC2309F403
:1032E000C8C180E28D0F883010F0D11104C08C2F3E
:1032F0000E94E92103C08C2F0E94FC210E943522EC
:10330000B8C18D2F0E94B318CC2309F42EC280E2DD
:103310008D0F883010F0D11104C08C2F0E94EF2146
:1033200003C08C2F0E9402220E9435221EC28C2FC5
:10333000807FCF70803211F0C295C07FDD2319F0FD
:10334000D130C9F021C0112371F0002341F00130C8
:1033500031F40E941C228C2B0E94222206C20E9461
:103360001C228C2B3FC1002319F0013009F4FDC150
:103370000E942B2211C0112321F0023008F0F5C168
:1033800007C00111F2C108C0112321F0011171C160
:103390008C2F28C101117EC18C2F2AC18C2F8695BC
:1033A0008695837090E0009719F0019761F0DDC178
:1033B000112321F08D2F9C2F937002C080E090E0AC
:1033C0000E94FB15E2C1112321F08D2F9C2F9370D9
:1033D00002C080E090E00E941116D7C11123F9F0DD
:1033E000D53F51F0D63F71F0D43FA9F480916C03E2
:1033F00090916D0381600BC080916C0390916D037F
:10340000826005C080916C0390916D0384609093FD
:103410006D0380936C038D2F0E94A0251EC0D53FA5
:1034200051F0D63F71F0D43FA9F480916C03909194
:103430006D038E7F0BC080916C0390916D038D7F27
:1034400005C080916C0390916D038B7F90936D0309
:1034500080936C038D2F0E9408260E948D2695C1B3
:103460008C2F837009F050C011118BC18D2F829564
:1034700086958770880F880F9D2F9F70892E912CBD
:10348000A12CB12C082E04C0880C991CAA1CBB1CB2
:103490000A94D2F7D4FF14C00FE010E020E030E02F
:1034A000B901A80104C0440F551F661F771F8A95F4
:1034B000D2F7CB01BA01609570958095909503C0C5
:1034C00060E070E0CB01C695C695C370D0E0C23015
:1034D000D10561F0C330D10581F0682979298A29A5
:1034E0009B29219771F00E941F204BC168297929DF
:1034F0008A299B290E94312044C10E941F20C501B6
:10350000B4010E940D203DC1112319F08C2F817050
:1035100001C08695882309F434C18D2F8295869544
:103520008770880F880F9D2F9F70892E912CA12C5A
:10353000B12C082E04C0880C991CAA1CBB1C0A9430
:10354000D2F7D4FF14C00FE010E020E030E0B90162
:10355000A80104C0440F551F661F771F8A95D2F734
:10356000CB01BA01609570958095909503C060E09D
:1035700070E0CB01C695C695C3704C2F50E0423029
:10358000510569F04330510589F0682979298A2964
:103590009B294130510571F00E94E420F2C0682956
:1035A00079298A299B290E94F620EBC00E94E420F9
:1035B000C501B4010E94D220E4C08D2F90E0FC012F
:1035C000E05EF109E531F10508F04FC0E957FF4F22
:1035D0000C948030DF708C2F8F71112331F00E949A
:1035E0006B208D2F0E942319C0C00E948C208D2F2C
:1035F0000E942A19BAC0112339F00111B6C08C2FCC
:103600008F710E94B120B1C0023008F0AEC0F7CF78
:10361000112339F08C2F8F710E946B20A6C01123CB
:10362000C9F38C2F8F710E948C209FC0112329F029
:103630008C2F8F710E94562098C00E94512095C0F7
:10364000112349F0CF718C2F0E946B2063E08C2FE7
:103650000E946B228AC081E00E948022023008F41E
:1036600084C082E00E94802280C0112331F00023B8
:1036700089F28D2F0E947A1778C0002391F2D933F6
:1036800049F45FEF67EE73E0515060407040E1F73E
:1036900000C000008D2F0E94B31867C04C2F4F70E0
:1036A0006D2FC7010E94E00A0E947E1F6EC0D23FAC
:1036B000B1F028F4D03F49F0D13FF9F028C0D43F11
:1036C000B9F058F0D53F71F022C0112309F447C07A
:1036D0009091580281E0892708C081E01827109353
:1036E00058023DC011113BC081E08093580237C0A1
:1036F000111135C01092580232C0112329F0809167
:103700005702882329F329C0002311F328C0809190
:1037100057020023C1F0882341F09091580281E0C4
:10372000892780935802109257028D2F112319F088
:103730000E947A1714C00E94B31886E0F701119214
:103740008A95E9F70CC0882351F0111108C09091B7
:10375000580281E0892780935802109257024C2F1B
:103760004F706D2FC7010E94E30AF8E0AF16B10455
:1037700041F05CF04AE0A41AB10852E0A516B10489
:1037800020F40E94C7150E94BF08DD20E1F00E94CE
:10379000DB2180FD18C0F70112820E94D5210E9412
:1037A0006B20C7010E94EF1B0E94D521DF91CF91B2
:1037B0001F910F91FF90EF90DF90BF90AF909F907F
:1037C0008F900C948C20DF91CF911F910F91FF90DF
:1037D000EF90DF90BF90AF909F908F9008950F93E0
:1037E0001F93CF93DF93EC01888199812B813C81DA
:1037F000232BB9F09F3F11F48F3F99F0CE010E9427
:10380000D108882371F0688179818A810E94B22170
:103810008C010E9408210E940A20B801CE010E945A
:103820003119DF91CF911F910F9108950E940922C4
:103830000E9419220E9435220E9426270E948D266E
:1038400080E090E00E94FB1580E090E00C9411165F
:1038500080911601909117010E94E0230C94161C90
:103860000E94F9210C94281CE92FE295EF70F0E0FA
:103870003297EE30F105B0F4E456FF4F0C948030EF
:10388000803F91F018F4803E68F40EC0843F51F4FC
:103890000BC0803E48F0813F29F406C093FB882787
:1038A00080F9089580E0089581E008950E94A7219D
:1038B0000E94341C0895CF93DF9300D000D01F9254
:1038C000CDB7DEB70F900F900F900F900F90DF9154
:1038D000CF910895CF93DF9300D000D000D0CDB723
:1038E000DEB726960FB6F894DEBF0FBECDBFDF91D0
:1038F000CF9108951F93CF93DF93C091590216E0A3
:1039000080915A02C81799F0D0E01C9FF0011D9FCA
:10391000F00D1124E55AFD4F408151816281738180
:10392000848195810E946A1C2196C770E9CFDF913E
:10393000CF911F91089540918B0250918C0260911C
:103940008D0270918E0280918F02909190020C9462
:103950006A1C8091900282958F7009F054C080910A
:103960008D02882309F44FC080915902A0915A0218
:1039700060918B0270918C0240918E0250918F0267
:10398000B6E08A1709F43FC090E041155105C1F136
:103990007F3F11F46F3FA1F1B89FF001B99FF00D87
:1039A0001124E55AFD4F218172132AC02081621330
:1039B00027C02281211124C0238134812417350797
:1039C00010F421503109241B350B283C3105C0F47B
:1039D000209190022F7020612093900226E0289F72
:1039E000F001299FF00D1124E05AFD4F80818F7066
:1039F000806180838BE892E00E94EF1B0C947A1C1C
:103A000001968770BECF0895CF92DF92EF92FF921A
:103A10000F931F93CF93DF93CDB7DEB762970FB6A7
:103A2000F894DEBF0FBECDBF8C0185E0F801DE014A
:103A30001D9601900D928A95E1F7D8014C9111964F
:103A40005C91119712966C9112971396CD90DC9021
:103A5000149730918B0270918C0280918E0290911C
:103A60008F02009709F46BC17F3F19F43F3F09F4BF
:103A700066C1E0908D02EE2009F4C0C02091900252
:103A8000C816D90628F0F601E81BF90BCF0104C0CF
:103A9000809590958C0D9D1DFF24F394883C910595
:103AA00078F0F12C207F09F0C6C07C2DD98AC88A15
:103AB00089890E945B1C8BE892E00E94EF1BB1C0D9
:103AC000822F807F09F046C0751314C0341312C0D2
:103AD000611110C02F702061209390020E949B1CE6
:103AE0008BE892E00E94EF1B80919002D80115961E
:103AF0008C932EC0CD2819F15F3F11F44F3FF9F0A0
:103B0000F62E61111CC08091590220915A0236E0B4
:103B1000821709F45AC090E0389FF001399FF00DE8
:103B20001124E55AFD4F7181571306C07081471368
:103B300003C07281711103C001968770E9CFF62E20
:103B4000662309F427C180919002816080939002DE
:103B5000F12C20C1751308C0341306C0611104C0D4
:103B600080919002D801C3C04D875E878D859E8568
:103B70006A8B0E94561C6A898823E1F16623D1F181
:103B800020919002822F82958F7090E0029774F0BE
:103B900080918B0290918C0298878F831986DB86A7
:103BA000CA862C87CE0107960E94EF1B86E0F8019B
:103BB000ABE8B2E001900D928A95E1F70E94A91C52
:103BC0000E949B1CFF24F394E5C04D875E878D8582
:103BD0009E850E94A721292F22952F7030E0223048
:103BE00031050CF0CBC09F7009F0C5C0805E8830F5
:103BF00008F4D0C0C8010E94EF1BE4CFC816D90654
:103C000008F453C0F601E81BF90BCF01883C91057D
:103C100008F450C0F12C7C2DD98AC88A89890E9469
:103C20005B1CEBE8F2E086E0DF011D928A95E9F784
:103C30000E949B1CAFC0751314C0341312C06111D5
:103C400010C080919002F8018583C8010E94EF1B8B
:103C500086E0EBE8F2E0DF011D928A95E9F7FE2CA1
:103C600099C04D875E878D859E856A8B0E94561C04
:103C70006A89882309F4BECF662309F4BBCF20915B
:103C80009002822F82958F7090E002970CF48ECF75
:103C900080918B0290918C029A8389831B82DD82B2
:103CA000CC822E83CE0101967FCF809590958C0D8E
:103CB0009D1DACCFF62E662309F49CCF75132EC044
:103CC00034132CC02091900220FD1FC0822F8295BA
:103CD0008F70D9F0D80115962C9315978F3049F035
:103CE0008F5F982F9295907F822F8F70892B1596DA
:103CF0008C93C8010E94EF1B86E0F801ABE8B2E0AC
:103D000001900D928A95E1F793CF86E0F801ABE838
:103D1000B2E001900D928A95E1F73CC04D875E8735
:103D20008D859E850E94561C811140CF8091900206
:103D3000816080939002C8010E94EF1B2BC0662314
:103D400009F458CF4D875E878D859E850E94561C4D
:103D5000F82E882309F44ECF86E0F801ABE8B2E0F4
:103D600001900D928A95E1F78BE892E00E94681726
:103D70000E94A91C5DCF811139CF0CC024303105C0
:103D80000CF038CF9F7009F431CFF8019581907F06
:103D900009F02CCF8F2D62960FB6F894DEBF0FBEC0
:103DA000CDBFDF91CF911F910F91FF90EF90DF90EA
:103DB000CF9008951F93CF93DF93CDB7DEB72C97A5
:103DC0000FB6F894DEBF0FBECDBF4F83588769870B
:103DD0007A878B879C87CE0107960E94041D8823D3
:103DE00069F08F8198852A853B85232BF1F19F3FD0
:103DF00009F063C08F3F09F060C037C086E0FE0164
:103E00003796DE01119601900D928A95E1F76F8148
:103E10007885EA85FB85309741F17F3F11F46F3F4C
:103E200021F120915A0230E0C9010196877099274B
:103E30004091590250E08417950709F447C06983FF
:103E40007A83FD83EC8396E0929FD001939FB00D1F
:103E50001124A55ABD4FFE01319601900D929A95FD
:103E6000E1F780935A020E947A1C16E08091590271
:103E700090915A028917C1F1189FC0011124855AE7
:103E80009D4F0E94041D882379F1E09159021E9FE5
:103E9000F0011124E55AFD4F408151816281738107
:103EA000848195810E946A1C8091590290E001965C
:103EB0008770992780935902D9CF4F81588569859A
:103EC0007A858B859C850E946A1CCFCF0E94301C0E
:103ED00010925A0210925902EBE8F2E086E0DF01FC
:103EE0001D928A95E9F7C1CF2C960FB6F894DEBFE4
:103EF0000FBECDBFDF91CF911F910895EF92FF923A
:103F00000F931F93CF93DF938C01892B09F46CC01F
:103F1000F12CEE24E394E8012196F8018491843792
:103F200040F4843008F051C0813081F0823019F1C2
:103F30005BC0853709F444C0A8F19CE7980F90371F
:103F400008F052C08F770E94B31841C00E5F1F4F18
:103F5000FE01C49180E28C0F883048F4C7708E2D2A
:103F600001C0880FCA95EAF70E940C2214C08C2F5A
:103F70000E947A172DC00E5F1F4FFE01C49180E290
:103F80008C0F883058F4C7708E2D01C0880FCA95E9
:103F9000EAF70E9412220E9435221AC08C2F0E943A
:103FA000B31816C00E5F1F4FFE01C491CC2381F0E1
:103FB0008FE99FE00197F1F700C00000C150F6CFF4
:103FC0000E5F1F4FFE01F49003C00E947A178E010E
:103FD0008F2D882309F49FCFEFE9FFE03197F1F7A8
:103FE00000C000008150F5CFDF91CF911F910F915C
:103FF000FF90EF90089508950C94FB1F0E94FC1F02
:104000006093CC027093CD028093CE029093CF0246
:104010000C94161C08950C94FE1F0F931F9300918F
:10402000CC021091CD022091CE023091CF02602BB4
:10403000712B822B932B1F910F910C94FE1F0F93CA
:104040001F930091CC021091CD022091CE023091AD
:10405000CF0260237123822393231F910F910C942D
:10406000FE1F0F931F930091CC021091CD0220915F
:10407000CE023091CF0260277127822793271F91AC
:104080000F910C94FE1F0C94BE070E944320609376
:10409000C8027093C9028093CA029093CB020C9419
:1040A000161C60E070E0CB010C9445200F931F9329
:1040B00041E050E060E070E08A019B0104C0000F25
:1040C000111F221F331F8A95D2F7C901B8011F9112
:1040D0000F910C9445200F931F9341E050E060E056
:1040E00070E004C0440F551F661F771F8A95D2F7F2
:1040F0008091C8029091C902A091CA02B091CB02EE
:104100008A019B01082B192B2A2B3B2BC901B801D3
:104110001F910F910C9445200F931F9341E050E0A5
:1041200060E070E004C0440F551F661F771F8A953A
:10413000D2F740955095609570958091C802909106
:10414000C902A091CA02B091CB028A019B01082347
:1041500019232A233B23C901B8011F910F910C9405
:1041600045200F931F9341E050E060E070E004C0F1
:10417000440F551F661F771F8A95D2F78091C8029A
:104180009091C902A091CA02B091CB028A019B0111
:10419000082719272A273B27C901B8011F910F912A
:1041A0000C9445200F931F930091C8021091C902EF
:1041B0002091CA023091CB02602B712B822B932B62
:1041C0001F910F910C9445200F931F930091C802EB
:1041D0001091C9022091CA023091CB026023712351
:1041E000822393231F910F910C9445200F931F93CB
:1041F0000091C8021091C9022091CA023091CB02ED
:1042000060277127822793271F910F910C944520D7
:104210000895292F220F920F990F890FA82FA69585
:10422000A695A695877051E001C0550F8A95EAF7CB
:1042300085E0A89FD001112420E030E070E0F90172
:10424000EA0FFB1FEF56FD4F4081CB01022E02C04B
:10425000969587950A94E2F781709927819584272E
:104260008523842780832F5F3F4F2530310539F721
:104270000895292F220F920F990F890F682F6695A5
:1042800066956695982F977085E0689FB001112418
:1042900040E050E080E0FA01E60FF71FEF56FD4FD7
:1042A000208130E0092E02C0369527950A94E2F766
:1042B00021703327042E01C0220F0A94EAF7822BC3
:1042C0004F5F5F4F4530510531F70895BF92CF9250
:1042D000DF92EF92FF920F931F93CF93DF938C01A6
:1042E000C090CC02D090CD02E090CE02F090CF02F0
:1042F0008091C8029091C902A091CA02B091CB02EC
:10430000C82AD92AEA2AFB2ACFE1D0E0D701C60180
:104310000C2E04C0B695A795979587950A94D2F769
:1043200080FF07C0BC2EB8018C2F0E94FE0A0197A7
:1043300019F4219758F7B12C8B2DDF91CF911F9154
:104340000F91FF90EF90DF90CF90BF900895CF93A3
:10435000DF93EC010E946621BE010E94FE0ADF91FC
:10436000CF9108951F93CF93DF93EB019091560265
:10437000992321F0CB010E94A72113C0882349F083
:10438000CB010E946621182F682FCE010E940921BF
:1043900004C0CB010E943921182FBE01812F0E9439
:1043A000FE0ADF91CF911F9108958091D0028595EB
:1043B0008595859508958091D00287700895909194
:1043C000D002977081E009F480E008958091F402B2
:1043D00008959091F402892B8093F40208958095BA
:1043E0009091F40289238093F40208958093F4025B
:1043F00008951092F40208959091F302892B80930E
:10440000F302089580959091F30289238093F3023B
:1044100008951092F30208959091F202892B8093EF
:10442000F202089580959091F20289238093F2021E
:1044300008951092F20208958091D102089508958E
:104440000C941F229091D102981721F08093D102F1
:104450000C94202208958091D102882329F0109293
:10446000D10280E00C9420220895E0911601F09191
:1044700017018091F4028083E0911601F0911701F9
:1044800090818091F302892B8083E0911601F09155
:10449000170190818091F202892B80838091D10253
:1044A000882381F0E0911601F09117019081892B0A
:1044B000808380911601909117010E9465238111DC
:1044C0000E942B2280911601909117010C94D31514
:1044D00008950C94682298E0899F90011124262B5E
:1044E0002093D0020E946B208091D0028595859503
:1044F00085950C9469221092D00280E00C94692278
:104500002091D002809582238093D002982F9770BB
:1045100079F430E0482F552747FD5095241735078B
:1045200039F08595859585950E948C200C947B2289
:104530000895CF92DF92EF92FF926C01EE24FF2458
:10454000C114D104E104F10421F0C701B60120E156
:1045500001C020E0C72ED82EE92EFF24C114D104BB
:10456000E104F10419F0285FC701B6016B017C0179
:1045700054E0F694E794D794C7945A95D1F7C114B0
:10458000D104E104F10419F02C5FC701B6016B01FD
:104590007C0142E0F694E794D794C7944A95D1F70A
:1045A000C114D104E104F10419F02E5FC701B60172
:1045B000DC01CB01B695A79597958795892B8A2B1A
:1045C0008B2B09F02F5F822FFF90EF90DF90CF9021
:1045D000089580E090E00E94CE3121E08D3E9E4F14
:1045E00009F020E0822F089582E090E00C94C03121
:1045F00083E090E00C94C03184E090E00C94C031F2
:10460000682F84E090E00C94D431AB01BC018FE0C2
:1046100090E00C94E531AB01BC0183E190E00C9497
:10462000E53160E070E0CB010C940B2360E070E0BA
:10463000CB010E9405230C9411236DEE7EEF80E0E8
:1046400090E00E94F13160E082E090E00E94D4317D
:1046500060E083E090E00E94D4311092CC0210928E
:10466000CD021092CE021092CF0260E084E090E082
:104670000E94D43160E085E090E00E94D43160E097
:1046800086E090E00E94D4316FEF87E090E00E94D6
:10469000D43140E050E0BA0188E090E00E94E5317A
:1046A00060E08DE090E00E94D43140E050E0BA013B
:1046B00088E190E00E94E53160E087E190E00E94AF
:1046C000D4310C9416230C941D23FC013296809156
:1046D0002701882331F08091720387FF02C09EE199
:1046E00001C096E080E0915028F021912223D9F377
:1046F0008F5FF9CF08959C01FC0132969FEF80E017
:104700004191461789F09F3F19F4411101C0982F3C
:104710008F5F8630A9F79F3F39F0F901E90FF11D4E
:1047200097FDFA95628308950895FC0132960896E4
:104730002081261301C010823196E817F907C1F7CE
:104740000895262F2695269526952E3168F4FC018E
:10475000E20FF11D677021E030E001C0220F6A9581
:10476000EAF78281282B22830895262F2695269505
:1047700026952E3170F4FC01E20FF11D677021E0E7
:1047800030E001C0220F6A95EAF720958281282344
:104790002283089520912701222329F0209172037A
:1047A00027FD0C94A1230C947B2320912701222325
:1047B00029F02091720327FD0C94B5230C949523C6
:1047C00020912701FC013296222331F0809172035F
:1047D00087FF02C08EE101C086E0DF011D928A954D
:1047E000E9F7089508950C94F2230E94F323809131
:1047F0007803843049F11092F60220E488E190E0D9
:104800000FB6F894A895809360000FBE20936000C7
:1048100080E00E94BF080E94F32383B7817F8460F9
:1048200083BF83B7816083BF7894889583B78E7F79
:1048300083BF0FB6F894A89580916000886180933B
:104840006000109260000FBE08950895CF930E94FB
:1048500082050E9495050E942524C0E08C2F0E94AD
:10486000FC05811104C0CF5FCE30C1F701C081E0EB
:10487000CF91089508950C943A240E94301C0E9410
:10488000C7150E94BF080C943B241F920F920FB6CD
:104890000F9211248F939F93AF93BF938091F60251
:1048A000811113C080916E0390916F03A0917003EA
:1048B000B09171034196A11DB11D80936E03909339
:1048C0006F03A0937003B0937103BF91AF919F9159
:1048D0008F910F900FBE0F901F90189582E084BDAE
:1048E00093E095BD9AEF97BD80936E0008952FB722
:1048F000F89480916E0390916F03A0917003B09132
:1049000071032FBF0895CF92DF92EF92FF920F9322
:104910001F932FB7F89440916E0350916F036091ED
:104920007003709171032FBF6A017B01EE24FF2495
:104930008C0120E030E0C016D106E206F30610F448
:10494000415051099A01281B390BC9011F910F9140
:10495000FF90EF90DF90CF90089578941F920F9280
:104960000FB60F9211248F939F93AF93BF938091B3
:104970006E0390916F03A0917003B0917103019643
:10498000A11DB11D80936E0390936F03A0937003DC
:10499000B0937103BF91AF919F918F910F900FBE14
:1049A0000F901F901895F89481E08093E00080E2CA
:1049B0008093D800E9ECF0E010828FE19EE401974B
:1049C000F1F700C000001DBA109268001CBC10BEB8
:1049D0001FBA10927A0010926E0010926F0010921F
:1049E0007100109272001082ECEBF0E0108214B8AB
:1049F00017B81AB81DB810BA108215B818B81BB875
:104A00001EB811BA0C94003F08950E94E92281114A
:104A100002C00E9463230E94F4228093F5020E9448
:104A2000FC2290E090937303809372030E94F8221B
:104A3000682F70E080E090E00C940B208091FB02E6
:104A400080FF0BC060911B0185E0689FB0011124BD
:104A500075956795759567952BC081FF09C0609125
:104A60001B0185E0689FB00111247595679520C0F2
:104A700082FF07C060911B0185E0689FB00111248F
:104A800017C09091FA029923D1F060911A019617FC
:104A900088F720911B0185E0289F90011124929FA7
:104AA000A001939F500D112470E0CA010E946C3048
:104AB0006038710540F46115710539F002C065E098
:104AC00070E0862F08958FE7089581E00895809122
:104AD000FB0280FF08C06091190170E07595679531
:104AE0007595679521C081FF06C06091190170E03E
:104AF0007595679519C082FF04C06091190170E037
:104B000010C09091FA029923C1F060911801961794
:104B1000A0F780911901899FC001112470E00E94C3
:104B20006C306038710528F46115710521F0862F0D
:104B300008958FE7089581E0089561E070E0F4CF73
:104B4000803F21F40E941E25819504C0813F29F4F5
:104B50000E941E258093FF020895823F21F40E9447
:104B60001E25819504C0833F29F40E941E25809351
:104B7000FE020895893F19F40E94672505C08A3F07
:104B800031F40E94672581958093000308958B3F3F
:104B900021F40E946725819504C08C3F29F40E946E
:104BA0006725809301030895843F21F48091FD02DD
:104BB000816017C0853F21F48091FD02826011C0A1
:104BC000863F21F48091FD0284600BC0873F21F471
:104BD0008091FD02886005C0883F31F48091FD021C
:104BE00080618093FD0208958D3F21F48091FB0246
:104BF00081600BC08E3F21F48091FB02826005C072
:104C00008F3F29F48091FB0284608093FB0208951A
:104C1000803F39F48091FF0287FF6CC01092FF0241
:104C200069C0813F29F48091FF021816BCF362C06D
:104C30009091FE02823F29F497FF5CC01092FE0221
:104C400059C0833F19F41916CCF354C0893F41F47D
:104C50008091000318160CF04DC0109200034AC05A
:104C60008A3F29F48091000387FF44C0F6CF8B3F31
:104C700039F48091010387FF3DC0109201033AC0CF
:104C80008C3F29F4809101031816BCF333C0843F94
:104C900021F48091FD028E7F17C0853F21F4809121
:104CA000FD028D7F11C0863F21F48091FD028B7F34
:104CB0000BC0873F21F48091FD02877F05C0883FAC
:104CC00031F48091FD028F7E8093FD0213C08D3FF1
:104CD00021F48091FB028E7F0BC08E3F21F48091E6
:104CE000FB028D7F05C08F3F29F48091FB028B7FF3
:104CF0008093FB028091FE0281110EC08091FF0221
:104D000081110AC080910003811106C080910103C6
:104D1000811102C01092FA0208958CEF92E00E9475
:104D2000ED150E9477249093F9028093F80208957C
:104D30001F93CF93DF938091F8029091F9020E9424
:104D40008324AC019091FA02992321F020911C0157
:104D500030E006C02091F7028AE0289F90011124DC
:104D60004217530708F46EC08091FE02C091FF0203
:104D7000D091000310910103811107C0C1115EC0E1
:104D8000D1115CC011115AC05DC09F3F19F09F5FE7
:104D90009093FA02181624F40E941E258093FE02B6
:104DA0008091FE0287FF05C00E941E258195809399
:104DB000FE021C1624F40E941E258093FF0280919F
:104DC000FF0287FF05C00E941E2581958093FF0288
:104DD0004091FE02442379F03091FF02332359F0D1
:104DE00025EB4203A00111245093FE023203C001BF
:104DF00011249093FF021D1624F40E9467258093CE
:104E000000038091000387FF05C00E9467258195FC
:104E100080930003111624F40E94672580930103F8
:104E20008091010387FF05C00E94672581958093CB
:104E30000103DF91CF911F910C948D269F3F09F0C4
:104E4000A6CFAECFDF91CF911F910895ECEFF2E0A6
:104E500086E0DF011D928A95E9F71092FA0210921E
:104E6000FB020895833081F128F4813059F08230BB
:104E7000D1F00895853009F449C0B8F1863009F4BD
:104E800056C008958091F702262F30E0280F311D7B
:104E90002F3F310524F4680F6093F70208958FEFD8
:104EA0008093F702089580911C01262F30E0280F8F
:104EB000311D2F3F310524F4680F60931C010895C4
:104EC0008FEF80931C01089580911B01262F30E005
:104ED000280F311D2F3F310524F4680F60931B010B
:104EE00008958FEF80931B01089580911A01262F5A
:104EF00030E0280F311D2F3F310524F4680F6093F7
:104F00001A0108958FEF80931A0108958091190175
:104F1000262F30E0280F311D2F3F310524F4680F74
:104F20006093190108958FEF80931901089580917E
:104F30001801262F30E0280F311D2F3F310524F4B2
:104F4000680F6093180108958FEF809318010895FA
:104F5000833011F128F4813049F0823091F00895C6
:104F6000853081F120F18630C1F108958091F702FA
:104F7000681720F4861B8093F70208951092F702B9
:104F8000089580911C01681720F4861B80931C01F2
:104F9000089510921C01089580911B01681720F458
:104FA000861B80931B01089510921B010895809128
:104FB0001A01681720F4861B80931A010895109235
:104FC0001A01089580911901681720F4861B8093B7
:104FD0001901089510921901089580911801681718
:104FE00020F4861B809318010895109218010895EB
:104FF0000F931F93482F50E0FA013597EF33F105D7
:1050000008F07FC0E655FF4F0C9480300E94632368
:1050100071C08091F502817F8E7F8093F50281E0DF
:10502000809303036FC00E94301C0FEF13ED20E349
:10503000015010402040E1F700C000000E94D3243E
:1050400059C08091F502982F9095917090FB80F94E
:105050008093F50291114EC0897F877F10C08091A7
:10506000F50281FB222720F991E0922790FB81F93C
:105070008093F5029923F1F18091F502816080938C
:10508000F50238C08091F50282FB222720F991E0D9
:10509000922790FB82F9ECCF8091F50283FB2227C7
:1050A00020F991E0922790FB83F9E2CF0E94301C17
:1050B0008091720387FB222720F991E0922790FBD1
:1050C00087F98093720316C0895301C08D5141E066
:1050D00050E060E070E08A019B0104C0000F111FE6
:1050E000221F331F8A95D2F7C901B8010E940B20F5
:1050F0000E94301C81E006C061E070E080E090E03A
:10510000F5CF80E01F910F91089580E0089580E031
:1051100008958E518A3030F4E82FF0E0EB50FE4FC6
:105120008081089580E00895CF93C82F8091030374
:10513000813071F018F08230E1F184C00E94E621E4
:10514000813151F00E94E621823209F07DC004C015
:105150000E94E621813149F48C2F0E94852881111B
:1051600009C08C2F0E94F82722C00E94E6218232BB
:1051700021F4F2CF81E090E01AC08C2F0E948728A2
:10518000811114C0C43179F048F4CB3079F0C031CA
:1051900009F05EC082E08093030308C0C93219F0B1
:1051A000C83321F055C01092030352C081E08170D2
:1051B00051C0C93279F108F5C43161F1A0F4C730AA
:1051C00009F044C01092F70284E180931C01C0935F
:1051D0001B018CE380931A0188E08093190188E217
:1051E0008093180133C082EE8C0F863078F58C2FB7
:1051F0000E9489288093020329C0CE34E9F020F46C
:10520000CB3421F56AE013C0C13579F0C235F1F431
:1052100061E00DC080910203882319F0109202030F
:1052200015C081E08093030315C061E006C0809142
:1052300002030E9432270AC06AE0809102030E94A2
:10524000A82704C01092030380E004C081E002C0DC
:1052500080E0ADCFCF9108958091240308950F93FE
:105260001F93CF93DF9300D01F92CDB7DEB78C0191
:105270000E949F2B823011F0843021F584E08983D5
:105280001B830A8382E08093E9008FEF9091E8000E
:10529000815095FD06C095ED9A95F1F700008111BA
:1052A000F5CF8091E80085FF0DC040E050E063E05D
:1052B00070E0CE0101960E94BC2B8091E8008E77B1
:1052C0008093E8000F900F900F90DF91CF911F9186
:1052D0000F910895CF93DF9300D01F92CDB7DEB723
:1052E00020917803243031F523E0298380589109F7
:1052F0009B838A8382E08093E9008FEF9091E8009E
:10530000815095FD06C095ED9A95F1F70000811149
:10531000F5CF8091E80085FF0DC040E050E063E0EC
:1053200070E0CE0101960E94BC2B8091E8008E7740
:105330008093E8000F900F900F90DF91CF91089528
:10534000CF93DF93EC010E949F2B823011F08430C9
:10535000F9F482E08093E9009FEF8091E80091509A
:1053600085FD06C085ED8A95F1F700009111F5CF16
:105370008091E80085FF0CC040E050E066E070E0FE
:10538000CE010E94BC2B8091E8008E778093E800CC
:10539000DF91CF910895CF93DF93EC010E949F2B73
:1053A000823011F08430D9F580912701882339F0BB
:1053B0008091720387FF03C060E282E002C068E070
:1053C00081E08093E9008FEF9091E800815095FD96
:1053D00006C095ED9A95F1F700008111F5CF809107
:1053E000E80085FF1CC080912701811105C040E0C5
:1053F00050E068E070E003C070E040E050E0CE01B3
:105400000E94BC2B8091E8008E778093E80080E2B8
:10541000FE01A4E0B3E001900D928A95E1F7DF91DF
:10542000CF91089580917703811109C00E94512D79
:105430000E94AE2D8091E20084608093E200089586
:10544000109277030895089508950C943D2442E046
:1054500061EC81E00E94CB2C42E261EC82E00C9492
:10546000CB2C80917A03833009F460C030F4813012
:1054700071F0823009F499C008958A3009F485C02A
:105480008B3009F46BC0893009F0A7C020C080912F
:105490007903813A09F0A1C08091E800877F809369
:1054A000E80080917D0390917E03892B21F460E2D6
:1054B00084E093E003C060E080E090E070E00E9450
:1054C000072C8091E8008B778093E8000895809105
:1054D0007903813209F081C080917D0390917E0330
:1054E000029708F07AC08091E800877F8093E800F7
:1054F0008091E80082FD05C0809178038111F8CF8A
:105500006CC02091F3008091F20090E0922B029702
:1055100029F48091F1008B7F813021F48091F1009A
:10552000809324038091E8008B7753C080917903A6
:10553000813A09F052C080917D0390917E03892BBE
:1055400009F04BC08091E800877F8093E80080914C
:10555000E80080FFFCCF8091270136C0809179035D
:105560008132D9F580917D0390917E03892BA9F535
:105570008091E800877F8093E8000E94002D809151
:105580007B03809327010C94301C80917903813236
:1055900021F58091E800877F8093E8000E94002D2C
:1055A00080917C0380932503089580917903813A4B
:1055B000A1F48091E800877F8093E8008091E80063
:1055C00080FFFCCF809125038093F1008091E8005B
:1055D0008E778093E8000C94002D089584B7877F20
:1055E00084BF0FB6F894A89580916000886180937D
:1055F0006000109260000FBE80E8809361001092FE
:1056000061000E9435160E94512D0E94AE2D80919E
:10561000E20084608093E20078940E943D300E9412
:105620003D168DE191E00E94C2158091780385308E
:1056300069F40E94F523809176038823B1F30E94D8
:105640002624882391F30E94A62BEFCF0E944716B1
:105650000E94C713EACF0C942D2B292F3327233018
:105660003105C9F064F42130310581F02230310573
:1056700009F04CC08BE390E02CEC37E04BC02132BA
:10568000310521F12232310589F140C082E190E0FB
:1056900027E038E03FC099278130910571F02CF464
:1056A000892BA1F5E8ECF7E00DC08230910541F0BF
:1056B000039761F5E2E9F7E005C0E0EBF7E002C02F
:1056C000E8E9F7E0849190E09F0124C0611571053D
:1056D00041F061307105D1F489E090E027EF37E0C7
:1056E00019C089E090E02EED37E014C06115710516
:1056F00041F06130710551F480EC90E029E138E02F
:1057000009C080E490E029ED38E004C080E090E03A
:1057100020E030E0FA013183208308950895CF938B
:10572000C82F0E948E2BC0932603CF91089580919D
:105730007803843011F081E0089582E0089580912B
:105740002603811102C00C94972B089580E189BD36
:1057500082E189BD09B400FEFDCF8091D8008F7D24
:105760008093D8008091E00082608093E000809177
:10577000E00081FDFCCF0895CF92DF92EF92FF927F
:105780000F931F93CF93DF93EC018B016A010E946B
:105790001F2D811133C0C114D10439F0F60180816D
:1057A0009181081B190BC80FD91FE12CF12C011591
:1057B000110519F18091E80085FD16C08091E8007F
:1057C0008E778093E800C114D10449F0F6018081FE
:1057D0009181E80EF91EF182E08285E00FC00E94FF
:1057E0001F2D882321F30AC089918093F100015075
:1057F0001109FFEFEF1AFF0ADACF80E0DF91CF91B6
:105800001F910F91FF90EF90DF90CF90089520911E
:105810007F03309180032617370748F06115710523
:1058200039F42091E8002E772093E80001C0B901F7
:1058300040E061157105A9F120917803222309F454
:1058400043C0253009F442C02091E80023FD40C048
:105850002091E80022FD32C02091E80020FFE9CF2E
:105860004091F3002091F20030E0342BFC01CF0195
:105870006115710559F02830310540F4819180930C
:10588000F100615071092F5F3F4FF1CF41E02830A7
:10589000310509F040E02091E8002E772093E800E0
:1058A000C8CF4111C9CF0AC080917803882361F025
:1058B000853061F08091E80083FD0AC08091E800A6
:1058C00082FFF2CF80E0089582E0089583E008959A
:1058D00081E0089520917F033091800326173707D8
:1058E00048F06115710539F42091E8002E77209376
:1058F000E80001C0B901FC0120E06115710591F1DA
:1059000080917803882309F440C0853009F43FC0B2
:105910008091E80083FD3DC08091E80082FD2FC0AA
:105920008091E80080FFE9CF2091F3008091F200A0
:1059300090E0922B6115710559F08830910540F483
:1059400024912093F1003196615071090196F2CFB4
:1059500021E0089709F020E08091E8008E7780939D
:10596000E800CBCF2111CCCF0AC0809178038823E7
:1059700061F0853061F08091E80083FD0AC080917C
:10598000E80082FFF2CF80E0089582E0089583E08E
:10599000089581E00895982F973058F59093E90085
:1059A000981739F07091EC002091ED005091F000C3
:1059B00003C0242F762F50E021FF19C03091EB0057
:1059C0003E7F3093EB003091ED003D7F3093ED0052
:1059D0003091EB0031603093EB007093EC0020933A
:1059E000ED005093F0002091EE0027FF07C09F5F6D
:1059F000D3CF8F708093E90081E0089580E008950F
:105A00008091790387FF11C08091E80082FD05C075
:105A1000809178038111F8CF11C08091E8008B77D5
:105A20000BC080917803882349F08091E80080FFC3
:105A3000F8CF8091E8008E778093E8000895209158
:105A4000E4003091E50095E6A9012091EC00822F59
:105A5000817020FF21C08091E80080FD1BC08091F3
:105A60007803882389F0853089F08091EB0085FDEB
:105A70000FC02091E4003091E5002417350729F389
:105A8000915011F784E0089582E0089583E008952D
:105A900081E0089580E008952091E80022FFDFCFA3
:105AA00008950E94BF2D0E94C72DE0EEF0E0808196
:105AB00081608083E8EDF0E080818F77808319BC7E
:105AC000A7EDB0E08C918E7F8C9380818F7E808358
:105AD0001092770308950F931F93CF93DF930E9443
